{
	"src/Price_Feed/OP_PriceFeed.sol": {
		"OP_DataConsumerV3": {
			"abi": [
				{
					"inputs": [],
					"stateMutability": "nonpayable",
					"type": "constructor"
				},
				{
					"inputs": [
						{
							"internalType": "string[]",
							"name": "_tokenName",
							"type": "string[]"
						},
						{
							"internalType": "address[]",
							"name": "_tokenaddress",
							"type": "address[]"
						}
					],
					"name": "addDatafeed",
					"outputs": [],
					"stateMutability": "nonpayable",
					"type": "function"
				},
				{
					"inputs": [
						{
							"internalType": "string",
							"name": "",
							"type": "string"
						}
					],
					"name": "datafeedContracts",
					"outputs": [
						{
							"internalType": "address",
							"name": "",
							"type": "address"
						}
					],
					"stateMutability": "view",
					"type": "function"
				},
				{
					"inputs": [
						{
							"internalType": "string",
							"name": "_tokenDatafeed",
							"type": "string"
						}
					],
					"name": "getChainlinkDataFeedLatestAnswer",
					"outputs": [
						{
							"internalType": "int256",
							"name": "",
							"type": "int256"
						}
					],
					"stateMutability": "view",
					"type": "function"
				},
				{
					"inputs": [],
					"name": "owner",
					"outputs": [
						{
							"internalType": "address",
							"name": "",
							"type": "address"
						}
					],
					"stateMutability": "view",
					"type": "function"
				}
			],
			"devdoc": {
				"kind": "dev",
				"methods": {},
				"version": 1
			},
			"evm": {
				"assembly": "    /* \"src/Price_Feed/OP_PriceFeed.sol\":171:968  contract OP_DataConsumerV3 {... */\n  mstore(0x40, 0x80)\n    /* \"src/Price_Feed/OP_PriceFeed.sol\":290:339  constructor() {... */\n  callvalue\n  dup1\n  iszero\n  tag_1\n  jumpi\n  0x00\n  dup1\n  revert\ntag_1:\n  pop\n    /* \"src/Price_Feed/OP_PriceFeed.sol\":322:332  msg.sender */\n  caller\n    /* \"src/Price_Feed/OP_PriceFeed.sol\":314:319  owner */\n  0x00\n  dup1\n    /* \"src/Price_Feed/OP_PriceFeed.sol\":314:332  owner = msg.sender */\n  0x0100\n  exp\n  dup2\n  sload\n  dup2\n  0xffffffffffffffffffffffffffffffffffffffff\n  mul\n  not\n  and\n  swap1\n  dup4\n  0xffffffffffffffffffffffffffffffffffffffff\n  and\n  mul\n  or\n  swap1\n  sstore\n  pop\n    /* \"src/Price_Feed/OP_PriceFeed.sol\":171:968  contract OP_DataConsumerV3 {... */\n  dataSize(sub_0)\n  dup1\n  dataOffset(sub_0)\n  0x00\n  codecopy\n  0x00\n  return\nstop\n\nsub_0: assembly {\n        /* \"src/Price_Feed/OP_PriceFeed.sol\":171:968  contract OP_DataConsumerV3 {... */\n      mstore(0x40, 0x80)\n      callvalue\n      dup1\n      iszero\n      tag_1\n      jumpi\n      0x00\n      dup1\n      revert\n    tag_1:\n      pop\n      jumpi(tag_2, lt(calldatasize, 0x04))\n      shr(0xe0, calldataload(0x00))\n      dup1\n      0x23e21386\n      eq\n      tag_3\n      jumpi\n      dup1\n      0x4a666704\n      eq\n      tag_4\n      jumpi\n      dup1\n      0x6b33e354\n      eq\n      tag_5\n      jumpi\n      dup1\n      0x8da5cb5b\n      eq\n      tag_6\n      jumpi\n    tag_2:\n      0x00\n      dup1\n      revert\n        /* \"src/Price_Feed/OP_PriceFeed.sol\":231:283  mapping (string => address) public datafeedContracts */\n    tag_3:\n      tag_7\n      0x04\n      dup1\n      calldatasize\n      sub\n      dup2\n      add\n      swap1\n      tag_8\n      swap2\n      swap1\n      tag_9\n      jump\t// in\n    tag_8:\n      tag_10\n      jump\t// in\n    tag_7:\n      mload(0x40)\n      tag_11\n      swap2\n      swap1\n      tag_12\n      jump\t// in\n    tag_11:\n      mload(0x40)\n      dup1\n      swap2\n      sub\n      swap1\n      return\n        /* \"src/Price_Feed/OP_PriceFeed.sol\":345:675  function addDatafeed(string[] memory _tokenName, address[] memory _tokenaddress) external {... */\n    tag_4:\n      tag_13\n      0x04\n      dup1\n      calldatasize\n      sub\n      dup2\n      add\n      swap1\n      tag_14\n      swap2\n      swap1\n      tag_15\n      jump\t// in\n    tag_14:\n      tag_16\n      jump\t// in\n    tag_13:\n      stop\n        /* \"src/Price_Feed/OP_PriceFeed.sol\":681:966  function getChainlinkDataFeedLatestAnswer(string memory _tokenDatafeed) external view returns (int) {... */\n    tag_5:\n      tag_17\n      0x04\n      dup1\n      calldatasize\n      sub\n      dup2\n      add\n      swap1\n      tag_18\n      swap2\n      swap1\n      tag_9\n      jump\t// in\n    tag_18:\n      tag_19\n      jump\t// in\n    tag_17:\n      mload(0x40)\n      tag_20\n      swap2\n      swap1\n      tag_21\n      jump\t// in\n    tag_20:\n      mload(0x40)\n      dup1\n      swap2\n      sub\n      swap1\n      return\n        /* \"src/Price_Feed/OP_PriceFeed.sol\":205:225  address public owner */\n    tag_6:\n      tag_22\n      tag_23\n      jump\t// in\n    tag_22:\n      mload(0x40)\n      tag_24\n      swap2\n      swap1\n      tag_12\n      jump\t// in\n    tag_24:\n      mload(0x40)\n      dup1\n      swap2\n      sub\n      swap1\n      return\n        /* \"src/Price_Feed/OP_PriceFeed.sol\":231:283  mapping (string => address) public datafeedContracts */\n    tag_10:\n      0x01\n      dup2\n      dup1\n      mload\n      0x20\n      dup2\n      add\n      dup3\n      add\n      dup1\n      mload\n      dup5\n      dup3\n      mstore\n      0x20\n      dup4\n      add\n      0x20\n      dup6\n      add\n      keccak256\n      dup2\n      dup4\n      mstore\n      dup1\n      swap6\n      pop\n      pop\n      pop\n      pop\n      pop\n      pop\n      0x00\n      swap2\n      pop\n      sload\n      swap1\n      0x0100\n      exp\n      swap1\n      div\n      0xffffffffffffffffffffffffffffffffffffffff\n      and\n      dup2\n      jump\t// out\n        /* \"src/Price_Feed/OP_PriceFeed.sol\":345:675  function addDatafeed(string[] memory _tokenName, address[] memory _tokenaddress) external {... */\n    tag_16:\n        /* \"src/Price_Feed/OP_PriceFeed.sol\":467:472  owner */\n      0x00\n      dup1\n      sload\n      swap1\n      0x0100\n      exp\n      swap1\n      div\n      0xffffffffffffffffffffffffffffffffffffffff\n      and\n        /* \"src/Price_Feed/OP_PriceFeed.sol\":453:472  msg.sender == owner */\n      0xffffffffffffffffffffffffffffffffffffffff\n      and\n        /* \"src/Price_Feed/OP_PriceFeed.sol\":453:463  msg.sender */\n      caller\n        /* \"src/Price_Feed/OP_PriceFeed.sol\":453:472  msg.sender == owner */\n      0xffffffffffffffffffffffffffffffffffffffff\n      and\n      eq\n        /* \"src/Price_Feed/OP_PriceFeed.sol\":445:476  require(msg.sender == owner,\"\") */\n      tag_26\n      jumpi\n      mload(0x40)\n      0x08c379a000000000000000000000000000000000000000000000000000000000\n      dup2\n      mstore\n      0x04\n      add\n      tag_27\n      swap1\n      tag_28\n      jump\t// in\n    tag_27:\n      mload(0x40)\n      dup1\n      swap2\n      sub\n      swap1\n      revert\n    tag_26:\n        /* \"src/Price_Feed/OP_PriceFeed.sol\":518:528  _tokenName */\n      dup2\n        /* \"src/Price_Feed/OP_PriceFeed.sol\":518:535  _tokenName.length */\n      mload\n        /* \"src/Price_Feed/OP_PriceFeed.sol\":494:507  _tokenaddress */\n      dup2\n        /* \"src/Price_Feed/OP_PriceFeed.sol\":494:514  _tokenaddress.length */\n      mload\n        /* \"src/Price_Feed/OP_PriceFeed.sol\":494:535  _tokenaddress.length == _tokenName.length */\n      eq\n        /* \"src/Price_Feed/OP_PriceFeed.sol\":486:540  require(_tokenaddress.length == _tokenName.length,\" \") */\n      tag_29\n      jumpi\n      mload(0x40)\n      0x08c379a000000000000000000000000000000000000000000000000000000000\n      dup2\n      mstore\n      0x04\n      add\n      tag_30\n      swap1\n      tag_31\n      jump\t// in\n    tag_30:\n      mload(0x40)\n      dup1\n      swap2\n      sub\n      swap1\n      revert\n    tag_29:\n        /* \"src/Price_Feed/OP_PriceFeed.sol\":554:560  uint i */\n      0x00\n        /* \"src/Price_Feed/OP_PriceFeed.sol\":550:669  for(uint i =0; i < _tokenName.length; i++ ){... */\n    tag_32:\n        /* \"src/Price_Feed/OP_PriceFeed.sol\":569:579  _tokenName */\n      dup3\n        /* \"src/Price_Feed/OP_PriceFeed.sol\":569:586  _tokenName.length */\n      mload\n        /* \"src/Price_Feed/OP_PriceFeed.sol\":565:566  i */\n      dup2\n        /* \"src/Price_Feed/OP_PriceFeed.sol\":565:586  i < _tokenName.length */\n      lt\n        /* \"src/Price_Feed/OP_PriceFeed.sol\":550:669  for(uint i =0; i < _tokenName.length; i++ ){... */\n      iszero\n      tag_33\n      jumpi\n        /* \"src/Price_Feed/OP_PriceFeed.sol\":642:655  _tokenaddress */\n      dup2\n        /* \"src/Price_Feed/OP_PriceFeed.sol\":656:657  i */\n      dup2\n        /* \"src/Price_Feed/OP_PriceFeed.sol\":642:658  _tokenaddress[i] */\n      dup2\n      mload\n      dup2\n      lt\n      tag_35\n      jumpi\n      tag_36\n      tag_37\n      jump\t// in\n    tag_36:\n    tag_35:\n      0x20\n      mul\n      0x20\n      add\n      add\n      mload\n        /* \"src/Price_Feed/OP_PriceFeed.sol\":607:624  datafeedContracts */\n      0x01\n        /* \"src/Price_Feed/OP_PriceFeed.sol\":625:635  _tokenName */\n      dup5\n        /* \"src/Price_Feed/OP_PriceFeed.sol\":636:637  i */\n      dup4\n        /* \"src/Price_Feed/OP_PriceFeed.sol\":625:638  _tokenName[i] */\n      dup2\n      mload\n      dup2\n      lt\n      tag_38\n      jumpi\n      tag_39\n      tag_37\n      jump\t// in\n    tag_39:\n    tag_38:\n      0x20\n      mul\n      0x20\n      add\n      add\n      mload\n        /* \"src/Price_Feed/OP_PriceFeed.sol\":607:639  datafeedContracts[_tokenName[i]] */\n      mload(0x40)\n      tag_40\n      swap2\n      swap1\n      tag_41\n      jump\t// in\n    tag_40:\n      swap1\n      dup2\n      mstore\n      0x20\n      add\n      mload(0x40)\n      dup1\n      swap2\n      sub\n      swap1\n      keccak256\n      0x00\n        /* \"src/Price_Feed/OP_PriceFeed.sol\":607:658  datafeedContracts[_tokenName[i]] = _tokenaddress[i] */\n      0x0100\n      exp\n      dup2\n      sload\n      dup2\n      0xffffffffffffffffffffffffffffffffffffffff\n      mul\n      not\n      and\n      swap1\n      dup4\n      0xffffffffffffffffffffffffffffffffffffffff\n      and\n      mul\n      or\n      swap1\n      sstore\n      pop\n        /* \"src/Price_Feed/OP_PriceFeed.sol\":588:591  i++ */\n      dup1\n      dup1\n      tag_42\n      swap1\n      tag_43\n      jump\t// in\n    tag_42:\n      swap2\n      pop\n      pop\n        /* \"src/Price_Feed/OP_PriceFeed.sol\":550:669  for(uint i =0; i < _tokenName.length; i++ ){... */\n      jump(tag_32)\n    tag_33:\n      pop\n        /* \"src/Price_Feed/OP_PriceFeed.sol\":345:675  function addDatafeed(string[] memory _tokenName, address[] memory _tokenaddress) external {... */\n      pop\n      pop\n      jump\t// out\n        /* \"src/Price_Feed/OP_PriceFeed.sol\":681:966  function getChainlinkDataFeedLatestAnswer(string memory _tokenDatafeed) external view returns (int) {... */\n    tag_19:\n        /* \"src/Price_Feed/OP_PriceFeed.sol\":776:779  int */\n      0x00\n        /* \"src/Price_Feed/OP_PriceFeed.sol\":791:821  AggregatorV3Interface dataFeed */\n      dup1\n        /* \"src/Price_Feed/OP_PriceFeed.sol\":847:864  datafeedContracts */\n      0x01\n        /* \"src/Price_Feed/OP_PriceFeed.sol\":865:879  _tokenDatafeed */\n      dup4\n        /* \"src/Price_Feed/OP_PriceFeed.sol\":847:880  datafeedContracts[_tokenDatafeed] */\n      mload(0x40)\n      tag_45\n      swap2\n      swap1\n      tag_41\n      jump\t// in\n    tag_45:\n      swap1\n      dup2\n      mstore\n      0x20\n      add\n      mload(0x40)\n      dup1\n      swap2\n      sub\n      swap1\n      keccak256\n      0x00\n      swap1\n      sload\n      swap1\n      0x0100\n      exp\n      swap1\n      div\n      0xffffffffffffffffffffffffffffffffffffffff\n      and\n        /* \"src/Price_Feed/OP_PriceFeed.sol\":791:881  AggregatorV3Interface dataFeed = AggregatorV3Interface (datafeedContracts[_tokenDatafeed]) */\n      swap1\n      pop\n        /* \"src/Price_Feed/OP_PriceFeed.sol\":893:903  int answer */\n      0x00\n        /* \"src/Price_Feed/OP_PriceFeed.sol\":910:918  dataFeed */\n      dup2\n        /* \"src/Price_Feed/OP_PriceFeed.sol\":910:934  dataFeed.latestRoundData */\n      0xffffffffffffffffffffffffffffffffffffffff\n      and\n      0xfeaf968c\n        /* \"src/Price_Feed/OP_PriceFeed.sol\":910:936  dataFeed.latestRoundData() */\n      mload(0x40)\n      dup2\n      0xffffffff\n      and\n      0xe0\n      shl\n      dup2\n      mstore\n      0x04\n      add\n      0xa0\n      mload(0x40)\n      dup1\n      dup4\n      sub\n      dup2\n      dup7\n      gas\n      staticcall\n      iszero\n      dup1\n      iszero\n      tag_47\n      jumpi\n      returndatasize\n      0x00\n      dup1\n      returndatacopy\n      revert(0x00, returndatasize)\n    tag_47:\n      pop\n      pop\n      pop\n      pop\n      mload(0x40)\n      returndatasize\n      not(0x1f)\n      0x1f\n      dup3\n      add\n      and\n      dup3\n      add\n      dup1\n      0x40\n      mstore\n      pop\n      dup2\n      add\n      swap1\n      tag_48\n      swap2\n      swap1\n      tag_49\n      jump\t// in\n    tag_48:\n        /* \"src/Price_Feed/OP_PriceFeed.sol\":891:936  (,int answer,,,) = dataFeed.latestRoundData() */\n      pop\n      pop\n      pop\n      swap2\n      pop\n      pop\n        /* \"src/Price_Feed/OP_PriceFeed.sol\":953:959  answer */\n      dup1\n        /* \"src/Price_Feed/OP_PriceFeed.sol\":946:959  return answer */\n      swap3\n      pop\n      pop\n      pop\n        /* \"src/Price_Feed/OP_PriceFeed.sol\":681:966  function getChainlinkDataFeedLatestAnswer(string memory _tokenDatafeed) external view returns (int) {... */\n      swap2\n      swap1\n      pop\n      jump\t// out\n        /* \"src/Price_Feed/OP_PriceFeed.sol\":205:225  address public owner */\n    tag_23:\n      0x00\n      dup1\n      sload\n      swap1\n      0x0100\n      exp\n      swap1\n      div\n      0xffffffffffffffffffffffffffffffffffffffff\n      and\n      dup2\n      jump\t// out\n        /* \"#utility.yul\":7:82   */\n    tag_50:\n        /* \"#utility.yul\":40:46   */\n      0x00\n        /* \"#utility.yul\":73:75   */\n      0x40\n        /* \"#utility.yul\":67:76   */\n      mload\n        /* \"#utility.yul\":57:76   */\n      swap1\n      pop\n        /* \"#utility.yul\":7:82   */\n      swap1\n      jump\t// out\n        /* \"#utility.yul\":88:205   */\n    tag_51:\n        /* \"#utility.yul\":197:198   */\n      0x00\n        /* \"#utility.yul\":194:195   */\n      dup1\n        /* \"#utility.yul\":187:199   */\n      revert\n        /* \"#utility.yul\":211:328   */\n    tag_52:\n        /* \"#utility.yul\":320:321   */\n      0x00\n        /* \"#utility.yul\":317:318   */\n      dup1\n        /* \"#utility.yul\":310:322   */\n      revert\n        /* \"#utility.yul\":334:451   */\n    tag_53:\n        /* \"#utility.yul\":443:444   */\n      0x00\n        /* \"#utility.yul\":440:441   */\n      dup1\n        /* \"#utility.yul\":433:445   */\n      revert\n        /* \"#utility.yul\":457:574   */\n    tag_54:\n        /* \"#utility.yul\":566:567   */\n      0x00\n        /* \"#utility.yul\":563:564   */\n      dup1\n        /* \"#utility.yul\":556:568   */\n      revert\n        /* \"#utility.yul\":580:682   */\n    tag_55:\n        /* \"#utility.yul\":621:627   */\n      0x00\n        /* \"#utility.yul\":672:674   */\n      0x1f\n        /* \"#utility.yul\":668:675   */\n      not\n        /* \"#utility.yul\":663:665   */\n      0x1f\n        /* \"#utility.yul\":656:661   */\n      dup4\n        /* \"#utility.yul\":652:666   */\n      add\n        /* \"#utility.yul\":648:676   */\n      and\n        /* \"#utility.yul\":638:676   */\n      swap1\n      pop\n        /* \"#utility.yul\":580:682   */\n      swap2\n      swap1\n      pop\n      jump\t// out\n        /* \"#utility.yul\":688:868   */\n    tag_56:\n        /* \"#utility.yul\":736:813   */\n      0x4e487b7100000000000000000000000000000000000000000000000000000000\n        /* \"#utility.yul\":733:734   */\n      0x00\n        /* \"#utility.yul\":726:814   */\n      mstore\n        /* \"#utility.yul\":833:837   */\n      0x41\n        /* \"#utility.yul\":830:831   */\n      0x04\n        /* \"#utility.yul\":823:838   */\n      mstore\n        /* \"#utility.yul\":857:861   */\n      0x24\n        /* \"#utility.yul\":854:855   */\n      0x00\n        /* \"#utility.yul\":847:862   */\n      revert\n        /* \"#utility.yul\":874:1155   */\n    tag_57:\n        /* \"#utility.yul\":957:984   */\n      tag_104\n        /* \"#utility.yul\":979:983   */\n      dup3\n        /* \"#utility.yul\":957:984   */\n      tag_55\n      jump\t// in\n    tag_104:\n        /* \"#utility.yul\":949:955   */\n      dup2\n        /* \"#utility.yul\":945:985   */\n      add\n        /* \"#utility.yul\":1087:1093   */\n      dup2\n        /* \"#utility.yul\":1075:1085   */\n      dup2\n        /* \"#utility.yul\":1072:1094   */\n      lt\n        /* \"#utility.yul\":1051:1069   */\n      0xffffffffffffffff\n        /* \"#utility.yul\":1039:1049   */\n      dup3\n        /* \"#utility.yul\":1036:1070   */\n      gt\n        /* \"#utility.yul\":1033:1095   */\n      or\n        /* \"#utility.yul\":1030:1118   */\n      iszero\n      tag_105\n      jumpi\n        /* \"#utility.yul\":1098:1116   */\n      tag_106\n      tag_56\n      jump\t// in\n    tag_106:\n        /* \"#utility.yul\":1030:1118   */\n    tag_105:\n        /* \"#utility.yul\":1138:1148   */\n      dup1\n        /* \"#utility.yul\":1134:1136   */\n      0x40\n        /* \"#utility.yul\":1127:1149   */\n      mstore\n        /* \"#utility.yul\":917:1155   */\n      pop\n        /* \"#utility.yul\":874:1155   */\n      pop\n      pop\n      jump\t// out\n        /* \"#utility.yul\":1161:1290   */\n    tag_58:\n        /* \"#utility.yul\":1195:1201   */\n      0x00\n        /* \"#utility.yul\":1222:1242   */\n      tag_108\n      tag_50\n      jump\t// in\n    tag_108:\n        /* \"#utility.yul\":1212:1242   */\n      swap1\n      pop\n        /* \"#utility.yul\":1251:1284   */\n      tag_109\n        /* \"#utility.yul\":1279:1283   */\n      dup3\n        /* \"#utility.yul\":1271:1277   */\n      dup3\n        /* \"#utility.yul\":1251:1284   */\n      tag_57\n      jump\t// in\n    tag_109:\n        /* \"#utility.yul\":1161:1290   */\n      swap2\n      swap1\n      pop\n      jump\t// out\n        /* \"#utility.yul\":1296:1604   */\n    tag_59:\n        /* \"#utility.yul\":1358:1362   */\n      0x00\n        /* \"#utility.yul\":1448:1466   */\n      0xffffffffffffffff\n        /* \"#utility.yul\":1440:1446   */\n      dup3\n        /* \"#utility.yul\":1437:1467   */\n      gt\n        /* \"#utility.yul\":1434:1490   */\n      iszero\n      tag_111\n      jumpi\n        /* \"#utility.yul\":1470:1488   */\n      tag_112\n      tag_56\n      jump\t// in\n    tag_112:\n        /* \"#utility.yul\":1434:1490   */\n    tag_111:\n        /* \"#utility.yul\":1508:1537   */\n      tag_113\n        /* \"#utility.yul\":1530:1536   */\n      dup3\n        /* \"#utility.yul\":1508:1537   */\n      tag_55\n      jump\t// in\n    tag_113:\n        /* \"#utility.yul\":1500:1537   */\n      swap1\n      pop\n        /* \"#utility.yul\":1592:1596   */\n      0x20\n        /* \"#utility.yul\":1586:1590   */\n      dup2\n        /* \"#utility.yul\":1582:1597   */\n      add\n        /* \"#utility.yul\":1574:1597   */\n      swap1\n      pop\n        /* \"#utility.yul\":1296:1604   */\n      swap2\n      swap1\n      pop\n      jump\t// out\n        /* \"#utility.yul\":1610:1756   */\n    tag_60:\n        /* \"#utility.yul\":1707:1713   */\n      dup3\n        /* \"#utility.yul\":1702:1705   */\n      dup2\n        /* \"#utility.yul\":1697:1700   */\n      dup4\n        /* \"#utility.yul\":1684:1714   */\n      calldatacopy\n        /* \"#utility.yul\":1748:1749   */\n      0x00\n        /* \"#utility.yul\":1739:1745   */\n      dup4\n        /* \"#utility.yul\":1734:1737   */\n      dup4\n        /* \"#utility.yul\":1730:1746   */\n      add\n        /* \"#utility.yul\":1723:1750   */\n      mstore\n        /* \"#utility.yul\":1610:1756   */\n      pop\n      pop\n      pop\n      jump\t// out\n        /* \"#utility.yul\":1762:2187   */\n    tag_61:\n        /* \"#utility.yul\":1840:1845   */\n      0x00\n        /* \"#utility.yul\":1865:1931   */\n      tag_116\n        /* \"#utility.yul\":1881:1930   */\n      tag_117\n        /* \"#utility.yul\":1923:1929   */\n      dup5\n        /* \"#utility.yul\":1881:1930   */\n      tag_59\n      jump\t// in\n    tag_117:\n        /* \"#utility.yul\":1865:1931   */\n      tag_58\n      jump\t// in\n    tag_116:\n        /* \"#utility.yul\":1856:1931   */\n      swap1\n      pop\n        /* \"#utility.yul\":1954:1960   */\n      dup3\n        /* \"#utility.yul\":1947:1952   */\n      dup2\n        /* \"#utility.yul\":1940:1961   */\n      mstore\n        /* \"#utility.yul\":1992:1996   */\n      0x20\n        /* \"#utility.yul\":1985:1990   */\n      dup2\n        /* \"#utility.yul\":1981:1997   */\n      add\n        /* \"#utility.yul\":2030:2033   */\n      dup5\n        /* \"#utility.yul\":2021:2027   */\n      dup5\n        /* \"#utility.yul\":2016:2019   */\n      dup5\n        /* \"#utility.yul\":2012:2028   */\n      add\n        /* \"#utility.yul\":2009:2034   */\n      gt\n        /* \"#utility.yul\":2006:2118   */\n      iszero\n      tag_118\n      jumpi\n        /* \"#utility.yul\":2037:2116   */\n      tag_119\n      tag_54\n      jump\t// in\n    tag_119:\n        /* \"#utility.yul\":2006:2118   */\n    tag_118:\n        /* \"#utility.yul\":2127:2181   */\n      tag_120\n        /* \"#utility.yul\":2174:2180   */\n      dup5\n        /* \"#utility.yul\":2169:2172   */\n      dup3\n        /* \"#utility.yul\":2164:2167   */\n      dup6\n        /* \"#utility.yul\":2127:2181   */\n      tag_60\n      jump\t// in\n    tag_120:\n        /* \"#utility.yul\":1846:2187   */\n      pop\n        /* \"#utility.yul\":1762:2187   */\n      swap4\n      swap3\n      pop\n      pop\n      pop\n      jump\t// out\n        /* \"#utility.yul\":2207:2547   */\n    tag_62:\n        /* \"#utility.yul\":2263:2268   */\n      0x00\n        /* \"#utility.yul\":2312:2315   */\n      dup3\n        /* \"#utility.yul\":2305:2309   */\n      0x1f\n        /* \"#utility.yul\":2297:2303   */\n      dup4\n        /* \"#utility.yul\":2293:2310   */\n      add\n        /* \"#utility.yul\":2289:2316   */\n      slt\n        /* \"#utility.yul\":2279:2401   */\n      tag_122\n      jumpi\n        /* \"#utility.yul\":2320:2399   */\n      tag_123\n      tag_53\n      jump\t// in\n    tag_123:\n        /* \"#utility.yul\":2279:2401   */\n    tag_122:\n        /* \"#utility.yul\":2437:2443   */\n      dup2\n        /* \"#utility.yul\":2424:2444   */\n      calldataload\n        /* \"#utility.yul\":2462:2541   */\n      tag_124\n        /* \"#utility.yul\":2537:2540   */\n      dup5\n        /* \"#utility.yul\":2529:2535   */\n      dup3\n        /* \"#utility.yul\":2522:2526   */\n      0x20\n        /* \"#utility.yul\":2514:2520   */\n      dup7\n        /* \"#utility.yul\":2510:2527   */\n      add\n        /* \"#utility.yul\":2462:2541   */\n      tag_61\n      jump\t// in\n    tag_124:\n        /* \"#utility.yul\":2453:2541   */\n      swap2\n      pop\n        /* \"#utility.yul\":2269:2547   */\n      pop\n        /* \"#utility.yul\":2207:2547   */\n      swap3\n      swap2\n      pop\n      pop\n      jump\t// out\n        /* \"#utility.yul\":2553:3062   */\n    tag_9:\n        /* \"#utility.yul\":2622:2628   */\n      0x00\n        /* \"#utility.yul\":2671:2673   */\n      0x20\n        /* \"#utility.yul\":2659:2668   */\n      dup3\n        /* \"#utility.yul\":2650:2657   */\n      dup5\n        /* \"#utility.yul\":2646:2669   */\n      sub\n        /* \"#utility.yul\":2642:2674   */\n      slt\n        /* \"#utility.yul\":2639:2758   */\n      iszero\n      tag_126\n      jumpi\n        /* \"#utility.yul\":2677:2756   */\n      tag_127\n      tag_51\n      jump\t// in\n    tag_127:\n        /* \"#utility.yul\":2639:2758   */\n    tag_126:\n        /* \"#utility.yul\":2825:2826   */\n      0x00\n        /* \"#utility.yul\":2814:2823   */\n      dup3\n        /* \"#utility.yul\":2810:2827   */\n      add\n        /* \"#utility.yul\":2797:2828   */\n      calldataload\n        /* \"#utility.yul\":2855:2873   */\n      0xffffffffffffffff\n        /* \"#utility.yul\":2847:2853   */\n      dup2\n        /* \"#utility.yul\":2844:2874   */\n      gt\n        /* \"#utility.yul\":2841:2958   */\n      iszero\n      tag_128\n      jumpi\n        /* \"#utility.yul\":2877:2956   */\n      tag_129\n      tag_52\n      jump\t// in\n    tag_129:\n        /* \"#utility.yul\":2841:2958   */\n    tag_128:\n        /* \"#utility.yul\":2982:3045   */\n      tag_130\n        /* \"#utility.yul\":3037:3044   */\n      dup5\n        /* \"#utility.yul\":3028:3034   */\n      dup3\n        /* \"#utility.yul\":3017:3026   */\n      dup6\n        /* \"#utility.yul\":3013:3035   */\n      add\n        /* \"#utility.yul\":2982:3045   */\n      tag_62\n      jump\t// in\n    tag_130:\n        /* \"#utility.yul\":2972:3045   */\n      swap2\n      pop\n        /* \"#utility.yul\":2768:3055   */\n      pop\n        /* \"#utility.yul\":2553:3062   */\n      swap3\n      swap2\n      pop\n      pop\n      jump\t// out\n        /* \"#utility.yul\":3068:3194   */\n    tag_63:\n        /* \"#utility.yul\":3105:3112   */\n      0x00\n        /* \"#utility.yul\":3145:3187   */\n      0xffffffffffffffffffffffffffffffffffffffff\n        /* \"#utility.yul\":3138:3143   */\n      dup3\n        /* \"#utility.yul\":3134:3188   */\n      and\n        /* \"#utility.yul\":3123:3188   */\n      swap1\n      pop\n        /* \"#utility.yul\":3068:3194   */\n      swap2\n      swap1\n      pop\n      jump\t// out\n        /* \"#utility.yul\":3200:3296   */\n    tag_64:\n        /* \"#utility.yul\":3237:3244   */\n      0x00\n        /* \"#utility.yul\":3266:3290   */\n      tag_133\n        /* \"#utility.yul\":3284:3289   */\n      dup3\n        /* \"#utility.yul\":3266:3290   */\n      tag_63\n      jump\t// in\n    tag_133:\n        /* \"#utility.yul\":3255:3290   */\n      swap1\n      pop\n        /* \"#utility.yul\":3200:3296   */\n      swap2\n      swap1\n      pop\n      jump\t// out\n        /* \"#utility.yul\":3302:3420   */\n    tag_65:\n        /* \"#utility.yul\":3389:3413   */\n      tag_135\n        /* \"#utility.yul\":3407:3412   */\n      dup2\n        /* \"#utility.yul\":3389:3413   */\n      tag_64\n      jump\t// in\n    tag_135:\n        /* \"#utility.yul\":3384:3387   */\n      dup3\n        /* \"#utility.yul\":3377:3414   */\n      mstore\n        /* \"#utility.yul\":3302:3420   */\n      pop\n      pop\n      jump\t// out\n        /* \"#utility.yul\":3426:3648   */\n    tag_12:\n        /* \"#utility.yul\":3519:3523   */\n      0x00\n        /* \"#utility.yul\":3557:3559   */\n      0x20\n        /* \"#utility.yul\":3546:3555   */\n      dup3\n        /* \"#utility.yul\":3542:3560   */\n      add\n        /* \"#utility.yul\":3534:3560   */\n      swap1\n      pop\n        /* \"#utility.yul\":3570:3641   */\n      tag_137\n        /* \"#utility.yul\":3638:3639   */\n      0x00\n        /* \"#utility.yul\":3627:3636   */\n      dup4\n        /* \"#utility.yul\":3623:3640   */\n      add\n        /* \"#utility.yul\":3614:3620   */\n      dup5\n        /* \"#utility.yul\":3570:3641   */\n      tag_65\n      jump\t// in\n    tag_137:\n        /* \"#utility.yul\":3426:3648   */\n      swap3\n      swap2\n      pop\n      pop\n      jump\t// out\n        /* \"#utility.yul\":3654:3975   */\n    tag_66:\n        /* \"#utility.yul\":3741:3745   */\n      0x00\n        /* \"#utility.yul\":3831:3849   */\n      0xffffffffffffffff\n        /* \"#utility.yul\":3823:3829   */\n      dup3\n        /* \"#utility.yul\":3820:3850   */\n      gt\n        /* \"#utility.yul\":3817:3873   */\n      iszero\n      tag_139\n      jumpi\n        /* \"#utility.yul\":3853:3871   */\n      tag_140\n      tag_56\n      jump\t// in\n    tag_140:\n        /* \"#utility.yul\":3817:3873   */\n    tag_139:\n        /* \"#utility.yul\":3903:3907   */\n      0x20\n        /* \"#utility.yul\":3895:3901   */\n      dup3\n        /* \"#utility.yul\":3891:3908   */\n      mul\n        /* \"#utility.yul\":3883:3908   */\n      swap1\n      pop\n        /* \"#utility.yul\":3963:3967   */\n      0x20\n        /* \"#utility.yul\":3957:3961   */\n      dup2\n        /* \"#utility.yul\":3953:3968   */\n      add\n        /* \"#utility.yul\":3945:3968   */\n      swap1\n      pop\n        /* \"#utility.yul\":3654:3975   */\n      swap2\n      swap1\n      pop\n      jump\t// out\n        /* \"#utility.yul\":3981:4098   */\n    tag_67:\n        /* \"#utility.yul\":4090:4091   */\n      0x00\n        /* \"#utility.yul\":4087:4088   */\n      dup1\n        /* \"#utility.yul\":4080:4092   */\n      revert\n        /* \"#utility.yul\":4120:5065   */\n    tag_68:\n        /* \"#utility.yul\":4226:4231   */\n      0x00\n        /* \"#utility.yul\":4251:4342   */\n      tag_143\n        /* \"#utility.yul\":4267:4341   */\n      tag_144\n        /* \"#utility.yul\":4334:4340   */\n      dup5\n        /* \"#utility.yul\":4267:4341   */\n      tag_66\n      jump\t// in\n    tag_144:\n        /* \"#utility.yul\":4251:4342   */\n      tag_58\n      jump\t// in\n    tag_143:\n        /* \"#utility.yul\":4242:4342   */\n      swap1\n      pop\n        /* \"#utility.yul\":4362:4367   */\n      dup1\n        /* \"#utility.yul\":4391:4397   */\n      dup4\n        /* \"#utility.yul\":4384:4389   */\n      dup3\n        /* \"#utility.yul\":4377:4398   */\n      mstore\n        /* \"#utility.yul\":4425:4429   */\n      0x20\n        /* \"#utility.yul\":4418:4423   */\n      dup3\n        /* \"#utility.yul\":4414:4430   */\n      add\n        /* \"#utility.yul\":4407:4430   */\n      swap1\n      pop\n        /* \"#utility.yul\":4478:4482   */\n      0x20\n        /* \"#utility.yul\":4470:4476   */\n      dup5\n        /* \"#utility.yul\":4466:4483   */\n      mul\n        /* \"#utility.yul\":4458:4464   */\n      dup4\n        /* \"#utility.yul\":4454:4484   */\n      add\n        /* \"#utility.yul\":4507:4510   */\n      dup6\n        /* \"#utility.yul\":4499:4505   */\n      dup2\n        /* \"#utility.yul\":4496:4511   */\n      gt\n        /* \"#utility.yul\":4493:4615   */\n      iszero\n      tag_145\n      jumpi\n        /* \"#utility.yul\":4526:4605   */\n      tag_146\n      tag_67\n      jump\t// in\n    tag_146:\n        /* \"#utility.yul\":4493:4615   */\n    tag_145:\n        /* \"#utility.yul\":4641:4647   */\n      dup4\n        /* \"#utility.yul\":4624:5059   */\n    tag_147:\n        /* \"#utility.yul\":4658:4664   */\n      dup2\n        /* \"#utility.yul\":4653:4656   */\n      dup2\n        /* \"#utility.yul\":4650:4665   */\n      lt\n        /* \"#utility.yul\":4624:5059   */\n      iszero\n      tag_149\n      jumpi\n        /* \"#utility.yul\":4747:4750   */\n      dup1\n        /* \"#utility.yul\":4734:4751   */\n      calldataload\n        /* \"#utility.yul\":4783:4801   */\n      0xffffffffffffffff\n        /* \"#utility.yul\":4770:4781   */\n      dup2\n        /* \"#utility.yul\":4767:4802   */\n      gt\n        /* \"#utility.yul\":4764:4886   */\n      iszero\n      tag_150\n      jumpi\n        /* \"#utility.yul\":4805:4884   */\n      tag_151\n      tag_53\n      jump\t// in\n    tag_151:\n        /* \"#utility.yul\":4764:4886   */\n    tag_150:\n        /* \"#utility.yul\":4929:4940   */\n      dup1\n        /* \"#utility.yul\":4921:4927   */\n      dup7\n        /* \"#utility.yul\":4917:4941   */\n      add\n        /* \"#utility.yul\":4967:5014   */\n      tag_152\n        /* \"#utility.yul\":5010:5013   */\n      dup10\n        /* \"#utility.yul\":4998:5008   */\n      dup3\n        /* \"#utility.yul\":4967:5014   */\n      tag_62\n      jump\t// in\n    tag_152:\n        /* \"#utility.yul\":4962:4965   */\n      dup6\n        /* \"#utility.yul\":4955:5015   */\n      mstore\n        /* \"#utility.yul\":5044:5048   */\n      0x20\n        /* \"#utility.yul\":5039:5042   */\n      dup6\n        /* \"#utility.yul\":5035:5049   */\n      add\n        /* \"#utility.yul\":5028:5049   */\n      swap5\n      pop\n        /* \"#utility.yul\":4700:5059   */\n      pop\n      pop\n        /* \"#utility.yul\":4684:4688   */\n      0x20\n        /* \"#utility.yul\":4679:4682   */\n      dup2\n        /* \"#utility.yul\":4675:4689   */\n      add\n        /* \"#utility.yul\":4668:4689   */\n      swap1\n      pop\n        /* \"#utility.yul\":4624:5059   */\n      jump(tag_147)\n    tag_149:\n        /* \"#utility.yul\":4628:4649   */\n      pop\n        /* \"#utility.yul\":4232:5065   */\n      pop\n      pop\n        /* \"#utility.yul\":4120:5065   */\n      swap4\n      swap3\n      pop\n      pop\n      pop\n      jump\t// out\n        /* \"#utility.yul\":5087:5477   */\n    tag_69:\n        /* \"#utility.yul\":5168:5173   */\n      0x00\n        /* \"#utility.yul\":5217:5220   */\n      dup3\n        /* \"#utility.yul\":5210:5214   */\n      0x1f\n        /* \"#utility.yul\":5202:5208   */\n      dup4\n        /* \"#utility.yul\":5198:5215   */\n      add\n        /* \"#utility.yul\":5194:5221   */\n      slt\n        /* \"#utility.yul\":5184:5306   */\n      tag_154\n      jumpi\n        /* \"#utility.yul\":5225:5304   */\n      tag_155\n      tag_53\n      jump\t// in\n    tag_155:\n        /* \"#utility.yul\":5184:5306   */\n    tag_154:\n        /* \"#utility.yul\":5342:5348   */\n      dup2\n        /* \"#utility.yul\":5329:5349   */\n      calldataload\n        /* \"#utility.yul\":5367:5471   */\n      tag_156\n        /* \"#utility.yul\":5467:5470   */\n      dup5\n        /* \"#utility.yul\":5459:5465   */\n      dup3\n        /* \"#utility.yul\":5452:5456   */\n      0x20\n        /* \"#utility.yul\":5444:5450   */\n      dup7\n        /* \"#utility.yul\":5440:5457   */\n      add\n        /* \"#utility.yul\":5367:5471   */\n      tag_68\n      jump\t// in\n    tag_156:\n        /* \"#utility.yul\":5358:5471   */\n      swap2\n      pop\n        /* \"#utility.yul\":5174:5477   */\n      pop\n        /* \"#utility.yul\":5087:5477   */\n      swap3\n      swap2\n      pop\n      pop\n      jump\t// out\n        /* \"#utility.yul\":5483:5794   */\n    tag_70:\n        /* \"#utility.yul\":5560:5564   */\n      0x00\n        /* \"#utility.yul\":5650:5668   */\n      0xffffffffffffffff\n        /* \"#utility.yul\":5642:5648   */\n      dup3\n        /* \"#utility.yul\":5639:5669   */\n      gt\n        /* \"#utility.yul\":5636:5692   */\n      iszero\n      tag_158\n      jumpi\n        /* \"#utility.yul\":5672:5690   */\n      tag_159\n      tag_56\n      jump\t// in\n    tag_159:\n        /* \"#utility.yul\":5636:5692   */\n    tag_158:\n        /* \"#utility.yul\":5722:5726   */\n      0x20\n        /* \"#utility.yul\":5714:5720   */\n      dup3\n        /* \"#utility.yul\":5710:5727   */\n      mul\n        /* \"#utility.yul\":5702:5727   */\n      swap1\n      pop\n        /* \"#utility.yul\":5782:5786   */\n      0x20\n        /* \"#utility.yul\":5776:5780   */\n      dup2\n        /* \"#utility.yul\":5772:5787   */\n      add\n        /* \"#utility.yul\":5764:5787   */\n      swap1\n      pop\n        /* \"#utility.yul\":5483:5794   */\n      swap2\n      swap1\n      pop\n      jump\t// out\n        /* \"#utility.yul\":5800:5922   */\n    tag_71:\n        /* \"#utility.yul\":5873:5897   */\n      tag_161\n        /* \"#utility.yul\":5891:5896   */\n      dup2\n        /* \"#utility.yul\":5873:5897   */\n      tag_64\n      jump\t// in\n    tag_161:\n        /* \"#utility.yul\":5866:5871   */\n      dup2\n        /* \"#utility.yul\":5863:5898   */\n      eq\n        /* \"#utility.yul\":5853:5916   */\n      tag_162\n      jumpi\n        /* \"#utility.yul\":5912:5913   */\n      0x00\n        /* \"#utility.yul\":5909:5910   */\n      dup1\n        /* \"#utility.yul\":5902:5914   */\n      revert\n        /* \"#utility.yul\":5853:5916   */\n    tag_162:\n        /* \"#utility.yul\":5800:5922   */\n      pop\n      jump\t// out\n        /* \"#utility.yul\":5928:6067   */\n    tag_72:\n        /* \"#utility.yul\":5974:5979   */\n      0x00\n        /* \"#utility.yul\":6012:6018   */\n      dup2\n        /* \"#utility.yul\":5999:6019   */\n      calldataload\n        /* \"#utility.yul\":5990:6019   */\n      swap1\n      pop\n        /* \"#utility.yul\":6028:6061   */\n      tag_164\n        /* \"#utility.yul\":6055:6060   */\n      dup2\n        /* \"#utility.yul\":6028:6061   */\n      tag_71\n      jump\t// in\n    tag_164:\n        /* \"#utility.yul\":5928:6067   */\n      swap3\n      swap2\n      pop\n      pop\n      jump\t// out\n        /* \"#utility.yul\":6090:6800   */\n    tag_73:\n        /* \"#utility.yul\":6186:6191   */\n      0x00\n        /* \"#utility.yul\":6211:6292   */\n      tag_166\n        /* \"#utility.yul\":6227:6291   */\n      tag_167\n        /* \"#utility.yul\":6284:6290   */\n      dup5\n        /* \"#utility.yul\":6227:6291   */\n      tag_70\n      jump\t// in\n    tag_167:\n        /* \"#utility.yul\":6211:6292   */\n      tag_58\n      jump\t// in\n    tag_166:\n        /* \"#utility.yul\":6202:6292   */\n      swap1\n      pop\n        /* \"#utility.yul\":6312:6317   */\n      dup1\n        /* \"#utility.yul\":6341:6347   */\n      dup4\n        /* \"#utility.yul\":6334:6339   */\n      dup3\n        /* \"#utility.yul\":6327:6348   */\n      mstore\n        /* \"#utility.yul\":6375:6379   */\n      0x20\n        /* \"#utility.yul\":6368:6373   */\n      dup3\n        /* \"#utility.yul\":6364:6380   */\n      add\n        /* \"#utility.yul\":6357:6380   */\n      swap1\n      pop\n        /* \"#utility.yul\":6428:6432   */\n      0x20\n        /* \"#utility.yul\":6420:6426   */\n      dup5\n        /* \"#utility.yul\":6416:6433   */\n      mul\n        /* \"#utility.yul\":6408:6414   */\n      dup4\n        /* \"#utility.yul\":6404:6434   */\n      add\n        /* \"#utility.yul\":6457:6460   */\n      dup6\n        /* \"#utility.yul\":6449:6455   */\n      dup2\n        /* \"#utility.yul\":6446:6461   */\n      gt\n        /* \"#utility.yul\":6443:6565   */\n      iszero\n      tag_168\n      jumpi\n        /* \"#utility.yul\":6476:6555   */\n      tag_169\n      tag_67\n      jump\t// in\n    tag_169:\n        /* \"#utility.yul\":6443:6565   */\n    tag_168:\n        /* \"#utility.yul\":6591:6597   */\n      dup4\n        /* \"#utility.yul\":6574:6794   */\n    tag_170:\n        /* \"#utility.yul\":6608:6614   */\n      dup2\n        /* \"#utility.yul\":6603:6606   */\n      dup2\n        /* \"#utility.yul\":6600:6615   */\n      lt\n        /* \"#utility.yul\":6574:6794   */\n      iszero\n      tag_172\n      jumpi\n        /* \"#utility.yul\":6683:6686   */\n      dup1\n        /* \"#utility.yul\":6712:6749   */\n      tag_173\n        /* \"#utility.yul\":6745:6748   */\n      dup9\n        /* \"#utility.yul\":6733:6743   */\n      dup3\n        /* \"#utility.yul\":6712:6749   */\n      tag_72\n      jump\t// in\n    tag_173:\n        /* \"#utility.yul\":6707:6710   */\n      dup5\n        /* \"#utility.yul\":6700:6750   */\n      mstore\n        /* \"#utility.yul\":6779:6783   */\n      0x20\n        /* \"#utility.yul\":6774:6777   */\n      dup5\n        /* \"#utility.yul\":6770:6784   */\n      add\n        /* \"#utility.yul\":6763:6784   */\n      swap4\n      pop\n        /* \"#utility.yul\":6650:6794   */\n      pop\n        /* \"#utility.yul\":6634:6638   */\n      0x20\n        /* \"#utility.yul\":6629:6632   */\n      dup2\n        /* \"#utility.yul\":6625:6639   */\n      add\n        /* \"#utility.yul\":6618:6639   */\n      swap1\n      pop\n        /* \"#utility.yul\":6574:6794   */\n      jump(tag_170)\n    tag_172:\n        /* \"#utility.yul\":6578:6599   */\n      pop\n        /* \"#utility.yul\":6192:6800   */\n      pop\n      pop\n        /* \"#utility.yul\":6090:6800   */\n      swap4\n      swap3\n      pop\n      pop\n      pop\n      jump\t// out\n        /* \"#utility.yul\":6823:7193   */\n    tag_74:\n        /* \"#utility.yul\":6894:6899   */\n      0x00\n        /* \"#utility.yul\":6943:6946   */\n      dup3\n        /* \"#utility.yul\":6936:6940   */\n      0x1f\n        /* \"#utility.yul\":6928:6934   */\n      dup4\n        /* \"#utility.yul\":6924:6941   */\n      add\n        /* \"#utility.yul\":6920:6947   */\n      slt\n        /* \"#utility.yul\":6910:7032   */\n      tag_175\n      jumpi\n        /* \"#utility.yul\":6951:7030   */\n      tag_176\n      tag_53\n      jump\t// in\n    tag_176:\n        /* \"#utility.yul\":6910:7032   */\n    tag_175:\n        /* \"#utility.yul\":7068:7074   */\n      dup2\n        /* \"#utility.yul\":7055:7075   */\n      calldataload\n        /* \"#utility.yul\":7093:7187   */\n      tag_177\n        /* \"#utility.yul\":7183:7186   */\n      dup5\n        /* \"#utility.yul\":7175:7181   */\n      dup3\n        /* \"#utility.yul\":7168:7172   */\n      0x20\n        /* \"#utility.yul\":7160:7166   */\n      dup7\n        /* \"#utility.yul\":7156:7173   */\n      add\n        /* \"#utility.yul\":7093:7187   */\n      tag_73\n      jump\t// in\n    tag_177:\n        /* \"#utility.yul\":7084:7187   */\n      swap2\n      pop\n        /* \"#utility.yul\":6900:7193   */\n      pop\n        /* \"#utility.yul\":6823:7193   */\n      swap3\n      swap2\n      pop\n      pop\n      jump\t// out\n        /* \"#utility.yul\":7199:8113   */\n    tag_15:\n        /* \"#utility.yul\":7327:7333   */\n      0x00\n        /* \"#utility.yul\":7335:7341   */\n      dup1\n        /* \"#utility.yul\":7384:7386   */\n      0x40\n        /* \"#utility.yul\":7372:7381   */\n      dup4\n        /* \"#utility.yul\":7363:7370   */\n      dup6\n        /* \"#utility.yul\":7359:7382   */\n      sub\n        /* \"#utility.yul\":7355:7387   */\n      slt\n        /* \"#utility.yul\":7352:7471   */\n      iszero\n      tag_179\n      jumpi\n        /* \"#utility.yul\":7390:7469   */\n      tag_180\n      tag_51\n      jump\t// in\n    tag_180:\n        /* \"#utility.yul\":7352:7471   */\n    tag_179:\n        /* \"#utility.yul\":7538:7539   */\n      0x00\n        /* \"#utility.yul\":7527:7536   */\n      dup4\n        /* \"#utility.yul\":7523:7540   */\n      add\n        /* \"#utility.yul\":7510:7541   */\n      calldataload\n        /* \"#utility.yul\":7568:7586   */\n      0xffffffffffffffff\n        /* \"#utility.yul\":7560:7566   */\n      dup2\n        /* \"#utility.yul\":7557:7587   */\n      gt\n        /* \"#utility.yul\":7554:7671   */\n      iszero\n      tag_181\n      jumpi\n        /* \"#utility.yul\":7590:7669   */\n      tag_182\n      tag_52\n      jump\t// in\n    tag_182:\n        /* \"#utility.yul\":7554:7671   */\n    tag_181:\n        /* \"#utility.yul\":7695:7783   */\n      tag_183\n        /* \"#utility.yul\":7775:7782   */\n      dup6\n        /* \"#utility.yul\":7766:7772   */\n      dup3\n        /* \"#utility.yul\":7755:7764   */\n      dup7\n        /* \"#utility.yul\":7751:7773   */\n      add\n        /* \"#utility.yul\":7695:7783   */\n      tag_69\n      jump\t// in\n    tag_183:\n        /* \"#utility.yul\":7685:7783   */\n      swap3\n      pop\n        /* \"#utility.yul\":7481:7793   */\n      pop\n        /* \"#utility.yul\":7860:7862   */\n      0x20\n        /* \"#utility.yul\":7849:7858   */\n      dup4\n        /* \"#utility.yul\":7845:7863   */\n      add\n        /* \"#utility.yul\":7832:7864   */\n      calldataload\n        /* \"#utility.yul\":7891:7909   */\n      0xffffffffffffffff\n        /* \"#utility.yul\":7883:7889   */\n      dup2\n        /* \"#utility.yul\":7880:7910   */\n      gt\n        /* \"#utility.yul\":7877:7994   */\n      iszero\n      tag_184\n      jumpi\n        /* \"#utility.yul\":7913:7992   */\n      tag_185\n      tag_52\n      jump\t// in\n    tag_185:\n        /* \"#utility.yul\":7877:7994   */\n    tag_184:\n        /* \"#utility.yul\":8018:8096   */\n      tag_186\n        /* \"#utility.yul\":8088:8095   */\n      dup6\n        /* \"#utility.yul\":8079:8085   */\n      dup3\n        /* \"#utility.yul\":8068:8077   */\n      dup7\n        /* \"#utility.yul\":8064:8086   */\n      add\n        /* \"#utility.yul\":8018:8096   */\n      tag_74\n      jump\t// in\n    tag_186:\n        /* \"#utility.yul\":8008:8096   */\n      swap2\n      pop\n        /* \"#utility.yul\":7803:8106   */\n      pop\n        /* \"#utility.yul\":7199:8113   */\n      swap3\n      pop\n      swap3\n      swap1\n      pop\n      jump\t// out\n        /* \"#utility.yul\":8119:8195   */\n    tag_75:\n        /* \"#utility.yul\":8155:8162   */\n      0x00\n        /* \"#utility.yul\":8184:8189   */\n      dup2\n        /* \"#utility.yul\":8173:8189   */\n      swap1\n      pop\n        /* \"#utility.yul\":8119:8195   */\n      swap2\n      swap1\n      pop\n      jump\t// out\n        /* \"#utility.yul\":8201:8316   */\n    tag_76:\n        /* \"#utility.yul\":8286:8309   */\n      tag_189\n        /* \"#utility.yul\":8303:8308   */\n      dup2\n        /* \"#utility.yul\":8286:8309   */\n      tag_75\n      jump\t// in\n    tag_189:\n        /* \"#utility.yul\":8281:8284   */\n      dup3\n        /* \"#utility.yul\":8274:8310   */\n      mstore\n        /* \"#utility.yul\":8201:8316   */\n      pop\n      pop\n      jump\t// out\n        /* \"#utility.yul\":8322:8540   */\n    tag_21:\n        /* \"#utility.yul\":8413:8417   */\n      0x00\n        /* \"#utility.yul\":8451:8453   */\n      0x20\n        /* \"#utility.yul\":8440:8449   */\n      dup3\n        /* \"#utility.yul\":8436:8454   */\n      add\n        /* \"#utility.yul\":8428:8454   */\n      swap1\n      pop\n        /* \"#utility.yul\":8464:8533   */\n      tag_191\n        /* \"#utility.yul\":8530:8531   */\n      0x00\n        /* \"#utility.yul\":8519:8528   */\n      dup4\n        /* \"#utility.yul\":8515:8532   */\n      add\n        /* \"#utility.yul\":8506:8512   */\n      dup5\n        /* \"#utility.yul\":8464:8533   */\n      tag_76\n      jump\t// in\n    tag_191:\n        /* \"#utility.yul\":8322:8540   */\n      swap3\n      swap2\n      pop\n      pop\n      jump\t// out\n        /* \"#utility.yul\":8546:8715   */\n    tag_77:\n        /* \"#utility.yul\":8630:8641   */\n      0x00\n        /* \"#utility.yul\":8664:8670   */\n      dup3\n        /* \"#utility.yul\":8659:8662   */\n      dup3\n        /* \"#utility.yul\":8652:8671   */\n      mstore\n        /* \"#utility.yul\":8704:8708   */\n      0x20\n        /* \"#utility.yul\":8699:8702   */\n      dup3\n        /* \"#utility.yul\":8695:8709   */\n      add\n        /* \"#utility.yul\":8680:8709   */\n      swap1\n      pop\n        /* \"#utility.yul\":8546:8715   */\n      swap3\n      swap2\n      pop\n      pop\n      jump\t// out\n        /* \"#utility.yul\":8721:8835   */\n    tag_78:\n      pop\n      jump\t// out\n        /* \"#utility.yul\":8841:9205   */\n    tag_79:\n        /* \"#utility.yul\":8983:8986   */\n      0x00\n        /* \"#utility.yul\":9004:9070   */\n      tag_195\n        /* \"#utility.yul\":9068:9069   */\n      0x00\n        /* \"#utility.yul\":9063:9066   */\n      dup4\n        /* \"#utility.yul\":9004:9070   */\n      tag_77\n      jump\t// in\n    tag_195:\n        /* \"#utility.yul\":8997:9070   */\n      swap2\n      pop\n        /* \"#utility.yul\":9079:9172   */\n      tag_196\n        /* \"#utility.yul\":9168:9171   */\n      dup3\n        /* \"#utility.yul\":9079:9172   */\n      tag_78\n      jump\t// in\n    tag_196:\n        /* \"#utility.yul\":9197:9198   */\n      0x00\n        /* \"#utility.yul\":9192:9195   */\n      dup3\n        /* \"#utility.yul\":9188:9199   */\n      add\n        /* \"#utility.yul\":9181:9199   */\n      swap1\n      pop\n        /* \"#utility.yul\":8841:9205   */\n      swap2\n      swap1\n      pop\n      jump\t// out\n        /* \"#utility.yul\":9211:9630   */\n    tag_28:\n        /* \"#utility.yul\":9377:9381   */\n      0x00\n        /* \"#utility.yul\":9415:9417   */\n      0x20\n        /* \"#utility.yul\":9404:9413   */\n      dup3\n        /* \"#utility.yul\":9400:9418   */\n      add\n        /* \"#utility.yul\":9392:9418   */\n      swap1\n      pop\n        /* \"#utility.yul\":9464:9473   */\n      dup2\n        /* \"#utility.yul\":9458:9462   */\n      dup2\n        /* \"#utility.yul\":9454:9474   */\n      sub\n        /* \"#utility.yul\":9450:9451   */\n      0x00\n        /* \"#utility.yul\":9439:9448   */\n      dup4\n        /* \"#utility.yul\":9435:9452   */\n      add\n        /* \"#utility.yul\":9428:9475   */\n      mstore\n        /* \"#utility.yul\":9492:9623   */\n      tag_198\n        /* \"#utility.yul\":9618:9622   */\n      dup2\n        /* \"#utility.yul\":9492:9623   */\n      tag_79\n      jump\t// in\n    tag_198:\n        /* \"#utility.yul\":9484:9623   */\n      swap1\n      pop\n        /* \"#utility.yul\":9211:9630   */\n      swap2\n      swap1\n      pop\n      jump\t// out\n        /* \"#utility.yul\":9636:9787   */\n    tag_80:\n        /* \"#utility.yul\":9776:9779   */\n      0x2000000000000000000000000000000000000000000000000000000000000000\n        /* \"#utility.yul\":9772:9773   */\n      0x00\n        /* \"#utility.yul\":9764:9770   */\n      dup3\n        /* \"#utility.yul\":9760:9774   */\n      add\n        /* \"#utility.yul\":9753:9780   */\n      mstore\n        /* \"#utility.yul\":9636:9787   */\n      pop\n      jump\t// out\n        /* \"#utility.yul\":9793:10158   */\n    tag_81:\n        /* \"#utility.yul\":9935:9938   */\n      0x00\n        /* \"#utility.yul\":9956:10022   */\n      tag_201\n        /* \"#utility.yul\":10020:10021   */\n      0x01\n        /* \"#utility.yul\":10015:10018   */\n      dup4\n        /* \"#utility.yul\":9956:10022   */\n      tag_77\n      jump\t// in\n    tag_201:\n        /* \"#utility.yul\":9949:10022   */\n      swap2\n      pop\n        /* \"#utility.yul\":10031:10124   */\n      tag_202\n        /* \"#utility.yul\":10120:10123   */\n      dup3\n        /* \"#utility.yul\":10031:10124   */\n      tag_80\n      jump\t// in\n    tag_202:\n        /* \"#utility.yul\":10149:10151   */\n      0x20\n        /* \"#utility.yul\":10144:10147   */\n      dup3\n        /* \"#utility.yul\":10140:10152   */\n      add\n        /* \"#utility.yul\":10133:10152   */\n      swap1\n      pop\n        /* \"#utility.yul\":9793:10158   */\n      swap2\n      swap1\n      pop\n      jump\t// out\n        /* \"#utility.yul\":10164:10583   */\n    tag_31:\n        /* \"#utility.yul\":10330:10334   */\n      0x00\n        /* \"#utility.yul\":10368:10370   */\n      0x20\n        /* \"#utility.yul\":10357:10366   */\n      dup3\n        /* \"#utility.yul\":10353:10371   */\n      add\n        /* \"#utility.yul\":10345:10371   */\n      swap1\n      pop\n        /* \"#utility.yul\":10417:10426   */\n      dup2\n        /* \"#utility.yul\":10411:10415   */\n      dup2\n        /* \"#utility.yul\":10407:10427   */\n      sub\n        /* \"#utility.yul\":10403:10404   */\n      0x00\n        /* \"#utility.yul\":10392:10401   */\n      dup4\n        /* \"#utility.yul\":10388:10405   */\n      add\n        /* \"#utility.yul\":10381:10428   */\n      mstore\n        /* \"#utility.yul\":10445:10576   */\n      tag_204\n        /* \"#utility.yul\":10571:10575   */\n      dup2\n        /* \"#utility.yul\":10445:10576   */\n      tag_81\n      jump\t// in\n    tag_204:\n        /* \"#utility.yul\":10437:10576   */\n      swap1\n      pop\n        /* \"#utility.yul\":10164:10583   */\n      swap2\n      swap1\n      pop\n      jump\t// out\n        /* \"#utility.yul\":10589:10769   */\n    tag_37:\n        /* \"#utility.yul\":10637:10714   */\n      0x4e487b7100000000000000000000000000000000000000000000000000000000\n        /* \"#utility.yul\":10634:10635   */\n      0x00\n        /* \"#utility.yul\":10627:10715   */\n      mstore\n        /* \"#utility.yul\":10734:10738   */\n      0x32\n        /* \"#utility.yul\":10731:10732   */\n      0x04\n        /* \"#utility.yul\":10724:10739   */\n      mstore\n        /* \"#utility.yul\":10758:10762   */\n      0x24\n        /* \"#utility.yul\":10755:10756   */\n      0x00\n        /* \"#utility.yul\":10748:10763   */\n      revert\n        /* \"#utility.yul\":10775:10874   */\n    tag_82:\n        /* \"#utility.yul\":10827:10833   */\n      0x00\n        /* \"#utility.yul\":10861:10866   */\n      dup2\n        /* \"#utility.yul\":10855:10867   */\n      mload\n        /* \"#utility.yul\":10845:10867   */\n      swap1\n      pop\n        /* \"#utility.yul\":10775:10874   */\n      swap2\n      swap1\n      pop\n      jump\t// out\n        /* \"#utility.yul\":10880:11028   */\n    tag_83:\n        /* \"#utility.yul\":10982:10993   */\n      0x00\n        /* \"#utility.yul\":11019:11022   */\n      dup2\n        /* \"#utility.yul\":11004:11022   */\n      swap1\n      pop\n        /* \"#utility.yul\":10880:11028   */\n      swap3\n      swap2\n      pop\n      pop\n      jump\t// out\n        /* \"#utility.yul\":11034:11280   */\n    tag_84:\n        /* \"#utility.yul\":11115:11116   */\n      0x00\n        /* \"#utility.yul\":11125:11238   */\n    tag_209:\n        /* \"#utility.yul\":11139:11145   */\n      dup4\n        /* \"#utility.yul\":11136:11137   */\n      dup2\n        /* \"#utility.yul\":11133:11146   */\n      lt\n        /* \"#utility.yul\":11125:11238   */\n      iszero\n      tag_211\n      jumpi\n        /* \"#utility.yul\":11224:11225   */\n      dup1\n        /* \"#utility.yul\":11219:11222   */\n      dup3\n        /* \"#utility.yul\":11215:11226   */\n      add\n        /* \"#utility.yul\":11209:11227   */\n      mload\n        /* \"#utility.yul\":11205:11206   */\n      dup2\n        /* \"#utility.yul\":11200:11203   */\n      dup5\n        /* \"#utility.yul\":11196:11207   */\n      add\n        /* \"#utility.yul\":11189:11228   */\n      mstore\n        /* \"#utility.yul\":11161:11163   */\n      0x20\n        /* \"#utility.yul\":11158:11159   */\n      dup2\n        /* \"#utility.yul\":11154:11164   */\n      add\n        /* \"#utility.yul\":11149:11164   */\n      swap1\n      pop\n        /* \"#utility.yul\":11125:11238   */\n      jump(tag_209)\n    tag_211:\n        /* \"#utility.yul\":11272:11273   */\n      0x00\n        /* \"#utility.yul\":11263:11269   */\n      dup5\n        /* \"#utility.yul\":11258:11261   */\n      dup5\n        /* \"#utility.yul\":11254:11270   */\n      add\n        /* \"#utility.yul\":11247:11274   */\n      mstore\n        /* \"#utility.yul\":11096:11280   */\n      pop\n        /* \"#utility.yul\":11034:11280   */\n      pop\n      pop\n      pop\n      jump\t// out\n        /* \"#utility.yul\":11286:11676   */\n    tag_85:\n        /* \"#utility.yul\":11392:11395   */\n      0x00\n        /* \"#utility.yul\":11420:11459   */\n      tag_213\n        /* \"#utility.yul\":11453:11458   */\n      dup3\n        /* \"#utility.yul\":11420:11459   */\n      tag_82\n      jump\t// in\n    tag_213:\n        /* \"#utility.yul\":11475:11564   */\n      tag_214\n        /* \"#utility.yul\":11557:11563   */\n      dup2\n        /* \"#utility.yul\":11552:11555   */\n      dup6\n        /* \"#utility.yul\":11475:11564   */\n      tag_83\n      jump\t// in\n    tag_214:\n        /* \"#utility.yul\":11468:11564   */\n      swap4\n      pop\n        /* \"#utility.yul\":11573:11638   */\n      tag_215\n        /* \"#utility.yul\":11631:11637   */\n      dup2\n        /* \"#utility.yul\":11626:11629   */\n      dup6\n        /* \"#utility.yul\":11619:11623   */\n      0x20\n        /* \"#utility.yul\":11612:11617   */\n      dup7\n        /* \"#utility.yul\":11608:11624   */\n      add\n        /* \"#utility.yul\":11573:11638   */\n      tag_84\n      jump\t// in\n    tag_215:\n        /* \"#utility.yul\":11663:11669   */\n      dup1\n        /* \"#utility.yul\":11658:11661   */\n      dup5\n        /* \"#utility.yul\":11654:11670   */\n      add\n        /* \"#utility.yul\":11647:11670   */\n      swap2\n      pop\n        /* \"#utility.yul\":11396:11676   */\n      pop\n        /* \"#utility.yul\":11286:11676   */\n      swap3\n      swap2\n      pop\n      pop\n      jump\t// out\n        /* \"#utility.yul\":11682:11957   */\n    tag_41:\n        /* \"#utility.yul\":11814:11817   */\n      0x00\n        /* \"#utility.yul\":11836:11931   */\n      tag_217\n        /* \"#utility.yul\":11927:11930   */\n      dup3\n        /* \"#utility.yul\":11918:11924   */\n      dup5\n        /* \"#utility.yul\":11836:11931   */\n      tag_85\n      jump\t// in\n    tag_217:\n        /* \"#utility.yul\":11829:11931   */\n      swap2\n      pop\n        /* \"#utility.yul\":11948:11951   */\n      dup2\n        /* \"#utility.yul\":11941:11951   */\n      swap1\n      pop\n        /* \"#utility.yul\":11682:11957   */\n      swap3\n      swap2\n      pop\n      pop\n      jump\t// out\n        /* \"#utility.yul\":11963:12143   */\n    tag_86:\n        /* \"#utility.yul\":12011:12088   */\n      0x4e487b7100000000000000000000000000000000000000000000000000000000\n        /* \"#utility.yul\":12008:12009   */\n      0x00\n        /* \"#utility.yul\":12001:12089   */\n      mstore\n        /* \"#utility.yul\":12108:12112   */\n      0x11\n        /* \"#utility.yul\":12105:12106   */\n      0x04\n        /* \"#utility.yul\":12098:12113   */\n      mstore\n        /* \"#utility.yul\":12132:12136   */\n      0x24\n        /* \"#utility.yul\":12129:12130   */\n      0x00\n        /* \"#utility.yul\":12122:12137   */\n      revert\n        /* \"#utility.yul\":12149:12226   */\n    tag_87:\n        /* \"#utility.yul\":12186:12193   */\n      0x00\n        /* \"#utility.yul\":12215:12220   */\n      dup2\n        /* \"#utility.yul\":12204:12220   */\n      swap1\n      pop\n        /* \"#utility.yul\":12149:12226   */\n      swap2\n      swap1\n      pop\n      jump\t// out\n        /* \"#utility.yul\":12232:12465   */\n    tag_43:\n        /* \"#utility.yul\":12271:12274   */\n      0x00\n        /* \"#utility.yul\":12294:12318   */\n      tag_221\n        /* \"#utility.yul\":12312:12317   */\n      dup3\n        /* \"#utility.yul\":12294:12318   */\n      tag_87\n      jump\t// in\n    tag_221:\n        /* \"#utility.yul\":12285:12318   */\n      swap2\n      pop\n        /* \"#utility.yul\":12340:12406   */\n      0xffffffffffffffffffffffffffffffffffffffffffffffffffffffffffffffff\n        /* \"#utility.yul\":12333:12338   */\n      dup3\n        /* \"#utility.yul\":12330:12407   */\n      sub\n        /* \"#utility.yul\":12327:12430   */\n      tag_222\n      jumpi\n        /* \"#utility.yul\":12410:12428   */\n      tag_223\n      tag_86\n      jump\t// in\n    tag_223:\n        /* \"#utility.yul\":12327:12430   */\n    tag_222:\n        /* \"#utility.yul\":12457:12458   */\n      0x01\n        /* \"#utility.yul\":12450:12455   */\n      dup3\n        /* \"#utility.yul\":12446:12459   */\n      add\n        /* \"#utility.yul\":12439:12459   */\n      swap1\n      pop\n        /* \"#utility.yul\":12232:12465   */\n      swap2\n      swap1\n      pop\n      jump\t// out\n        /* \"#utility.yul\":12471:12576   */\n    tag_88:\n        /* \"#utility.yul\":12507:12514   */\n      0x00\n        /* \"#utility.yul\":12547:12569   */\n      0xffffffffffffffffffff\n        /* \"#utility.yul\":12540:12545   */\n      dup3\n        /* \"#utility.yul\":12536:12570   */\n      and\n        /* \"#utility.yul\":12525:12570   */\n      swap1\n      pop\n        /* \"#utility.yul\":12471:12576   */\n      swap2\n      swap1\n      pop\n      jump\t// out\n        /* \"#utility.yul\":12582:12702   */\n    tag_89:\n        /* \"#utility.yul\":12654:12677   */\n      tag_226\n        /* \"#utility.yul\":12671:12676   */\n      dup2\n        /* \"#utility.yul\":12654:12677   */\n      tag_88\n      jump\t// in\n    tag_226:\n        /* \"#utility.yul\":12647:12652   */\n      dup2\n        /* \"#utility.yul\":12644:12678   */\n      eq\n        /* \"#utility.yul\":12634:12696   */\n      tag_227\n      jumpi\n        /* \"#utility.yul\":12692:12693   */\n      0x00\n        /* \"#utility.yul\":12689:12690   */\n      dup1\n        /* \"#utility.yul\":12682:12694   */\n      revert\n        /* \"#utility.yul\":12634:12696   */\n    tag_227:\n        /* \"#utility.yul\":12582:12702   */\n      pop\n      jump\t// out\n        /* \"#utility.yul\":12708:12849   */\n    tag_90:\n        /* \"#utility.yul\":12764:12769   */\n      0x00\n        /* \"#utility.yul\":12795:12801   */\n      dup2\n        /* \"#utility.yul\":12789:12802   */\n      mload\n        /* \"#utility.yul\":12780:12802   */\n      swap1\n      pop\n        /* \"#utility.yul\":12811:12843   */\n      tag_229\n        /* \"#utility.yul\":12837:12842   */\n      dup2\n        /* \"#utility.yul\":12811:12843   */\n      tag_89\n      jump\t// in\n    tag_229:\n        /* \"#utility.yul\":12708:12849   */\n      swap3\n      swap2\n      pop\n      pop\n      jump\t// out\n        /* \"#utility.yul\":12855:12975   */\n    tag_91:\n        /* \"#utility.yul\":12927:12950   */\n      tag_231\n        /* \"#utility.yul\":12944:12949   */\n      dup2\n        /* \"#utility.yul\":12927:12950   */\n      tag_75\n      jump\t// in\n    tag_231:\n        /* \"#utility.yul\":12920:12925   */\n      dup2\n        /* \"#utility.yul\":12917:12951   */\n      eq\n        /* \"#utility.yul\":12907:12969   */\n      tag_232\n      jumpi\n        /* \"#utility.yul\":12965:12966   */\n      0x00\n        /* \"#utility.yul\":12962:12963   */\n      dup1\n        /* \"#utility.yul\":12955:12967   */\n      revert\n        /* \"#utility.yul\":12907:12969   */\n    tag_232:\n        /* \"#utility.yul\":12855:12975   */\n      pop\n      jump\t// out\n        /* \"#utility.yul\":12981:13122   */\n    tag_92:\n        /* \"#utility.yul\":13037:13042   */\n      0x00\n        /* \"#utility.yul\":13068:13074   */\n      dup2\n        /* \"#utility.yul\":13062:13075   */\n      mload\n        /* \"#utility.yul\":13053:13075   */\n      swap1\n      pop\n        /* \"#utility.yul\":13084:13116   */\n      tag_234\n        /* \"#utility.yul\":13110:13115   */\n      dup2\n        /* \"#utility.yul\":13084:13116   */\n      tag_91\n      jump\t// in\n    tag_234:\n        /* \"#utility.yul\":12981:13122   */\n      swap3\n      swap2\n      pop\n      pop\n      jump\t// out\n        /* \"#utility.yul\":13128:13250   */\n    tag_93:\n        /* \"#utility.yul\":13201:13225   */\n      tag_236\n        /* \"#utility.yul\":13219:13224   */\n      dup2\n        /* \"#utility.yul\":13201:13225   */\n      tag_87\n      jump\t// in\n    tag_236:\n        /* \"#utility.yul\":13194:13199   */\n      dup2\n        /* \"#utility.yul\":13191:13226   */\n      eq\n        /* \"#utility.yul\":13181:13244   */\n      tag_237\n      jumpi\n        /* \"#utility.yul\":13240:13241   */\n      0x00\n        /* \"#utility.yul\":13237:13238   */\n      dup1\n        /* \"#utility.yul\":13230:13242   */\n      revert\n        /* \"#utility.yul\":13181:13244   */\n    tag_237:\n        /* \"#utility.yul\":13128:13250   */\n      pop\n      jump\t// out\n        /* \"#utility.yul\":13256:13399   */\n    tag_94:\n        /* \"#utility.yul\":13313:13318   */\n      0x00\n        /* \"#utility.yul\":13344:13350   */\n      dup2\n        /* \"#utility.yul\":13338:13351   */\n      mload\n        /* \"#utility.yul\":13329:13351   */\n      swap1\n      pop\n        /* \"#utility.yul\":13360:13393   */\n      tag_239\n        /* \"#utility.yul\":13387:13392   */\n      dup2\n        /* \"#utility.yul\":13360:13393   */\n      tag_93\n      jump\t// in\n    tag_239:\n        /* \"#utility.yul\":13256:13399   */\n      swap3\n      swap2\n      pop\n      pop\n      jump\t// out\n        /* \"#utility.yul\":13405:14376   */\n    tag_49:\n        /* \"#utility.yul\":13508:13514   */\n      0x00\n        /* \"#utility.yul\":13516:13522   */\n      dup1\n        /* \"#utility.yul\":13524:13530   */\n      0x00\n        /* \"#utility.yul\":13532:13538   */\n      dup1\n        /* \"#utility.yul\":13540:13546   */\n      0x00\n        /* \"#utility.yul\":13589:13592   */\n      0xa0\n        /* \"#utility.yul\":13577:13586   */\n      dup7\n        /* \"#utility.yul\":13568:13575   */\n      dup9\n        /* \"#utility.yul\":13564:13587   */\n      sub\n        /* \"#utility.yul\":13560:13593   */\n      slt\n        /* \"#utility.yul\":13557:13677   */\n      iszero\n      tag_241\n      jumpi\n        /* \"#utility.yul\":13596:13675   */\n      tag_242\n      tag_51\n      jump\t// in\n    tag_242:\n        /* \"#utility.yul\":13557:13677   */\n    tag_241:\n        /* \"#utility.yul\":13716:13717   */\n      0x00\n        /* \"#utility.yul\":13741:13804   */\n      tag_243\n        /* \"#utility.yul\":13796:13803   */\n      dup9\n        /* \"#utility.yul\":13787:13793   */\n      dup3\n        /* \"#utility.yul\":13776:13785   */\n      dup10\n        /* \"#utility.yul\":13772:13794   */\n      add\n        /* \"#utility.yul\":13741:13804   */\n      tag_90\n      jump\t// in\n    tag_243:\n        /* \"#utility.yul\":13731:13804   */\n      swap6\n      pop\n        /* \"#utility.yul\":13687:13814   */\n      pop\n        /* \"#utility.yul\":13853:13855   */\n      0x20\n        /* \"#utility.yul\":13879:13942   */\n      tag_244\n        /* \"#utility.yul\":13934:13941   */\n      dup9\n        /* \"#utility.yul\":13925:13931   */\n      dup3\n        /* \"#utility.yul\":13914:13923   */\n      dup10\n        /* \"#utility.yul\":13910:13932   */\n      add\n        /* \"#utility.yul\":13879:13942   */\n      tag_92\n      jump\t// in\n    tag_244:\n        /* \"#utility.yul\":13869:13942   */\n      swap5\n      pop\n        /* \"#utility.yul\":13824:13952   */\n      pop\n        /* \"#utility.yul\":13991:13993   */\n      0x40\n        /* \"#utility.yul\":14017:14081   */\n      tag_245\n        /* \"#utility.yul\":14073:14080   */\n      dup9\n        /* \"#utility.yul\":14064:14070   */\n      dup3\n        /* \"#utility.yul\":14053:14062   */\n      dup10\n        /* \"#utility.yul\":14049:14071   */\n      add\n        /* \"#utility.yul\":14017:14081   */\n      tag_94\n      jump\t// in\n    tag_245:\n        /* \"#utility.yul\":14007:14081   */\n      swap4\n      pop\n        /* \"#utility.yul\":13962:14091   */\n      pop\n        /* \"#utility.yul\":14130:14132   */\n      0x60\n        /* \"#utility.yul\":14156:14220   */\n      tag_246\n        /* \"#utility.yul\":14212:14219   */\n      dup9\n        /* \"#utility.yul\":14203:14209   */\n      dup3\n        /* \"#utility.yul\":14192:14201   */\n      dup10\n        /* \"#utility.yul\":14188:14210   */\n      add\n        /* \"#utility.yul\":14156:14220   */\n      tag_94\n      jump\t// in\n    tag_246:\n        /* \"#utility.yul\":14146:14220   */\n      swap3\n      pop\n        /* \"#utility.yul\":14101:14230   */\n      pop\n        /* \"#utility.yul\":14269:14272   */\n      0x80\n        /* \"#utility.yul\":14296:14359   */\n      tag_247\n        /* \"#utility.yul\":14351:14358   */\n      dup9\n        /* \"#utility.yul\":14342:14348   */\n      dup3\n        /* \"#utility.yul\":14331:14340   */\n      dup10\n        /* \"#utility.yul\":14327:14349   */\n      add\n        /* \"#utility.yul\":14296:14359   */\n      tag_90\n      jump\t// in\n    tag_247:\n        /* \"#utility.yul\":14286:14359   */\n      swap2\n      pop\n        /* \"#utility.yul\":14240:14369   */\n      pop\n        /* \"#utility.yul\":13405:14376   */\n      swap3\n      swap6\n      pop\n      swap3\n      swap6\n      swap1\n      swap4\n      pop\n      jump\t// out\n\n    auxdata: 0xa2646970667358221220200575c993d21c900727188778b5af8734fa33d763f0339494004cd7dc22c60c64736f6c63430008130033\n}\n",
				"bytecode": {
					"linkReferences": {},
					"object": "608060405234801561001057600080fd5b50336000806101000a81548173ffffffffffffffffffffffffffffffffffffffff021916908373ffffffffffffffffffffffffffffffffffffffff160217905550610b6a806100606000396000f3fe608060405234801561001057600080fd5b506004361061004c5760003560e01c806323e21386146100515780634a666704146100815780636b33e3541461009d5780638da5cb5b146100cd575b600080fd5b61006b600480360381019061006691906104fe565b6100eb565b6040516100789190610588565b60405180910390f35b61009b60048036038101906100969190610778565b610134565b005b6100b760048036038101906100b291906104fe565b6102bb565b6040516100c49190610809565b60405180910390f35b6100d5610380565b6040516100e29190610588565b60405180910390f35b6001818051602081018201805184825260208301602085012081835280955050505050506000915054906101000a900473ffffffffffffffffffffffffffffffffffffffff1681565b60008054906101000a900473ffffffffffffffffffffffffffffffffffffffff1673ffffffffffffffffffffffffffffffffffffffff163373ffffffffffffffffffffffffffffffffffffffff16146101c2576040517f08c379a00000000000000000000000000000000000000000000000000000000081526004016101b99061085b565b60405180910390fd5b8151815114610206576040517f08c379a00000000000000000000000000000000000000000000000000000000081526004016101fd906108c7565b60405180910390fd5b60005b82518110156102b657818181518110610225576102246108e7565b5b60200260200101516001848381518110610242576102416108e7565b5b60200260200101516040516102579190610987565b908152602001604051809103902060006101000a81548173ffffffffffffffffffffffffffffffffffffffff021916908373ffffffffffffffffffffffffffffffffffffffff16021790555080806102ae906109d7565b915050610209565b505050565b6000806001836040516102ce9190610987565b908152602001604051809103902060009054906101000a900473ffffffffffffffffffffffffffffffffffffffff16905060008173ffffffffffffffffffffffffffffffffffffffff1663feaf968c6040518163ffffffff1660e01b815260040160a060405180830381865afa15801561034c573d6000803e3d6000fd5b505050506040513d601f19601f820116820180604052508101906103709190610ab9565b5050509150508092505050919050565b60008054906101000a900473ffffffffffffffffffffffffffffffffffffffff1681565b6000604051905090565b600080fd5b600080fd5b600080fd5b600080fd5b6000601f19601f8301169050919050565b7f4e487b7100000000000000000000000000000000000000000000000000000000600052604160045260246000fd5b61040b826103c2565b810181811067ffffffffffffffff8211171561042a576104296103d3565b5b80604052505050565b600061043d6103a4565b90506104498282610402565b919050565b600067ffffffffffffffff821115610469576104686103d3565b5b610472826103c2565b9050602081019050919050565b82818337600083830152505050565b60006104a161049c8461044e565b610433565b9050828152602081018484840111156104bd576104bc6103bd565b5b6104c884828561047f565b509392505050565b600082601f8301126104e5576104e46103b8565b5b81356104f584826020860161048e565b91505092915050565b600060208284031215610514576105136103ae565b5b600082013567ffffffffffffffff811115610532576105316103b3565b5b61053e848285016104d0565b91505092915050565b600073ffffffffffffffffffffffffffffffffffffffff82169050919050565b600061057282610547565b9050919050565b61058281610567565b82525050565b600060208201905061059d6000830184610579565b92915050565b600067ffffffffffffffff8211156105be576105bd6103d3565b5b602082029050602081019050919050565b600080fd5b60006105e76105e2846105a3565b610433565b9050808382526020820190506020840283018581111561060a576106096105cf565b5b835b8181101561065157803567ffffffffffffffff81111561062f5761062e6103b8565b5b80860161063c89826104d0565b8552602085019450505060208101905061060c565b5050509392505050565b600082601f8301126106705761066f6103b8565b5b81356106808482602086016105d4565b91505092915050565b600067ffffffffffffffff8211156106a4576106a36103d3565b5b602082029050602081019050919050565b6106be81610567565b81146106c957600080fd5b50565b6000813590506106db816106b5565b92915050565b60006106f46106ef84610689565b610433565b90508083825260208201905060208402830185811115610717576107166105cf565b5b835b81811015610740578061072c88826106cc565b845260208401935050602081019050610719565b5050509392505050565b600082601f83011261075f5761075e6103b8565b5b813561076f8482602086016106e1565b91505092915050565b6000806040838503121561078f5761078e6103ae565b5b600083013567ffffffffffffffff8111156107ad576107ac6103b3565b5b6107b98582860161065b565b925050602083013567ffffffffffffffff8111156107da576107d96103b3565b5b6107e68582860161074a565b9150509250929050565b6000819050919050565b610803816107f0565b82525050565b600060208201905061081e60008301846107fa565b92915050565b600082825260208201905092915050565b50565b6000610845600083610824565b915061085082610835565b600082019050919050565b6000602082019050818103600083015261087481610838565b9050919050565b7f2000000000000000000000000000000000000000000000000000000000000000600082015250565b60006108b1600183610824565b91506108bc8261087b565b602082019050919050565b600060208201905081810360008301526108e0816108a4565b9050919050565b7f4e487b7100000000000000000000000000000000000000000000000000000000600052603260045260246000fd5b600081519050919050565b600081905092915050565b60005b8381101561094a57808201518184015260208101905061092f565b60008484015250505050565b600061096182610916565b61096b8185610921565b935061097b81856020860161092c565b80840191505092915050565b60006109938284610956565b915081905092915050565b7f4e487b7100000000000000000000000000000000000000000000000000000000600052601160045260246000fd5b6000819050919050565b60006109e2826109cd565b91507fffffffffffffffffffffffffffffffffffffffffffffffffffffffffffffffff8203610a1457610a1361099e565b5b600182019050919050565b600069ffffffffffffffffffff82169050919050565b610a3e81610a1f565b8114610a4957600080fd5b50565b600081519050610a5b81610a35565b92915050565b610a6a816107f0565b8114610a7557600080fd5b50565b600081519050610a8781610a61565b92915050565b610a96816109cd565b8114610aa157600080fd5b50565b600081519050610ab381610a8d565b92915050565b600080600080600060a08688031215610ad557610ad46103ae565b5b6000610ae388828901610a4c565b9550506020610af488828901610a78565b9450506040610b0588828901610aa4565b9350506060610b1688828901610aa4565b9250506080610b2788828901610a4c565b915050929550929590935056fea2646970667358221220200575c993d21c900727188778b5af8734fa33d763f0339494004cd7dc22c60c64736f6c63430008130033",
					"opcodes": "PUSH1 0x80 PUSH1 0x40 MSTORE CALLVALUE DUP1 ISZERO PUSH2 0x10 JUMPI PUSH1 0x0 DUP1 REVERT JUMPDEST POP CALLER PUSH1 0x0 DUP1 PUSH2 0x100 EXP DUP2 SLOAD DUP2 PUSH20 0xFFFFFFFFFFFFFFFFFFFFFFFFFFFFFFFFFFFFFFFF MUL NOT AND SWAP1 DUP4 PUSH20 0xFFFFFFFFFFFFFFFFFFFFFFFFFFFFFFFFFFFFFFFF AND MUL OR SWAP1 SSTORE POP PUSH2 0xB6A DUP1 PUSH2 0x60 PUSH1 0x0 CODECOPY PUSH1 0x0 RETURN INVALID PUSH1 0x80 PUSH1 0x40 MSTORE CALLVALUE DUP1 ISZERO PUSH2 0x10 JUMPI PUSH1 0x0 DUP1 REVERT JUMPDEST POP PUSH1 0x4 CALLDATASIZE LT PUSH2 0x4C JUMPI PUSH1 0x0 CALLDATALOAD PUSH1 0xE0 SHR DUP1 PUSH4 0x23E21386 EQ PUSH2 0x51 JUMPI DUP1 PUSH4 0x4A666704 EQ PUSH2 0x81 JUMPI DUP1 PUSH4 0x6B33E354 EQ PUSH2 0x9D JUMPI DUP1 PUSH4 0x8DA5CB5B EQ PUSH2 0xCD JUMPI JUMPDEST PUSH1 0x0 DUP1 REVERT JUMPDEST PUSH2 0x6B PUSH1 0x4 DUP1 CALLDATASIZE SUB DUP2 ADD SWAP1 PUSH2 0x66 SWAP2 SWAP1 PUSH2 0x4FE JUMP JUMPDEST PUSH2 0xEB JUMP JUMPDEST PUSH1 0x40 MLOAD PUSH2 0x78 SWAP2 SWAP1 PUSH2 0x588 JUMP JUMPDEST PUSH1 0x40 MLOAD DUP1 SWAP2 SUB SWAP1 RETURN JUMPDEST PUSH2 0x9B PUSH1 0x4 DUP1 CALLDATASIZE SUB DUP2 ADD SWAP1 PUSH2 0x96 SWAP2 SWAP1 PUSH2 0x778 JUMP JUMPDEST PUSH2 0x134 JUMP JUMPDEST STOP JUMPDEST PUSH2 0xB7 PUSH1 0x4 DUP1 CALLDATASIZE SUB DUP2 ADD SWAP1 PUSH2 0xB2 SWAP2 SWAP1 PUSH2 0x4FE JUMP JUMPDEST PUSH2 0x2BB JUMP JUMPDEST PUSH1 0x40 MLOAD PUSH2 0xC4 SWAP2 SWAP1 PUSH2 0x809 JUMP JUMPDEST PUSH1 0x40 MLOAD DUP1 SWAP2 SUB SWAP1 RETURN JUMPDEST PUSH2 0xD5 PUSH2 0x380 JUMP JUMPDEST PUSH1 0x40 MLOAD PUSH2 0xE2 SWAP2 SWAP1 PUSH2 0x588 JUMP JUMPDEST PUSH1 0x40 MLOAD DUP1 SWAP2 SUB SWAP1 RETURN JUMPDEST PUSH1 0x1 DUP2 DUP1 MLOAD PUSH1 0x20 DUP2 ADD DUP3 ADD DUP1 MLOAD DUP5 DUP3 MSTORE PUSH1 0x20 DUP4 ADD PUSH1 0x20 DUP6 ADD KECCAK256 DUP2 DUP4 MSTORE DUP1 SWAP6 POP POP POP POP POP POP PUSH1 0x0 SWAP2 POP SLOAD SWAP1 PUSH2 0x100 EXP SWAP1 DIV PUSH20 0xFFFFFFFFFFFFFFFFFFFFFFFFFFFFFFFFFFFFFFFF AND DUP2 JUMP JUMPDEST PUSH1 0x0 DUP1 SLOAD SWAP1 PUSH2 0x100 EXP SWAP1 DIV PUSH20 0xFFFFFFFFFFFFFFFFFFFFFFFFFFFFFFFFFFFFFFFF AND PUSH20 0xFFFFFFFFFFFFFFFFFFFFFFFFFFFFFFFFFFFFFFFF AND CALLER PUSH20 0xFFFFFFFFFFFFFFFFFFFFFFFFFFFFFFFFFFFFFFFF AND EQ PUSH2 0x1C2 JUMPI PUSH1 0x40 MLOAD PUSH32 0x8C379A000000000000000000000000000000000000000000000000000000000 DUP2 MSTORE PUSH1 0x4 ADD PUSH2 0x1B9 SWAP1 PUSH2 0x85B JUMP JUMPDEST PUSH1 0x40 MLOAD DUP1 SWAP2 SUB SWAP1 REVERT JUMPDEST DUP2 MLOAD DUP2 MLOAD EQ PUSH2 0x206 JUMPI PUSH1 0x40 MLOAD PUSH32 0x8C379A000000000000000000000000000000000000000000000000000000000 DUP2 MSTORE PUSH1 0x4 ADD PUSH2 0x1FD SWAP1 PUSH2 0x8C7 JUMP JUMPDEST PUSH1 0x40 MLOAD DUP1 SWAP2 SUB SWAP1 REVERT JUMPDEST PUSH1 0x0 JUMPDEST DUP3 MLOAD DUP2 LT ISZERO PUSH2 0x2B6 JUMPI DUP2 DUP2 DUP2 MLOAD DUP2 LT PUSH2 0x225 JUMPI PUSH2 0x224 PUSH2 0x8E7 JUMP JUMPDEST JUMPDEST PUSH1 0x20 MUL PUSH1 0x20 ADD ADD MLOAD PUSH1 0x1 DUP5 DUP4 DUP2 MLOAD DUP2 LT PUSH2 0x242 JUMPI PUSH2 0x241 PUSH2 0x8E7 JUMP JUMPDEST JUMPDEST PUSH1 0x20 MUL PUSH1 0x20 ADD ADD MLOAD PUSH1 0x40 MLOAD PUSH2 0x257 SWAP2 SWAP1 PUSH2 0x987 JUMP JUMPDEST SWAP1 DUP2 MSTORE PUSH1 0x20 ADD PUSH1 0x40 MLOAD DUP1 SWAP2 SUB SWAP1 KECCAK256 PUSH1 0x0 PUSH2 0x100 EXP DUP2 SLOAD DUP2 PUSH20 0xFFFFFFFFFFFFFFFFFFFFFFFFFFFFFFFFFFFFFFFF MUL NOT AND SWAP1 DUP4 PUSH20 0xFFFFFFFFFFFFFFFFFFFFFFFFFFFFFFFFFFFFFFFF AND MUL OR SWAP1 SSTORE POP DUP1 DUP1 PUSH2 0x2AE SWAP1 PUSH2 0x9D7 JUMP JUMPDEST SWAP2 POP POP PUSH2 0x209 JUMP JUMPDEST POP POP POP JUMP JUMPDEST PUSH1 0x0 DUP1 PUSH1 0x1 DUP4 PUSH1 0x40 MLOAD PUSH2 0x2CE SWAP2 SWAP1 PUSH2 0x987 JUMP JUMPDEST SWAP1 DUP2 MSTORE PUSH1 0x20 ADD PUSH1 0x40 MLOAD DUP1 SWAP2 SUB SWAP1 KECCAK256 PUSH1 0x0 SWAP1 SLOAD SWAP1 PUSH2 0x100 EXP SWAP1 DIV PUSH20 0xFFFFFFFFFFFFFFFFFFFFFFFFFFFFFFFFFFFFFFFF AND SWAP1 POP PUSH1 0x0 DUP2 PUSH20 0xFFFFFFFFFFFFFFFFFFFFFFFFFFFFFFFFFFFFFFFF AND PUSH4 0xFEAF968C PUSH1 0x40 MLOAD DUP2 PUSH4 0xFFFFFFFF AND PUSH1 0xE0 SHL DUP2 MSTORE PUSH1 0x4 ADD PUSH1 0xA0 PUSH1 0x40 MLOAD DUP1 DUP4 SUB DUP2 DUP7 GAS STATICCALL ISZERO DUP1 ISZERO PUSH2 0x34C JUMPI RETURNDATASIZE PUSH1 0x0 DUP1 RETURNDATACOPY RETURNDATASIZE PUSH1 0x0 REVERT JUMPDEST POP POP POP POP PUSH1 0x40 MLOAD RETURNDATASIZE PUSH1 0x1F NOT PUSH1 0x1F DUP3 ADD AND DUP3 ADD DUP1 PUSH1 0x40 MSTORE POP DUP2 ADD SWAP1 PUSH2 0x370 SWAP2 SWAP1 PUSH2 0xAB9 JUMP JUMPDEST POP POP POP SWAP2 POP POP DUP1 SWAP3 POP POP POP SWAP2 SWAP1 POP JUMP JUMPDEST PUSH1 0x0 DUP1 SLOAD SWAP1 PUSH2 0x100 EXP SWAP1 DIV PUSH20 0xFFFFFFFFFFFFFFFFFFFFFFFFFFFFFFFFFFFFFFFF AND DUP2 JUMP JUMPDEST PUSH1 0x0 PUSH1 0x40 MLOAD SWAP1 POP SWAP1 JUMP JUMPDEST PUSH1 0x0 DUP1 REVERT JUMPDEST PUSH1 0x0 DUP1 REVERT JUMPDEST PUSH1 0x0 DUP1 REVERT JUMPDEST PUSH1 0x0 DUP1 REVERT JUMPDEST PUSH1 0x0 PUSH1 0x1F NOT PUSH1 0x1F DUP4 ADD AND SWAP1 POP SWAP2 SWAP1 POP JUMP JUMPDEST PUSH32 0x4E487B7100000000000000000000000000000000000000000000000000000000 PUSH1 0x0 MSTORE PUSH1 0x41 PUSH1 0x4 MSTORE PUSH1 0x24 PUSH1 0x0 REVERT JUMPDEST PUSH2 0x40B DUP3 PUSH2 0x3C2 JUMP JUMPDEST DUP2 ADD DUP2 DUP2 LT PUSH8 0xFFFFFFFFFFFFFFFF DUP3 GT OR ISZERO PUSH2 0x42A JUMPI PUSH2 0x429 PUSH2 0x3D3 JUMP JUMPDEST JUMPDEST DUP1 PUSH1 0x40 MSTORE POP POP POP JUMP JUMPDEST PUSH1 0x0 PUSH2 0x43D PUSH2 0x3A4 JUMP JUMPDEST SWAP1 POP PUSH2 0x449 DUP3 DUP3 PUSH2 0x402 JUMP JUMPDEST SWAP2 SWAP1 POP JUMP JUMPDEST PUSH1 0x0 PUSH8 0xFFFFFFFFFFFFFFFF DUP3 GT ISZERO PUSH2 0x469 JUMPI PUSH2 0x468 PUSH2 0x3D3 JUMP JUMPDEST JUMPDEST PUSH2 0x472 DUP3 PUSH2 0x3C2 JUMP JUMPDEST SWAP1 POP PUSH1 0x20 DUP2 ADD SWAP1 POP SWAP2 SWAP1 POP JUMP JUMPDEST DUP3 DUP2 DUP4 CALLDATACOPY PUSH1 0x0 DUP4 DUP4 ADD MSTORE POP POP POP JUMP JUMPDEST PUSH1 0x0 PUSH2 0x4A1 PUSH2 0x49C DUP5 PUSH2 0x44E JUMP JUMPDEST PUSH2 0x433 JUMP JUMPDEST SWAP1 POP DUP3 DUP2 MSTORE PUSH1 0x20 DUP2 ADD DUP5 DUP5 DUP5 ADD GT ISZERO PUSH2 0x4BD JUMPI PUSH2 0x4BC PUSH2 0x3BD JUMP JUMPDEST JUMPDEST PUSH2 0x4C8 DUP5 DUP3 DUP6 PUSH2 0x47F JUMP JUMPDEST POP SWAP4 SWAP3 POP POP POP JUMP JUMPDEST PUSH1 0x0 DUP3 PUSH1 0x1F DUP4 ADD SLT PUSH2 0x4E5 JUMPI PUSH2 0x4E4 PUSH2 0x3B8 JUMP JUMPDEST JUMPDEST DUP2 CALLDATALOAD PUSH2 0x4F5 DUP5 DUP3 PUSH1 0x20 DUP7 ADD PUSH2 0x48E JUMP JUMPDEST SWAP2 POP POP SWAP3 SWAP2 POP POP JUMP JUMPDEST PUSH1 0x0 PUSH1 0x20 DUP3 DUP5 SUB SLT ISZERO PUSH2 0x514 JUMPI PUSH2 0x513 PUSH2 0x3AE JUMP JUMPDEST JUMPDEST PUSH1 0x0 DUP3 ADD CALLDATALOAD PUSH8 0xFFFFFFFFFFFFFFFF DUP2 GT ISZERO PUSH2 0x532 JUMPI PUSH2 0x531 PUSH2 0x3B3 JUMP JUMPDEST JUMPDEST PUSH2 0x53E DUP5 DUP3 DUP6 ADD PUSH2 0x4D0 JUMP JUMPDEST SWAP2 POP POP SWAP3 SWAP2 POP POP JUMP JUMPDEST PUSH1 0x0 PUSH20 0xFFFFFFFFFFFFFFFFFFFFFFFFFFFFFFFFFFFFFFFF DUP3 AND SWAP1 POP SWAP2 SWAP1 POP JUMP JUMPDEST PUSH1 0x0 PUSH2 0x572 DUP3 PUSH2 0x547 JUMP JUMPDEST SWAP1 POP SWAP2 SWAP1 POP JUMP JUMPDEST PUSH2 0x582 DUP2 PUSH2 0x567 JUMP JUMPDEST DUP3 MSTORE POP POP JUMP JUMPDEST PUSH1 0x0 PUSH1 0x20 DUP3 ADD SWAP1 POP PUSH2 0x59D PUSH1 0x0 DUP4 ADD DUP5 PUSH2 0x579 JUMP JUMPDEST SWAP3 SWAP2 POP POP JUMP JUMPDEST PUSH1 0x0 PUSH8 0xFFFFFFFFFFFFFFFF DUP3 GT ISZERO PUSH2 0x5BE JUMPI PUSH2 0x5BD PUSH2 0x3D3 JUMP JUMPDEST JUMPDEST PUSH1 0x20 DUP3 MUL SWAP1 POP PUSH1 0x20 DUP2 ADD SWAP1 POP SWAP2 SWAP1 POP JUMP JUMPDEST PUSH1 0x0 DUP1 REVERT JUMPDEST PUSH1 0x0 PUSH2 0x5E7 PUSH2 0x5E2 DUP5 PUSH2 0x5A3 JUMP JUMPDEST PUSH2 0x433 JUMP JUMPDEST SWAP1 POP DUP1 DUP4 DUP3 MSTORE PUSH1 0x20 DUP3 ADD SWAP1 POP PUSH1 0x20 DUP5 MUL DUP4 ADD DUP6 DUP2 GT ISZERO PUSH2 0x60A JUMPI PUSH2 0x609 PUSH2 0x5CF JUMP JUMPDEST JUMPDEST DUP4 JUMPDEST DUP2 DUP2 LT ISZERO PUSH2 0x651 JUMPI DUP1 CALLDATALOAD PUSH8 0xFFFFFFFFFFFFFFFF DUP2 GT ISZERO PUSH2 0x62F JUMPI PUSH2 0x62E PUSH2 0x3B8 JUMP JUMPDEST JUMPDEST DUP1 DUP7 ADD PUSH2 0x63C DUP10 DUP3 PUSH2 0x4D0 JUMP JUMPDEST DUP6 MSTORE PUSH1 0x20 DUP6 ADD SWAP5 POP POP POP PUSH1 0x20 DUP2 ADD SWAP1 POP PUSH2 0x60C JUMP JUMPDEST POP POP POP SWAP4 SWAP3 POP POP POP JUMP JUMPDEST PUSH1 0x0 DUP3 PUSH1 0x1F DUP4 ADD SLT PUSH2 0x670 JUMPI PUSH2 0x66F PUSH2 0x3B8 JUMP JUMPDEST JUMPDEST DUP2 CALLDATALOAD PUSH2 0x680 DUP5 DUP3 PUSH1 0x20 DUP7 ADD PUSH2 0x5D4 JUMP JUMPDEST SWAP2 POP POP SWAP3 SWAP2 POP POP JUMP JUMPDEST PUSH1 0x0 PUSH8 0xFFFFFFFFFFFFFFFF DUP3 GT ISZERO PUSH2 0x6A4 JUMPI PUSH2 0x6A3 PUSH2 0x3D3 JUMP JUMPDEST JUMPDEST PUSH1 0x20 DUP3 MUL SWAP1 POP PUSH1 0x20 DUP2 ADD SWAP1 POP SWAP2 SWAP1 POP JUMP JUMPDEST PUSH2 0x6BE DUP2 PUSH2 0x567 JUMP JUMPDEST DUP2 EQ PUSH2 0x6C9 JUMPI PUSH1 0x0 DUP1 REVERT JUMPDEST POP JUMP JUMPDEST PUSH1 0x0 DUP2 CALLDATALOAD SWAP1 POP PUSH2 0x6DB DUP2 PUSH2 0x6B5 JUMP JUMPDEST SWAP3 SWAP2 POP POP JUMP JUMPDEST PUSH1 0x0 PUSH2 0x6F4 PUSH2 0x6EF DUP5 PUSH2 0x689 JUMP JUMPDEST PUSH2 0x433 JUMP JUMPDEST SWAP1 POP DUP1 DUP4 DUP3 MSTORE PUSH1 0x20 DUP3 ADD SWAP1 POP PUSH1 0x20 DUP5 MUL DUP4 ADD DUP6 DUP2 GT ISZERO PUSH2 0x717 JUMPI PUSH2 0x716 PUSH2 0x5CF JUMP JUMPDEST JUMPDEST DUP4 JUMPDEST DUP2 DUP2 LT ISZERO PUSH2 0x740 JUMPI DUP1 PUSH2 0x72C DUP9 DUP3 PUSH2 0x6CC JUMP JUMPDEST DUP5 MSTORE PUSH1 0x20 DUP5 ADD SWAP4 POP POP PUSH1 0x20 DUP2 ADD SWAP1 POP PUSH2 0x719 JUMP JUMPDEST POP POP POP SWAP4 SWAP3 POP POP POP JUMP JUMPDEST PUSH1 0x0 DUP3 PUSH1 0x1F DUP4 ADD SLT PUSH2 0x75F JUMPI PUSH2 0x75E PUSH2 0x3B8 JUMP JUMPDEST JUMPDEST DUP2 CALLDATALOAD PUSH2 0x76F DUP5 DUP3 PUSH1 0x20 DUP7 ADD PUSH2 0x6E1 JUMP JUMPDEST SWAP2 POP POP SWAP3 SWAP2 POP POP JUMP JUMPDEST PUSH1 0x0 DUP1 PUSH1 0x40 DUP4 DUP6 SUB SLT ISZERO PUSH2 0x78F JUMPI PUSH2 0x78E PUSH2 0x3AE JUMP JUMPDEST JUMPDEST PUSH1 0x0 DUP4 ADD CALLDATALOAD PUSH8 0xFFFFFFFFFFFFFFFF DUP2 GT ISZERO PUSH2 0x7AD JUMPI PUSH2 0x7AC PUSH2 0x3B3 JUMP JUMPDEST JUMPDEST PUSH2 0x7B9 DUP6 DUP3 DUP7 ADD PUSH2 0x65B JUMP JUMPDEST SWAP3 POP POP PUSH1 0x20 DUP4 ADD CALLDATALOAD PUSH8 0xFFFFFFFFFFFFFFFF DUP2 GT ISZERO PUSH2 0x7DA JUMPI PUSH2 0x7D9 PUSH2 0x3B3 JUMP JUMPDEST JUMPDEST PUSH2 0x7E6 DUP6 DUP3 DUP7 ADD PUSH2 0x74A JUMP JUMPDEST SWAP2 POP POP SWAP3 POP SWAP3 SWAP1 POP JUMP JUMPDEST PUSH1 0x0 DUP2 SWAP1 POP SWAP2 SWAP1 POP JUMP JUMPDEST PUSH2 0x803 DUP2 PUSH2 0x7F0 JUMP JUMPDEST DUP3 MSTORE POP POP JUMP JUMPDEST PUSH1 0x0 PUSH1 0x20 DUP3 ADD SWAP1 POP PUSH2 0x81E PUSH1 0x0 DUP4 ADD DUP5 PUSH2 0x7FA JUMP JUMPDEST SWAP3 SWAP2 POP POP JUMP JUMPDEST PUSH1 0x0 DUP3 DUP3 MSTORE PUSH1 0x20 DUP3 ADD SWAP1 POP SWAP3 SWAP2 POP POP JUMP JUMPDEST POP JUMP JUMPDEST PUSH1 0x0 PUSH2 0x845 PUSH1 0x0 DUP4 PUSH2 0x824 JUMP JUMPDEST SWAP2 POP PUSH2 0x850 DUP3 PUSH2 0x835 JUMP JUMPDEST PUSH1 0x0 DUP3 ADD SWAP1 POP SWAP2 SWAP1 POP JUMP JUMPDEST PUSH1 0x0 PUSH1 0x20 DUP3 ADD SWAP1 POP DUP2 DUP2 SUB PUSH1 0x0 DUP4 ADD MSTORE PUSH2 0x874 DUP2 PUSH2 0x838 JUMP JUMPDEST SWAP1 POP SWAP2 SWAP1 POP JUMP JUMPDEST PUSH32 0x2000000000000000000000000000000000000000000000000000000000000000 PUSH1 0x0 DUP3 ADD MSTORE POP JUMP JUMPDEST PUSH1 0x0 PUSH2 0x8B1 PUSH1 0x1 DUP4 PUSH2 0x824 JUMP JUMPDEST SWAP2 POP PUSH2 0x8BC DUP3 PUSH2 0x87B JUMP JUMPDEST PUSH1 0x20 DUP3 ADD SWAP1 POP SWAP2 SWAP1 POP JUMP JUMPDEST PUSH1 0x0 PUSH1 0x20 DUP3 ADD SWAP1 POP DUP2 DUP2 SUB PUSH1 0x0 DUP4 ADD MSTORE PUSH2 0x8E0 DUP2 PUSH2 0x8A4 JUMP JUMPDEST SWAP1 POP SWAP2 SWAP1 POP JUMP JUMPDEST PUSH32 0x4E487B7100000000000000000000000000000000000000000000000000000000 PUSH1 0x0 MSTORE PUSH1 0x32 PUSH1 0x4 MSTORE PUSH1 0x24 PUSH1 0x0 REVERT JUMPDEST PUSH1 0x0 DUP2 MLOAD SWAP1 POP SWAP2 SWAP1 POP JUMP JUMPDEST PUSH1 0x0 DUP2 SWAP1 POP SWAP3 SWAP2 POP POP JUMP JUMPDEST PUSH1 0x0 JUMPDEST DUP4 DUP2 LT ISZERO PUSH2 0x94A JUMPI DUP1 DUP3 ADD MLOAD DUP2 DUP5 ADD MSTORE PUSH1 0x20 DUP2 ADD SWAP1 POP PUSH2 0x92F JUMP JUMPDEST PUSH1 0x0 DUP5 DUP5 ADD MSTORE POP POP POP POP JUMP JUMPDEST PUSH1 0x0 PUSH2 0x961 DUP3 PUSH2 0x916 JUMP JUMPDEST PUSH2 0x96B DUP2 DUP6 PUSH2 0x921 JUMP JUMPDEST SWAP4 POP PUSH2 0x97B DUP2 DUP6 PUSH1 0x20 DUP7 ADD PUSH2 0x92C JUMP JUMPDEST DUP1 DUP5 ADD SWAP2 POP POP SWAP3 SWAP2 POP POP JUMP JUMPDEST PUSH1 0x0 PUSH2 0x993 DUP3 DUP5 PUSH2 0x956 JUMP JUMPDEST SWAP2 POP DUP2 SWAP1 POP SWAP3 SWAP2 POP POP JUMP JUMPDEST PUSH32 0x4E487B7100000000000000000000000000000000000000000000000000000000 PUSH1 0x0 MSTORE PUSH1 0x11 PUSH1 0x4 MSTORE PUSH1 0x24 PUSH1 0x0 REVERT JUMPDEST PUSH1 0x0 DUP2 SWAP1 POP SWAP2 SWAP1 POP JUMP JUMPDEST PUSH1 0x0 PUSH2 0x9E2 DUP3 PUSH2 0x9CD JUMP JUMPDEST SWAP2 POP PUSH32 0xFFFFFFFFFFFFFFFFFFFFFFFFFFFFFFFFFFFFFFFFFFFFFFFFFFFFFFFFFFFFFFFF DUP3 SUB PUSH2 0xA14 JUMPI PUSH2 0xA13 PUSH2 0x99E JUMP JUMPDEST JUMPDEST PUSH1 0x1 DUP3 ADD SWAP1 POP SWAP2 SWAP1 POP JUMP JUMPDEST PUSH1 0x0 PUSH10 0xFFFFFFFFFFFFFFFFFFFF DUP3 AND SWAP1 POP SWAP2 SWAP1 POP JUMP JUMPDEST PUSH2 0xA3E DUP2 PUSH2 0xA1F JUMP JUMPDEST DUP2 EQ PUSH2 0xA49 JUMPI PUSH1 0x0 DUP1 REVERT JUMPDEST POP JUMP JUMPDEST PUSH1 0x0 DUP2 MLOAD SWAP1 POP PUSH2 0xA5B DUP2 PUSH2 0xA35 JUMP JUMPDEST SWAP3 SWAP2 POP POP JUMP JUMPDEST PUSH2 0xA6A DUP2 PUSH2 0x7F0 JUMP JUMPDEST DUP2 EQ PUSH2 0xA75 JUMPI PUSH1 0x0 DUP1 REVERT JUMPDEST POP JUMP JUMPDEST PUSH1 0x0 DUP2 MLOAD SWAP1 POP PUSH2 0xA87 DUP2 PUSH2 0xA61 JUMP JUMPDEST SWAP3 SWAP2 POP POP JUMP JUMPDEST PUSH2 0xA96 DUP2 PUSH2 0x9CD JUMP JUMPDEST DUP2 EQ PUSH2 0xAA1 JUMPI PUSH1 0x0 DUP1 REVERT JUMPDEST POP JUMP JUMPDEST PUSH1 0x0 DUP2 MLOAD SWAP1 POP PUSH2 0xAB3 DUP2 PUSH2 0xA8D JUMP JUMPDEST SWAP3 SWAP2 POP POP JUMP JUMPDEST PUSH1 0x0 DUP1 PUSH1 0x0 DUP1 PUSH1 0x0 PUSH1 0xA0 DUP7 DUP9 SUB SLT ISZERO PUSH2 0xAD5 JUMPI PUSH2 0xAD4 PUSH2 0x3AE JUMP JUMPDEST JUMPDEST PUSH1 0x0 PUSH2 0xAE3 DUP9 DUP3 DUP10 ADD PUSH2 0xA4C JUMP JUMPDEST SWAP6 POP POP PUSH1 0x20 PUSH2 0xAF4 DUP9 DUP3 DUP10 ADD PUSH2 0xA78 JUMP JUMPDEST SWAP5 POP POP PUSH1 0x40 PUSH2 0xB05 DUP9 DUP3 DUP10 ADD PUSH2 0xAA4 JUMP JUMPDEST SWAP4 POP POP PUSH1 0x60 PUSH2 0xB16 DUP9 DUP3 DUP10 ADD PUSH2 0xAA4 JUMP JUMPDEST SWAP3 POP POP PUSH1 0x80 PUSH2 0xB27 DUP9 DUP3 DUP10 ADD PUSH2 0xA4C JUMP JUMPDEST SWAP2 POP POP SWAP3 SWAP6 POP SWAP3 SWAP6 SWAP1 SWAP4 POP JUMP INVALID LOG2 PUSH5 0x6970667358 0x22 SLT KECCAK256 KECCAK256 SDIV PUSH22 0xC993D21C900727188778B5AF8734FA33D763F0339494 STOP 0x4C 0xD7 0xDC 0x22 0xC6 0xC PUSH5 0x736F6C6343 STOP ADDMOD SGT STOP CALLER "
				},
				"gasEstimates": {
					"creation": {
						"codeDepositCost": "584400",
						"executionCost": "24885",
						"totalCost": "609285"
					},
					"external": {
						"addDatafeed(string[],address[])": "infinite",
						"datafeedContracts(string)": "infinite",
						"getChainlinkDataFeedLatestAnswer(string)": "infinite",
						"owner()": "2555"
					}
				},
				"methodIdentifiers": {
					"addDatafeed(string[],address[])": "4a666704",
					"datafeedContracts(string)": "23e21386",
					"getChainlinkDataFeedLatestAnswer(string)": "6b33e354",
					"owner()": "8da5cb5b"
				}
			},
			"storageLayout": {
				"storage": [
					{
						"astId": 51,
						"contract": "src/Price_Feed/OP_PriceFeed.sol:OP_DataConsumerV3",
						"label": "owner",
						"offset": 0,
						"slot": "0",
						"type": "t_address"
					},
					{
						"astId": 55,
						"contract": "src/Price_Feed/OP_PriceFeed.sol:OP_DataConsumerV3",
						"label": "datafeedContracts",
						"offset": 0,
						"slot": "1",
						"type": "t_mapping(t_string_memory_ptr,t_address)"
					}
				],
				"types": {
					"t_address": {
						"encoding": "inplace",
						"label": "address",
						"numberOfBytes": "20"
					},
					"t_mapping(t_string_memory_ptr,t_address)": {
						"encoding": "mapping",
						"key": "t_string_memory_ptr",
						"label": "mapping(string => address)",
						"numberOfBytes": "32",
						"value": "t_address"
					},
					"t_string_memory_ptr": {
						"encoding": "bytes",
						"label": "string",
						"numberOfBytes": "32"
					}
				}
			},
			"userdoc": {
				"kind": "user",
				"methods": {},
				"version": 1
			}
		}
	}
}