{
	"src/Credit_Token/CreditToken.sol": {
		"CreditScore": {
			"abi": [
				{
					"inputs": [],
					"stateMutability": "nonpayable",
					"type": "constructor"
				},
				{
					"anonymous": false,
					"inputs": [
						{
							"indexed": true,
							"internalType": "address",
							"name": "owner",
							"type": "address"
						},
						{
							"indexed": true,
							"internalType": "address",
							"name": "spender",
							"type": "address"
						},
						{
							"indexed": false,
							"internalType": "uint256",
							"name": "value",
							"type": "uint256"
						}
					],
					"name": "Approval",
					"type": "event"
				},
				{
					"anonymous": false,
					"inputs": [
						{
							"indexed": true,
							"internalType": "address",
							"name": "from",
							"type": "address"
						},
						{
							"indexed": true,
							"internalType": "address",
							"name": "to",
							"type": "address"
						},
						{
							"indexed": false,
							"internalType": "uint256",
							"name": "value",
							"type": "uint256"
						}
					],
					"name": "Transfer",
					"type": "event"
				},
				{
					"inputs": [
						{
							"internalType": "address",
							"name": "",
							"type": "address"
						},
						{
							"internalType": "address",
							"name": "",
							"type": "address"
						}
					],
					"name": "allowance",
					"outputs": [
						{
							"internalType": "uint256",
							"name": "",
							"type": "uint256"
						}
					],
					"stateMutability": "view",
					"type": "function"
				},
				{
					"inputs": [
						{
							"internalType": "address",
							"name": "spender",
							"type": "address"
						},
						{
							"internalType": "uint256",
							"name": "amount",
							"type": "uint256"
						}
					],
					"name": "approve",
					"outputs": [
						{
							"internalType": "bool",
							"name": "",
							"type": "bool"
						}
					],
					"stateMutability": "nonpayable",
					"type": "function"
				},
				{
					"inputs": [
						{
							"internalType": "address",
							"name": "",
							"type": "address"
						}
					],
					"name": "balanceOf",
					"outputs": [
						{
							"internalType": "uint256",
							"name": "",
							"type": "uint256"
						}
					],
					"stateMutability": "view",
					"type": "function"
				},
				{
					"inputs": [
						{
							"internalType": "address",
							"name": "_to",
							"type": "address"
						},
						{
							"internalType": "uint256",
							"name": "_amount",
							"type": "uint256"
						}
					],
					"name": "burn",
					"outputs": [],
					"stateMutability": "nonpayable",
					"type": "function"
				},
				{
					"inputs": [],
					"name": "decimals",
					"outputs": [
						{
							"internalType": "uint8",
							"name": "",
							"type": "uint8"
						}
					],
					"stateMutability": "view",
					"type": "function"
				},
				{
					"inputs": [
						{
							"internalType": "address[]",
							"name": "_contracts",
							"type": "address[]"
						}
					],
					"name": "giveMintAccess",
					"outputs": [],
					"stateMutability": "nonpayable",
					"type": "function"
				},
				{
					"inputs": [
						{
							"internalType": "address",
							"name": "_to",
							"type": "address"
						},
						{
							"internalType": "uint256",
							"name": "_amount",
							"type": "uint256"
						}
					],
					"name": "mint",
					"outputs": [],
					"stateMutability": "nonpayable",
					"type": "function"
				},
				{
					"inputs": [],
					"name": "name",
					"outputs": [
						{
							"internalType": "string",
							"name": "",
							"type": "string"
						}
					],
					"stateMutability": "view",
					"type": "function"
				},
				{
					"inputs": [
						{
							"internalType": "address[]",
							"name": "_contracts",
							"type": "address[]"
						}
					],
					"name": "revokeMintAccess",
					"outputs": [],
					"stateMutability": "nonpayable",
					"type": "function"
				},
				{
					"inputs": [],
					"name": "symbol",
					"outputs": [
						{
							"internalType": "string",
							"name": "",
							"type": "string"
						}
					],
					"stateMutability": "view",
					"type": "function"
				},
				{
					"inputs": [],
					"name": "totalSupply",
					"outputs": [
						{
							"internalType": "uint256",
							"name": "",
							"type": "uint256"
						}
					],
					"stateMutability": "view",
					"type": "function"
				},
				{
					"inputs": [
						{
							"internalType": "address",
							"name": "recipient",
							"type": "address"
						},
						{
							"internalType": "uint256",
							"name": "amount",
							"type": "uint256"
						}
					],
					"name": "transfer",
					"outputs": [
						{
							"internalType": "bool",
							"name": "",
							"type": "bool"
						}
					],
					"stateMutability": "nonpayable",
					"type": "function"
				},
				{
					"inputs": [
						{
							"internalType": "address",
							"name": "sender",
							"type": "address"
						},
						{
							"internalType": "address",
							"name": "recipient",
							"type": "address"
						},
						{
							"internalType": "uint256",
							"name": "amount",
							"type": "uint256"
						}
					],
					"name": "transferFrom",
					"outputs": [
						{
							"internalType": "bool",
							"name": "",
							"type": "bool"
						}
					],
					"stateMutability": "nonpayable",
					"type": "function"
				}
			],
			"devdoc": {
				"kind": "dev",
				"methods": {},
				"version": 1
			},
			"evm": {
				"assembly": "    /* \"src/Credit_Token/CreditToken.sol\":80:1566  contract CreditScore is ERC20 {... */\n  mstore(0x40, 0x80)\n    /* \"src/Credit_Token/CreditToken.sol\":225:310  constructor() ERC20('Credit Score', 'CREDIT', 18) {... */\n  callvalue\n  dup1\n  iszero\n  tag_1\n  jumpi\n  0x00\n  dup1\n  revert\ntag_1:\n  pop\n    /* \"src/Credit_Token/ERC20.sol\":517:675  constructor(string memory _name, string memory _symbol, uint8 _decimals) {... */\n  mload(0x40)\n  dup1\n  0x40\n  add\n  0x40\n  mstore\n  dup1\n  0x0c\n  dup2\n  mstore\n  0x20\n  add\n  0x4372656469742053636f72650000000000000000000000000000000000000000\n  dup2\n  mstore\n  pop\n  mload(0x40)\n  dup1\n  0x40\n  add\n  0x40\n  mstore\n  dup1\n  0x06\n  dup2\n  mstore\n  0x20\n  add\n  0x4352454449540000000000000000000000000000000000000000000000000000\n  dup2\n  mstore\n  pop\n    /* \"src/Credit_Token/CreditToken.sol\":271:273  18 */\n  0x12\n    /* \"src/Credit_Token/ERC20.sol\":607:612  _name */\n  dup3\n    /* \"src/Credit_Token/ERC20.sol\":600:604  name */\n  0x03\n    /* \"src/Credit_Token/ERC20.sol\":600:612  name = _name */\n  swap1\n  dup2\n  tag_5\n  swap2\n  swap1\n  tag_6\n  jump\t// in\ntag_5:\n  pop\n    /* \"src/Credit_Token/ERC20.sol\":631:638  _symbol */\n  dup2\n    /* \"src/Credit_Token/ERC20.sol\":622:628  symbol */\n  0x04\n    /* \"src/Credit_Token/ERC20.sol\":622:638  symbol = _symbol */\n  swap1\n  dup2\n  tag_7\n  swap2\n  swap1\n  tag_6\n  jump\t// in\ntag_7:\n  pop\n    /* \"src/Credit_Token/ERC20.sol\":659:668  _decimals */\n  dup1\n    /* \"src/Credit_Token/ERC20.sol\":648:656  decimals */\n  0x05\n  0x00\n    /* \"src/Credit_Token/ERC20.sol\":648:668  decimals = _decimals */\n  0x0100\n  exp\n  dup2\n  sload\n  dup2\n  0xff\n  mul\n  not\n  and\n  swap1\n  dup4\n  0xff\n  and\n  mul\n  or\n  swap1\n  sstore\n  pop\n    /* \"src/Credit_Token/ERC20.sol\":517:675  constructor(string memory _name, string memory _symbol, uint8 _decimals) {... */\n  pop\n  pop\n  pop\n    /* \"src/Credit_Token/CreditToken.sol\":293:303  msg.sender */\n  caller\n    /* \"src/Credit_Token/CreditToken.sol\":285:290  owner */\n  0x05\n  0x01\n    /* \"src/Credit_Token/CreditToken.sol\":285:303  owner = msg.sender */\n  0x0100\n  exp\n  dup2\n  sload\n  dup2\n  0xffffffffffffffffffffffffffffffffffffffff\n  mul\n  not\n  and\n  swap1\n  dup4\n  0xffffffffffffffffffffffffffffffffffffffff\n  and\n  mul\n  or\n  swap1\n  sstore\n  pop\n    /* \"src/Credit_Token/CreditToken.sol\":80:1566  contract CreditScore is ERC20 {... */\n  jump(tag_9)\n    /* \"#utility.yul\":7:106   */\ntag_10:\n    /* \"#utility.yul\":59:65   */\n  0x00\n    /* \"#utility.yul\":93:98   */\n  dup2\n    /* \"#utility.yul\":87:99   */\n  mload\n    /* \"#utility.yul\":77:99   */\n  swap1\n  pop\n    /* \"#utility.yul\":7:106   */\n  swap2\n  swap1\n  pop\n  jump\t// out\n    /* \"#utility.yul\":112:292   */\ntag_11:\n    /* \"#utility.yul\":160:237   */\n  0x4e487b7100000000000000000000000000000000000000000000000000000000\n    /* \"#utility.yul\":157:158   */\n  0x00\n    /* \"#utility.yul\":150:238   */\n  mstore\n    /* \"#utility.yul\":257:261   */\n  0x41\n    /* \"#utility.yul\":254:255   */\n  0x04\n    /* \"#utility.yul\":247:262   */\n  mstore\n    /* \"#utility.yul\":281:285   */\n  0x24\n    /* \"#utility.yul\":278:279   */\n  0x00\n    /* \"#utility.yul\":271:286   */\n  revert\n    /* \"#utility.yul\":298:478   */\ntag_12:\n    /* \"#utility.yul\":346:423   */\n  0x4e487b7100000000000000000000000000000000000000000000000000000000\n    /* \"#utility.yul\":343:344   */\n  0x00\n    /* \"#utility.yul\":336:424   */\n  mstore\n    /* \"#utility.yul\":443:447   */\n  0x22\n    /* \"#utility.yul\":440:441   */\n  0x04\n    /* \"#utility.yul\":433:448   */\n  mstore\n    /* \"#utility.yul\":467:471   */\n  0x24\n    /* \"#utility.yul\":464:465   */\n  0x00\n    /* \"#utility.yul\":457:472   */\n  revert\n    /* \"#utility.yul\":484:804   */\ntag_13:\n    /* \"#utility.yul\":528:534   */\n  0x00\n    /* \"#utility.yul\":565:566   */\n  0x02\n    /* \"#utility.yul\":559:563   */\n  dup3\n    /* \"#utility.yul\":555:567   */\n  div\n    /* \"#utility.yul\":545:567   */\n  swap1\n  pop\n    /* \"#utility.yul\":612:613   */\n  0x01\n    /* \"#utility.yul\":606:610   */\n  dup3\n    /* \"#utility.yul\":602:614   */\n  and\n    /* \"#utility.yul\":633:651   */\n  dup1\n    /* \"#utility.yul\":623:704   */\n  tag_35\n  jumpi\n    /* \"#utility.yul\":689:693   */\n  0x7f\n    /* \"#utility.yul\":681:687   */\n  dup3\n    /* \"#utility.yul\":677:694   */\n  and\n    /* \"#utility.yul\":667:694   */\n  swap2\n  pop\n    /* \"#utility.yul\":623:704   */\ntag_35:\n    /* \"#utility.yul\":751:753   */\n  0x20\n    /* \"#utility.yul\":743:749   */\n  dup3\n    /* \"#utility.yul\":740:754   */\n  lt\n    /* \"#utility.yul\":720:738   */\n  dup2\n    /* \"#utility.yul\":717:755   */\n  sub\n    /* \"#utility.yul\":714:798   */\n  tag_36\n  jumpi\n    /* \"#utility.yul\":770:788   */\n  tag_37\n  tag_12\n  jump\t// in\ntag_37:\n    /* \"#utility.yul\":714:798   */\ntag_36:\n    /* \"#utility.yul\":535:804   */\n  pop\n    /* \"#utility.yul\":484:804   */\n  swap2\n  swap1\n  pop\n  jump\t// out\n    /* \"#utility.yul\":810:951   */\ntag_14:\n    /* \"#utility.yul\":859:863   */\n  0x00\n    /* \"#utility.yul\":882:885   */\n  dup2\n    /* \"#utility.yul\":874:885   */\n  swap1\n  pop\n    /* \"#utility.yul\":905:908   */\n  dup2\n    /* \"#utility.yul\":902:903   */\n  0x00\n    /* \"#utility.yul\":895:909   */\n  mstore\n    /* \"#utility.yul\":939:943   */\n  0x20\n    /* \"#utility.yul\":936:937   */\n  0x00\n    /* \"#utility.yul\":926:944   */\n  keccak256\n    /* \"#utility.yul\":918:944   */\n  swap1\n  pop\n    /* \"#utility.yul\":810:951   */\n  swap2\n  swap1\n  pop\n  jump\t// out\n    /* \"#utility.yul\":957:1050   */\ntag_15:\n    /* \"#utility.yul\":994:1000   */\n  0x00\n    /* \"#utility.yul\":1041:1043   */\n  0x20\n    /* \"#utility.yul\":1036:1038   */\n  0x1f\n    /* \"#utility.yul\":1029:1034   */\n  dup4\n    /* \"#utility.yul\":1025:1039   */\n  add\n    /* \"#utility.yul\":1021:1044   */\n  div\n    /* \"#utility.yul\":1011:1044   */\n  swap1\n  pop\n    /* \"#utility.yul\":957:1050   */\n  swap2\n  swap1\n  pop\n  jump\t// out\n    /* \"#utility.yul\":1056:1163   */\ntag_16:\n    /* \"#utility.yul\":1100:1108   */\n  0x00\n    /* \"#utility.yul\":1150:1155   */\n  dup3\n    /* \"#utility.yul\":1144:1148   */\n  dup3\n    /* \"#utility.yul\":1140:1156   */\n  shl\n    /* \"#utility.yul\":1119:1156   */\n  swap1\n  pop\n    /* \"#utility.yul\":1056:1163   */\n  swap3\n  swap2\n  pop\n  pop\n  jump\t// out\n    /* \"#utility.yul\":1169:1562   */\ntag_17:\n    /* \"#utility.yul\":1238:1244   */\n  0x00\n    /* \"#utility.yul\":1288:1289   */\n  0x08\n    /* \"#utility.yul\":1276:1286   */\n  dup4\n    /* \"#utility.yul\":1272:1290   */\n  mul\n    /* \"#utility.yul\":1311:1408   */\n  tag_42\n    /* \"#utility.yul\":1341:1407   */\n  0xffffffffffffffffffffffffffffffffffffffffffffffffffffffffffffffff\n    /* \"#utility.yul\":1330:1339   */\n  dup3\n    /* \"#utility.yul\":1311:1408   */\n  tag_16\n  jump\t// in\ntag_42:\n    /* \"#utility.yul\":1429:1468   */\n  tag_43\n    /* \"#utility.yul\":1459:1467   */\n  dup7\n    /* \"#utility.yul\":1448:1457   */\n  dup4\n    /* \"#utility.yul\":1429:1468   */\n  tag_16\n  jump\t// in\ntag_43:\n    /* \"#utility.yul\":1417:1468   */\n  swap6\n  pop\n    /* \"#utility.yul\":1501:1505   */\n  dup1\n    /* \"#utility.yul\":1497:1506   */\n  not\n    /* \"#utility.yul\":1490:1495   */\n  dup5\n    /* \"#utility.yul\":1486:1507   */\n  and\n    /* \"#utility.yul\":1477:1507   */\n  swap4\n  pop\n    /* \"#utility.yul\":1550:1554   */\n  dup1\n    /* \"#utility.yul\":1540:1548   */\n  dup7\n    /* \"#utility.yul\":1536:1555   */\n  and\n    /* \"#utility.yul\":1529:1534   */\n  dup5\n    /* \"#utility.yul\":1526:1556   */\n  or\n    /* \"#utility.yul\":1516:1556   */\n  swap3\n  pop\n    /* \"#utility.yul\":1245:1562   */\n  pop\n  pop\n    /* \"#utility.yul\":1169:1562   */\n  swap4\n  swap3\n  pop\n  pop\n  pop\n  jump\t// out\n    /* \"#utility.yul\":1568:1645   */\ntag_18:\n    /* \"#utility.yul\":1605:1612   */\n  0x00\n    /* \"#utility.yul\":1634:1639   */\n  dup2\n    /* \"#utility.yul\":1623:1639   */\n  swap1\n  pop\n    /* \"#utility.yul\":1568:1645   */\n  swap2\n  swap1\n  pop\n  jump\t// out\n    /* \"#utility.yul\":1651:1711   */\ntag_19:\n    /* \"#utility.yul\":1679:1682   */\n  0x00\n    /* \"#utility.yul\":1700:1705   */\n  dup2\n    /* \"#utility.yul\":1693:1705   */\n  swap1\n  pop\n    /* \"#utility.yul\":1651:1711   */\n  swap2\n  swap1\n  pop\n  jump\t// out\n    /* \"#utility.yul\":1717:1859   */\ntag_20:\n    /* \"#utility.yul\":1767:1776   */\n  0x00\n    /* \"#utility.yul\":1800:1853   */\n  tag_47\n    /* \"#utility.yul\":1818:1852   */\n  tag_48\n    /* \"#utility.yul\":1827:1851   */\n  tag_49\n    /* \"#utility.yul\":1845:1850   */\n  dup5\n    /* \"#utility.yul\":1827:1851   */\n  tag_18\n  jump\t// in\ntag_49:\n    /* \"#utility.yul\":1818:1852   */\n  tag_19\n  jump\t// in\ntag_48:\n    /* \"#utility.yul\":1800:1853   */\n  tag_18\n  jump\t// in\ntag_47:\n    /* \"#utility.yul\":1787:1853   */\n  swap1\n  pop\n    /* \"#utility.yul\":1717:1859   */\n  swap2\n  swap1\n  pop\n  jump\t// out\n    /* \"#utility.yul\":1865:1940   */\ntag_21:\n    /* \"#utility.yul\":1908:1911   */\n  0x00\n    /* \"#utility.yul\":1929:1934   */\n  dup2\n    /* \"#utility.yul\":1922:1934   */\n  swap1\n  pop\n    /* \"#utility.yul\":1865:1940   */\n  swap2\n  swap1\n  pop\n  jump\t// out\n    /* \"#utility.yul\":1946:2215   */\ntag_22:\n    /* \"#utility.yul\":2056:2095   */\n  tag_52\n    /* \"#utility.yul\":2087:2094   */\n  dup4\n    /* \"#utility.yul\":2056:2095   */\n  tag_20\n  jump\t// in\ntag_52:\n    /* \"#utility.yul\":2117:2208   */\n  tag_53\n    /* \"#utility.yul\":2166:2207   */\n  tag_54\n    /* \"#utility.yul\":2190:2206   */\n  dup3\n    /* \"#utility.yul\":2166:2207   */\n  tag_21\n  jump\t// in\ntag_54:\n    /* \"#utility.yul\":2158:2164   */\n  dup5\n    /* \"#utility.yul\":2151:2155   */\n  dup5\n    /* \"#utility.yul\":2145:2156   */\n  sload\n    /* \"#utility.yul\":2117:2208   */\n  tag_17\n  jump\t// in\ntag_53:\n    /* \"#utility.yul\":2111:2115   */\n  dup3\n    /* \"#utility.yul\":2104:2209   */\n  sstore\n    /* \"#utility.yul\":2022:2215   */\n  pop\n    /* \"#utility.yul\":1946:2215   */\n  pop\n  pop\n  pop\n  jump\t// out\n    /* \"#utility.yul\":2221:2294   */\ntag_23:\n    /* \"#utility.yul\":2266:2269   */\n  0x00\n    /* \"#utility.yul\":2221:2294   */\n  swap1\n  jump\t// out\n    /* \"#utility.yul\":2300:2489   */\ntag_24:\n    /* \"#utility.yul\":2377:2409   */\n  tag_57\n  tag_23\n  jump\t// in\ntag_57:\n    /* \"#utility.yul\":2418:2483   */\n  tag_58\n    /* \"#utility.yul\":2476:2482   */\n  dup2\n    /* \"#utility.yul\":2468:2474   */\n  dup5\n    /* \"#utility.yul\":2462:2466   */\n  dup5\n    /* \"#utility.yul\":2418:2483   */\n  tag_22\n  jump\t// in\ntag_58:\n    /* \"#utility.yul\":2353:2489   */\n  pop\n    /* \"#utility.yul\":2300:2489   */\n  pop\n  pop\n  jump\t// out\n    /* \"#utility.yul\":2495:2681   */\ntag_25:\n    /* \"#utility.yul\":2555:2675   */\ntag_60:\n    /* \"#utility.yul\":2572:2575   */\n  dup2\n    /* \"#utility.yul\":2565:2570   */\n  dup2\n    /* \"#utility.yul\":2562:2576   */\n  lt\n    /* \"#utility.yul\":2555:2675   */\n  iszero\n  tag_62\n  jumpi\n    /* \"#utility.yul\":2626:2665   */\n  tag_63\n    /* \"#utility.yul\":2663:2664   */\n  0x00\n    /* \"#utility.yul\":2656:2661   */\n  dup3\n    /* \"#utility.yul\":2626:2665   */\n  tag_24\n  jump\t// in\ntag_63:\n    /* \"#utility.yul\":2599:2600   */\n  0x01\n    /* \"#utility.yul\":2592:2597   */\n  dup2\n    /* \"#utility.yul\":2588:2601   */\n  add\n    /* \"#utility.yul\":2579:2601   */\n  swap1\n  pop\n    /* \"#utility.yul\":2555:2675   */\n  jump(tag_60)\ntag_62:\n    /* \"#utility.yul\":2495:2681   */\n  pop\n  pop\n  jump\t// out\n    /* \"#utility.yul\":2687:3230   */\ntag_26:\n    /* \"#utility.yul\":2788:2790   */\n  0x1f\n    /* \"#utility.yul\":2783:2786   */\n  dup3\n    /* \"#utility.yul\":2780:2791   */\n  gt\n    /* \"#utility.yul\":2777:3223   */\n  iszero\n  tag_65\n  jumpi\n    /* \"#utility.yul\":2822:2860   */\n  tag_66\n    /* \"#utility.yul\":2854:2859   */\n  dup2\n    /* \"#utility.yul\":2822:2860   */\n  tag_14\n  jump\t// in\ntag_66:\n    /* \"#utility.yul\":2906:2935   */\n  tag_67\n    /* \"#utility.yul\":2924:2934   */\n  dup5\n    /* \"#utility.yul\":2906:2935   */\n  tag_15\n  jump\t// in\ntag_67:\n    /* \"#utility.yul\":2896:2904   */\n  dup2\n    /* \"#utility.yul\":2892:2936   */\n  add\n    /* \"#utility.yul\":3089:3091   */\n  0x20\n    /* \"#utility.yul\":3077:3087   */\n  dup6\n    /* \"#utility.yul\":3074:3092   */\n  lt\n    /* \"#utility.yul\":3071:3120   */\n  iszero\n  tag_68\n  jumpi\n    /* \"#utility.yul\":3110:3118   */\n  dup2\n    /* \"#utility.yul\":3095:3118   */\n  swap1\n  pop\n    /* \"#utility.yul\":3071:3120   */\ntag_68:\n    /* \"#utility.yul\":3133:3213   */\n  tag_69\n    /* \"#utility.yul\":3189:3211   */\n  tag_70\n    /* \"#utility.yul\":3207:3210   */\n  dup6\n    /* \"#utility.yul\":3189:3211   */\n  tag_15\n  jump\t// in\ntag_70:\n    /* \"#utility.yul\":3179:3187   */\n  dup4\n    /* \"#utility.yul\":3175:3212   */\n  add\n    /* \"#utility.yul\":3162:3173   */\n  dup3\n    /* \"#utility.yul\":3133:3213   */\n  tag_25\n  jump\t// in\ntag_69:\n    /* \"#utility.yul\":2792:3223   */\n  pop\n  pop\n    /* \"#utility.yul\":2777:3223   */\ntag_65:\n    /* \"#utility.yul\":2687:3230   */\n  pop\n  pop\n  pop\n  jump\t// out\n    /* \"#utility.yul\":3236:3353   */\ntag_27:\n    /* \"#utility.yul\":3290:3298   */\n  0x00\n    /* \"#utility.yul\":3340:3345   */\n  dup3\n    /* \"#utility.yul\":3334:3338   */\n  dup3\n    /* \"#utility.yul\":3330:3346   */\n  shr\n    /* \"#utility.yul\":3309:3346   */\n  swap1\n  pop\n    /* \"#utility.yul\":3236:3353   */\n  swap3\n  swap2\n  pop\n  pop\n  jump\t// out\n    /* \"#utility.yul\":3359:3528   */\ntag_28:\n    /* \"#utility.yul\":3403:3409   */\n  0x00\n    /* \"#utility.yul\":3436:3487   */\n  tag_73\n    /* \"#utility.yul\":3484:3485   */\n  0x00\n    /* \"#utility.yul\":3480:3486   */\n  not\n    /* \"#utility.yul\":3472:3477   */\n  dup5\n    /* \"#utility.yul\":3469:3470   */\n  0x08\n    /* \"#utility.yul\":3465:3478   */\n  mul\n    /* \"#utility.yul\":3436:3487   */\n  tag_27\n  jump\t// in\ntag_73:\n    /* \"#utility.yul\":3432:3488   */\n  not\n    /* \"#utility.yul\":3517:3521   */\n  dup1\n    /* \"#utility.yul\":3511:3515   */\n  dup4\n    /* \"#utility.yul\":3507:3522   */\n  and\n    /* \"#utility.yul\":3497:3522   */\n  swap2\n  pop\n    /* \"#utility.yul\":3410:3528   */\n  pop\n    /* \"#utility.yul\":3359:3528   */\n  swap3\n  swap2\n  pop\n  pop\n  jump\t// out\n    /* \"#utility.yul\":3533:3828   */\ntag_29:\n    /* \"#utility.yul\":3609:3613   */\n  0x00\n    /* \"#utility.yul\":3755:3784   */\n  tag_75\n    /* \"#utility.yul\":3780:3783   */\n  dup4\n    /* \"#utility.yul\":3774:3778   */\n  dup4\n    /* \"#utility.yul\":3755:3784   */\n  tag_28\n  jump\t// in\ntag_75:\n    /* \"#utility.yul\":3747:3784   */\n  swap2\n  pop\n    /* \"#utility.yul\":3817:3820   */\n  dup3\n    /* \"#utility.yul\":3814:3815   */\n  0x02\n    /* \"#utility.yul\":3810:3821   */\n  mul\n    /* \"#utility.yul\":3804:3808   */\n  dup3\n    /* \"#utility.yul\":3801:3822   */\n  or\n    /* \"#utility.yul\":3793:3822   */\n  swap1\n  pop\n    /* \"#utility.yul\":3533:3828   */\n  swap3\n  swap2\n  pop\n  pop\n  jump\t// out\n    /* \"#utility.yul\":3833:5228   */\ntag_6:\n    /* \"#utility.yul\":3950:3987   */\n  tag_77\n    /* \"#utility.yul\":3983:3986   */\n  dup3\n    /* \"#utility.yul\":3950:3987   */\n  tag_10\n  jump\t// in\ntag_77:\n    /* \"#utility.yul\":4052:4070   */\n  0xffffffffffffffff\n    /* \"#utility.yul\":4044:4050   */\n  dup2\n    /* \"#utility.yul\":4041:4071   */\n  gt\n    /* \"#utility.yul\":4038:4094   */\n  iszero\n  tag_78\n  jumpi\n    /* \"#utility.yul\":4074:4092   */\n  tag_79\n  tag_11\n  jump\t// in\ntag_79:\n    /* \"#utility.yul\":4038:4094   */\ntag_78:\n    /* \"#utility.yul\":4118:4156   */\n  tag_80\n    /* \"#utility.yul\":4150:4154   */\n  dup3\n    /* \"#utility.yul\":4144:4155   */\n  sload\n    /* \"#utility.yul\":4118:4156   */\n  tag_13\n  jump\t// in\ntag_80:\n    /* \"#utility.yul\":4203:4270   */\n  tag_81\n    /* \"#utility.yul\":4263:4269   */\n  dup3\n    /* \"#utility.yul\":4255:4261   */\n  dup3\n    /* \"#utility.yul\":4249:4253   */\n  dup6\n    /* \"#utility.yul\":4203:4270   */\n  tag_26\n  jump\t// in\ntag_81:\n    /* \"#utility.yul\":4297:4298   */\n  0x00\n    /* \"#utility.yul\":4321:4325   */\n  0x20\n    /* \"#utility.yul\":4308:4325   */\n  swap1\n  pop\n    /* \"#utility.yul\":4353:4355   */\n  0x1f\n    /* \"#utility.yul\":4345:4351   */\n  dup4\n    /* \"#utility.yul\":4342:4356   */\n  gt\n    /* \"#utility.yul\":4370:4371   */\n  0x01\n    /* \"#utility.yul\":4365:4983   */\n  dup2\n  eq\n  tag_83\n  jumpi\n    /* \"#utility.yul\":5027:5028   */\n  0x00\n    /* \"#utility.yul\":5044:5050   */\n  dup5\n    /* \"#utility.yul\":5041:5118   */\n  iszero\n  tag_84\n  jumpi\n    /* \"#utility.yul\":5093:5102   */\n  dup3\n    /* \"#utility.yul\":5088:5091   */\n  dup8\n    /* \"#utility.yul\":5084:5103   */\n  add\n    /* \"#utility.yul\":5078:5104   */\n  mload\n    /* \"#utility.yul\":5069:5104   */\n  swap1\n  pop\n    /* \"#utility.yul\":5041:5118   */\ntag_84:\n    /* \"#utility.yul\":5144:5211   */\n  tag_85\n    /* \"#utility.yul\":5204:5210   */\n  dup6\n    /* \"#utility.yul\":5197:5202   */\n  dup3\n    /* \"#utility.yul\":5144:5211   */\n  tag_29\n  jump\t// in\ntag_85:\n    /* \"#utility.yul\":5138:5142   */\n  dup7\n    /* \"#utility.yul\":5131:5212   */\n  sstore\n    /* \"#utility.yul\":5000:5222   */\n  pop\n    /* \"#utility.yul\":4335:5222   */\n  jump(tag_82)\n    /* \"#utility.yul\":4365:4983   */\ntag_83:\n    /* \"#utility.yul\":4417:4421   */\n  0x1f\n    /* \"#utility.yul\":4413:4422   */\n  not\n    /* \"#utility.yul\":4405:4411   */\n  dup5\n    /* \"#utility.yul\":4401:4423   */\n  and\n    /* \"#utility.yul\":4451:4488   */\n  tag_86\n    /* \"#utility.yul\":4483:4487   */\n  dup7\n    /* \"#utility.yul\":4451:4488   */\n  tag_14\n  jump\t// in\ntag_86:\n    /* \"#utility.yul\":4510:4511   */\n  0x00\n    /* \"#utility.yul\":4524:4732   */\ntag_87:\n    /* \"#utility.yul\":4538:4545   */\n  dup3\n    /* \"#utility.yul\":4535:4536   */\n  dup2\n    /* \"#utility.yul\":4532:4546   */\n  lt\n    /* \"#utility.yul\":4524:4732   */\n  iszero\n  tag_89\n  jumpi\n    /* \"#utility.yul\":4617:4626   */\n  dup5\n    /* \"#utility.yul\":4612:4615   */\n  dup10\n    /* \"#utility.yul\":4608:4627   */\n  add\n    /* \"#utility.yul\":4602:4628   */\n  mload\n    /* \"#utility.yul\":4594:4600   */\n  dup3\n    /* \"#utility.yul\":4587:4629   */\n  sstore\n    /* \"#utility.yul\":4668:4669   */\n  0x01\n    /* \"#utility.yul\":4660:4666   */\n  dup3\n    /* \"#utility.yul\":4656:4670   */\n  add\n    /* \"#utility.yul\":4646:4670   */\n  swap2\n  pop\n    /* \"#utility.yul\":4715:4717   */\n  0x20\n    /* \"#utility.yul\":4704:4713   */\n  dup6\n    /* \"#utility.yul\":4700:4718   */\n  add\n    /* \"#utility.yul\":4687:4718   */\n  swap5\n  pop\n    /* \"#utility.yul\":4561:4565   */\n  0x20\n    /* \"#utility.yul\":4558:4559   */\n  dup2\n    /* \"#utility.yul\":4554:4566   */\n  add\n    /* \"#utility.yul\":4549:4566   */\n  swap1\n  pop\n    /* \"#utility.yul\":4524:4732   */\n  jump(tag_87)\ntag_89:\n    /* \"#utility.yul\":4760:4766   */\n  dup7\n    /* \"#utility.yul\":4751:4758   */\n  dup4\n    /* \"#utility.yul\":4748:4767   */\n  lt\n    /* \"#utility.yul\":4745:4924   */\n  iszero\n  tag_90\n  jumpi\n    /* \"#utility.yul\":4818:4827   */\n  dup5\n    /* \"#utility.yul\":4813:4816   */\n  dup10\n    /* \"#utility.yul\":4809:4828   */\n  add\n    /* \"#utility.yul\":4803:4829   */\n  mload\n    /* \"#utility.yul\":4861:4909   */\n  tag_91\n    /* \"#utility.yul\":4903:4907   */\n  0x1f\n    /* \"#utility.yul\":4895:4901   */\n  dup10\n    /* \"#utility.yul\":4891:4908   */\n  and\n    /* \"#utility.yul\":4880:4889   */\n  dup3\n    /* \"#utility.yul\":4861:4909   */\n  tag_28\n  jump\t// in\ntag_91:\n    /* \"#utility.yul\":4853:4859   */\n  dup4\n    /* \"#utility.yul\":4846:4910   */\n  sstore\n    /* \"#utility.yul\":4768:4924   */\n  pop\n    /* \"#utility.yul\":4745:4924   */\ntag_90:\n    /* \"#utility.yul\":4970:4971   */\n  0x01\n    /* \"#utility.yul\":4966:4967   */\n  0x02\n    /* \"#utility.yul\":4958:4964   */\n  dup9\n    /* \"#utility.yul\":4954:4968   */\n  mul\n    /* \"#utility.yul\":4950:4972   */\n  add\n    /* \"#utility.yul\":4944:4948   */\n  dup9\n    /* \"#utility.yul\":4937:4973   */\n  sstore\n    /* \"#utility.yul\":4372:4983   */\n  pop\n  pop\n  pop\n    /* \"#utility.yul\":4335:5222   */\ntag_82:\n  pop\n    /* \"#utility.yul\":3925:5228   */\n  pop\n  pop\n  pop\n    /* \"#utility.yul\":3833:5228   */\n  pop\n  pop\n  jump\t// out\n    /* \"src/Credit_Token/CreditToken.sol\":80:1566  contract CreditScore is ERC20 {... */\ntag_9:\n  dataSize(sub_0)\n  dup1\n  dataOffset(sub_0)\n  0x00\n  codecopy\n  0x00\n  return\nstop\n\nsub_0: assembly {\n        /* \"src/Credit_Token/CreditToken.sol\":80:1566  contract CreditScore is ERC20 {... */\n      mstore(0x40, 0x80)\n      callvalue\n      dup1\n      iszero\n      tag_1\n      jumpi\n      0x00\n      dup1\n      revert\n    tag_1:\n      pop\n      jumpi(tag_2, lt(calldatasize, 0x04))\n      shr(0xe0, calldataload(0x00))\n      dup1\n      0x40c10f19\n      gt\n      tag_16\n      jumpi\n      dup1\n      0x9dc29fac\n      gt\n      tag_17\n      jumpi\n      dup1\n      0x9dc29fac\n      eq\n      tag_12\n      jumpi\n      dup1\n      0xa9059cbb\n      eq\n      tag_13\n      jumpi\n      dup1\n      0xdd62ed3e\n      eq\n      tag_14\n      jumpi\n      dup1\n      0xf9da1913\n      eq\n      tag_15\n      jumpi\n      jump(tag_2)\n    tag_17:\n      dup1\n      0x40c10f19\n      eq\n      tag_9\n      jumpi\n      dup1\n      0x70a08231\n      eq\n      tag_10\n      jumpi\n      dup1\n      0x95d89b41\n      eq\n      tag_11\n      jumpi\n      jump(tag_2)\n    tag_16:\n      dup1\n      0x03ce50fa\n      eq\n      tag_3\n      jumpi\n      dup1\n      0x06fdde03\n      eq\n      tag_4\n      jumpi\n      dup1\n      0x095ea7b3\n      eq\n      tag_5\n      jumpi\n      dup1\n      0x18160ddd\n      eq\n      tag_6\n      jumpi\n      dup1\n      0x23b872dd\n      eq\n      tag_7\n      jumpi\n      dup1\n      0x313ce567\n      eq\n      tag_8\n      jumpi\n    tag_2:\n      0x00\n      dup1\n      revert\n        /* \"src/Credit_Token/CreditToken.sol\":617:1204  function revokeMintAccess(address[] memory _contracts) external {... */\n    tag_3:\n      tag_18\n      0x04\n      dup1\n      calldatasize\n      sub\n      dup2\n      add\n      swap1\n      tag_19\n      swap2\n      swap1\n      tag_20\n      jump\t// in\n    tag_19:\n      tag_21\n      jump\t// in\n    tag_18:\n      stop\n        /* \"src/Credit_Token/ERC20.sol\":439:457  string public name */\n    tag_4:\n      tag_22\n      tag_23\n      jump\t// in\n    tag_22:\n      mload(0x40)\n      tag_24\n      swap2\n      swap1\n      tag_25\n      jump\t// in\n    tag_24:\n      mload(0x40)\n      dup1\n      swap2\n      sub\n      swap1\n      return\n        /* \"src/Credit_Token/ERC20.sol\":947:1150  function approve(address spender, uint256 amount) external returns (bool) {... */\n    tag_5:\n      tag_26\n      0x04\n      dup1\n      calldatasize\n      sub\n      dup2\n      add\n      swap1\n      tag_27\n      swap2\n      swap1\n      tag_28\n      jump\t// in\n    tag_27:\n      tag_29\n      jump\t// in\n    tag_26:\n      mload(0x40)\n      tag_30\n      swap2\n      swap1\n      tag_31\n      jump\t// in\n    tag_30:\n      mload(0x40)\n      dup1\n      swap2\n      sub\n      swap1\n      return\n        /* \"src/Credit_Token/ERC20.sol\":287:313  uint256 public totalSupply */\n    tag_6:\n      tag_32\n      tag_33\n      jump\t// in\n    tag_32:\n      mload(0x40)\n      tag_34\n      swap2\n      swap1\n      tag_35\n      jump\t// in\n    tag_34:\n      mload(0x40)\n      dup1\n      swap2\n      sub\n      swap1\n      return\n        /* \"src/Credit_Token/ERC20.sol\":1156:1477  function transferFrom(address sender, address recipient, uint256 amount)... */\n    tag_7:\n      tag_36\n      0x04\n      dup1\n      calldatasize\n      sub\n      dup2\n      add\n      swap1\n      tag_37\n      swap2\n      swap1\n      tag_38\n      jump\t// in\n    tag_37:\n      tag_39\n      jump\t// in\n    tag_36:\n      mload(0x40)\n      tag_40\n      swap2\n      swap1\n      tag_31\n      jump\t// in\n    tag_40:\n      mload(0x40)\n      dup1\n      swap2\n      sub\n      swap1\n      return\n        /* \"src/Credit_Token/ERC20.sol\":489:510  uint8 public decimals */\n    tag_8:\n      tag_41\n      tag_42\n      jump\t// in\n    tag_41:\n      mload(0x40)\n      tag_43\n      swap2\n      swap1\n      tag_44\n      jump\t// in\n    tag_43:\n      mload(0x40)\n      dup1\n      swap2\n      sub\n      swap1\n      return\n        /* \"src/Credit_Token/CreditToken.sol\":1211:1384  function mint(address _to, uint256 _amount) external override {... */\n    tag_9:\n      tag_45\n      0x04\n      dup1\n      calldatasize\n      sub\n      dup2\n      add\n      swap1\n      tag_46\n      swap2\n      swap1\n      tag_28\n      jump\t// in\n    tag_46:\n      tag_47\n      jump\t// in\n    tag_45:\n      stop\n        /* \"src/Credit_Token/ERC20.sol\":319:363  mapping(address => uint256) public balanceOf */\n    tag_10:\n      tag_48\n      0x04\n      dup1\n      calldatasize\n      sub\n      dup2\n      add\n      swap1\n      tag_49\n      swap2\n      swap1\n      tag_50\n      jump\t// in\n    tag_49:\n      tag_51\n      jump\t// in\n    tag_48:\n      mload(0x40)\n      tag_52\n      swap2\n      swap1\n      tag_35\n      jump\t// in\n    tag_52:\n      mload(0x40)\n      dup1\n      swap2\n      sub\n      swap1\n      return\n        /* \"src/Credit_Token/ERC20.sol\":463:483  string public symbol */\n    tag_11:\n      tag_53\n      tag_54\n      jump\t// in\n    tag_53:\n      mload(0x40)\n      tag_55\n      swap2\n      swap1\n      tag_25\n      jump\t// in\n    tag_55:\n      mload(0x40)\n      dup1\n      swap2\n      sub\n      swap1\n      return\n        /* \"src/Credit_Token/CreditToken.sol\":1390:1563  function burn(address _to, uint256 _amount) external override {... */\n    tag_12:\n      tag_56\n      0x04\n      dup1\n      calldatasize\n      sub\n      dup2\n      add\n      swap1\n      tag_57\n      swap2\n      swap1\n      tag_28\n      jump\t// in\n    tag_57:\n      tag_58\n      jump\t// in\n    tag_56:\n      stop\n        /* \"src/Credit_Token/ERC20.sol\":681:941  function transfer(address recipient, uint256 amount)... */\n    tag_13:\n      tag_59\n      0x04\n      dup1\n      calldatasize\n      sub\n      dup2\n      add\n      swap1\n      tag_60\n      swap2\n      swap1\n      tag_28\n      jump\t// in\n    tag_60:\n      tag_61\n      jump\t// in\n    tag_59:\n      mload(0x40)\n      tag_62\n      swap2\n      swap1\n      tag_31\n      jump\t// in\n    tag_62:\n      mload(0x40)\n      dup1\n      swap2\n      sub\n      swap1\n      return\n        /* \"src/Credit_Token/ERC20.sol\":369:433  mapping(address => mapping(address => uint256)) public allowance */\n    tag_14:\n      tag_63\n      0x04\n      dup1\n      calldatasize\n      sub\n      dup2\n      add\n      swap1\n      tag_64\n      swap2\n      swap1\n      tag_65\n      jump\t// in\n    tag_64:\n      tag_66\n      jump\t// in\n    tag_63:\n      mload(0x40)\n      tag_67\n      swap2\n      swap1\n      tag_35\n      jump\t// in\n    tag_67:\n      mload(0x40)\n      dup1\n      swap2\n      sub\n      swap1\n      return\n        /* \"src/Credit_Token/CreditToken.sol\":317:611  function giveMintAccess(address[] memory _contracts) external {... */\n    tag_15:\n      tag_68\n      0x04\n      dup1\n      calldatasize\n      sub\n      dup2\n      add\n      swap1\n      tag_69\n      swap2\n      swap1\n      tag_20\n      jump\t// in\n    tag_69:\n      tag_70\n      jump\t// in\n    tag_68:\n      stop\n        /* \"src/Credit_Token/CreditToken.sol\":617:1204  function revokeMintAccess(address[] memory _contracts) external {... */\n    tag_21:\n        /* \"src/Credit_Token/CreditToken.sol\":713:718  owner */\n      0x05\n      0x01\n      swap1\n      sload\n      swap1\n      0x0100\n      exp\n      swap1\n      div\n      0xffffffffffffffffffffffffffffffffffffffff\n      and\n        /* \"src/Credit_Token/CreditToken.sol\":699:718  msg.sender == owner */\n      0xffffffffffffffffffffffffffffffffffffffff\n      and\n        /* \"src/Credit_Token/CreditToken.sol\":699:709  msg.sender */\n      caller\n        /* \"src/Credit_Token/CreditToken.sol\":699:718  msg.sender == owner */\n      0xffffffffffffffffffffffffffffffffffffffff\n      and\n      eq\n        /* \"src/Credit_Token/CreditToken.sol\":691:732  require(msg.sender == owner, \"NOT_OWNER\") */\n      tag_72\n      jumpi\n      mload(0x40)\n      0x08c379a000000000000000000000000000000000000000000000000000000000\n      dup2\n      mstore\n      0x04\n      add\n      tag_73\n      swap1\n      tag_74\n      jump\t// in\n    tag_73:\n      mload(0x40)\n      dup1\n      swap2\n      sub\n      swap1\n      revert\n    tag_72:\n        /* \"src/Credit_Token/CreditToken.sol\":747:756  uint256 i */\n      0x00\n        /* \"src/Credit_Token/CreditToken.sol\":742:1198  for (uint256 i = 0; i < _contracts.length; i++) {... */\n    tag_75:\n        /* \"src/Credit_Token/CreditToken.sol\":766:776  _contracts */\n      dup2\n        /* \"src/Credit_Token/CreditToken.sol\":766:783  _contracts.length */\n      mload\n        /* \"src/Credit_Token/CreditToken.sol\":762:763  i */\n      dup2\n        /* \"src/Credit_Token/CreditToken.sol\":762:783  i < _contracts.length */\n      lt\n        /* \"src/Credit_Token/CreditToken.sol\":742:1198  for (uint256 i = 0; i < _contracts.length; i++) {... */\n      iszero\n      tag_76\n      jumpi\n        /* \"src/Credit_Token/CreditToken.sol\":838:843  false */\n      0x00\n        /* \"src/Credit_Token/CreditToken.sol\":804:820  allowedContracts */\n      0x06\n        /* \"src/Credit_Token/CreditToken.sol\":804:835  allowedContracts[_contracts[i]] */\n      0x00\n        /* \"src/Credit_Token/CreditToken.sol\":821:831  _contracts */\n      dup5\n        /* \"src/Credit_Token/CreditToken.sol\":832:833  i */\n      dup5\n        /* \"src/Credit_Token/CreditToken.sol\":821:834  _contracts[i] */\n      dup2\n      mload\n      dup2\n      lt\n      tag_78\n      jumpi\n      tag_79\n      tag_80\n      jump\t// in\n    tag_79:\n    tag_78:\n      0x20\n      mul\n      0x20\n      add\n      add\n      mload\n        /* \"src/Credit_Token/CreditToken.sol\":804:835  allowedContracts[_contracts[i]] */\n      0xffffffffffffffffffffffffffffffffffffffff\n      and\n      0xffffffffffffffffffffffffffffffffffffffff\n      and\n      dup2\n      mstore\n      0x20\n      add\n      swap1\n      dup2\n      mstore\n      0x20\n      add\n      0x00\n      keccak256\n      0x00\n        /* \"src/Credit_Token/CreditToken.sol\":804:843  allowedContracts[_contracts[i]] = false */\n      0x0100\n      exp\n      dup2\n      sload\n      dup2\n      0xff\n      mul\n      not\n      and\n      swap1\n      dup4\n      iszero\n      iszero\n      mul\n      or\n      swap1\n      sstore\n      pop\n        /* \"src/Credit_Token/CreditToken.sol\":862:871  uint256 j */\n      0x00\n        /* \"src/Credit_Token/CreditToken.sol\":857:1188  for (uint256 j = 0; j < allowedContractsList.length; j++) {... */\n    tag_81:\n        /* \"src/Credit_Token/CreditToken.sol\":881:901  allowedContractsList */\n      0x07\n        /* \"src/Credit_Token/CreditToken.sol\":881:908  allowedContractsList.length */\n      dup1\n      sload\n      swap1\n      pop\n        /* \"src/Credit_Token/CreditToken.sol\":877:878  j */\n      dup2\n        /* \"src/Credit_Token/CreditToken.sol\":877:908  j < allowedContractsList.length */\n      lt\n        /* \"src/Credit_Token/CreditToken.sol\":857:1188  for (uint256 j = 0; j < allowedContractsList.length; j++) {... */\n      iszero\n      tag_82\n      jumpi\n        /* \"src/Credit_Token/CreditToken.sol\":964:974  _contracts */\n      dup3\n        /* \"src/Credit_Token/CreditToken.sol\":975:976  i */\n      dup3\n        /* \"src/Credit_Token/CreditToken.sol\":964:977  _contracts[i] */\n      dup2\n      mload\n      dup2\n      lt\n      tag_84\n      jumpi\n      tag_85\n      tag_80\n      jump\t// in\n    tag_85:\n    tag_84:\n      0x20\n      mul\n      0x20\n      add\n      add\n      mload\n        /* \"src/Credit_Token/CreditToken.sol\":937:977  allowedContractsList[j] == _contracts[i] */\n      0xffffffffffffffffffffffffffffffffffffffff\n      and\n        /* \"src/Credit_Token/CreditToken.sol\":937:957  allowedContractsList */\n      0x07\n        /* \"src/Credit_Token/CreditToken.sol\":958:959  j */\n      dup3\n        /* \"src/Credit_Token/CreditToken.sol\":937:960  allowedContractsList[j] */\n      dup2\n      sload\n      dup2\n      lt\n      tag_86\n      jumpi\n      tag_87\n      tag_80\n      jump\t// in\n    tag_87:\n    tag_86:\n      swap1\n      0x00\n      mstore\n      keccak256(0x00, 0x20)\n      add\n      0x00\n      swap1\n      sload\n      swap1\n      0x0100\n      exp\n      swap1\n      div\n      0xffffffffffffffffffffffffffffffffffffffff\n      and\n        /* \"src/Credit_Token/CreditToken.sol\":937:977  allowedContractsList[j] == _contracts[i] */\n      0xffffffffffffffffffffffffffffffffffffffff\n      and\n      sub\n        /* \"src/Credit_Token/CreditToken.sol\":933:1174  if (allowedContractsList[j] == _contracts[i]) {... */\n      tag_89\n      jumpi\n        /* \"src/Credit_Token/CreditToken.sol\":1027:1047  allowedContractsList */\n      0x07\n        /* \"src/Credit_Token/CreditToken.sol\":1078:1079  1 */\n      0x01\n        /* \"src/Credit_Token/CreditToken.sol\":1048:1068  allowedContractsList */\n      0x07\n        /* \"src/Credit_Token/CreditToken.sol\":1048:1075  allowedContractsList.length */\n      dup1\n      sload\n      swap1\n      pop\n        /* \"src/Credit_Token/CreditToken.sol\":1048:1079  allowedContractsList.length - 1 */\n      tag_90\n      swap2\n      swap1\n      tag_91\n      jump\t// in\n    tag_90:\n        /* \"src/Credit_Token/CreditToken.sol\":1027:1080  allowedContractsList[allowedContractsList.length - 1] */\n      dup2\n      sload\n      dup2\n      lt\n      tag_92\n      jumpi\n      tag_93\n      tag_80\n      jump\t// in\n    tag_93:\n    tag_92:\n      swap1\n      0x00\n      mstore\n      keccak256(0x00, 0x20)\n      add\n      0x00\n      swap1\n      sload\n      swap1\n      0x0100\n      exp\n      swap1\n      div\n      0xffffffffffffffffffffffffffffffffffffffff\n      and\n        /* \"src/Credit_Token/CreditToken.sol\":1001:1021  allowedContractsList */\n      0x07\n        /* \"src/Credit_Token/CreditToken.sol\":1022:1023  j */\n      dup3\n        /* \"src/Credit_Token/CreditToken.sol\":1001:1024  allowedContractsList[j] */\n      dup2\n      sload\n      dup2\n      lt\n      tag_95\n      jumpi\n      tag_96\n      tag_80\n      jump\t// in\n    tag_96:\n    tag_95:\n      swap1\n      0x00\n      mstore\n      keccak256(0x00, 0x20)\n      add\n      0x00\n        /* \"src/Credit_Token/CreditToken.sol\":1001:1080  allowedContractsList[j] = allowedContractsList[allowedContractsList.length - 1] */\n      0x0100\n      exp\n      dup2\n      sload\n      dup2\n      0xffffffffffffffffffffffffffffffffffffffff\n      mul\n      not\n      and\n      swap1\n      dup4\n      0xffffffffffffffffffffffffffffffffffffffff\n      and\n      mul\n      or\n      swap1\n      sstore\n      pop\n        /* \"src/Credit_Token/CreditToken.sol\":1102:1122  allowedContractsList */\n      0x07\n        /* \"src/Credit_Token/CreditToken.sol\":1102:1128  allowedContractsList.pop() */\n      dup1\n      sload\n      dup1\n      tag_98\n      jumpi\n      tag_99\n      tag_100\n      jump\t// in\n    tag_99:\n    tag_98:\n      0x01\n      swap1\n      sub\n      dup2\n      dup2\n      swap1\n      0x00\n      mstore\n      keccak256(0x00, 0x20)\n      add\n      exp(0x0100, 0x00)\n      dup2\n      sload\n      swap1\n      0xffffffffffffffffffffffffffffffffffffffff\n      mul\n      not\n      and\n      swap1\n      sstore\n      swap1\n      sstore\n        /* \"src/Credit_Token/CreditToken.sol\":1150:1155  break */\n      jump(tag_82)\n        /* \"src/Credit_Token/CreditToken.sol\":933:1174  if (allowedContractsList[j] == _contracts[i]) {... */\n    tag_89:\n        /* \"src/Credit_Token/CreditToken.sol\":910:913  j++ */\n      dup1\n      dup1\n      tag_102\n      swap1\n      tag_103\n      jump\t// in\n    tag_102:\n      swap2\n      pop\n      pop\n        /* \"src/Credit_Token/CreditToken.sol\":857:1188  for (uint256 j = 0; j < allowedContractsList.length; j++) {... */\n      jump(tag_81)\n    tag_82:\n      pop\n        /* \"src/Credit_Token/CreditToken.sol\":785:788  i++ */\n      dup1\n      dup1\n      tag_104\n      swap1\n      tag_103\n      jump\t// in\n    tag_104:\n      swap2\n      pop\n      pop\n        /* \"src/Credit_Token/CreditToken.sol\":742:1198  for (uint256 i = 0; i < _contracts.length; i++) {... */\n      jump(tag_75)\n    tag_76:\n      pop\n        /* \"src/Credit_Token/CreditToken.sol\":617:1204  function revokeMintAccess(address[] memory _contracts) external {... */\n      pop\n      jump\t// out\n        /* \"src/Credit_Token/ERC20.sol\":439:457  string public name */\n    tag_23:\n      0x03\n      dup1\n      sload\n      tag_105\n      swap1\n      tag_106\n      jump\t// in\n    tag_105:\n      dup1\n      0x1f\n      add\n      0x20\n      dup1\n      swap2\n      div\n      mul\n      0x20\n      add\n      mload(0x40)\n      swap1\n      dup2\n      add\n      0x40\n      mstore\n      dup1\n      swap3\n      swap2\n      swap1\n      dup2\n      dup2\n      mstore\n      0x20\n      add\n      dup3\n      dup1\n      sload\n      tag_107\n      swap1\n      tag_106\n      jump\t// in\n    tag_107:\n      dup1\n      iszero\n      tag_108\n      jumpi\n      dup1\n      0x1f\n      lt\n      tag_109\n      jumpi\n      0x0100\n      dup1\n      dup4\n      sload\n      div\n      mul\n      dup4\n      mstore\n      swap2\n      0x20\n      add\n      swap2\n      jump(tag_108)\n    tag_109:\n      dup3\n      add\n      swap2\n      swap1\n      0x00\n      mstore\n      keccak256(0x00, 0x20)\n      swap1\n    tag_110:\n      dup2\n      sload\n      dup2\n      mstore\n      swap1\n      0x01\n      add\n      swap1\n      0x20\n      add\n      dup1\n      dup4\n      gt\n      tag_110\n      jumpi\n      dup3\n      swap1\n      sub\n      0x1f\n      and\n      dup3\n      add\n      swap2\n    tag_108:\n      pop\n      pop\n      pop\n      pop\n      pop\n      dup2\n      jump\t// out\n        /* \"src/Credit_Token/ERC20.sol\":947:1150  function approve(address spender, uint256 amount) external returns (bool) {... */\n    tag_29:\n        /* \"src/Credit_Token/ERC20.sol\":1015:1019  bool */\n      0x00\n        /* \"src/Credit_Token/ERC20.sol\":1064:1070  amount */\n      dup2\n        /* \"src/Credit_Token/ERC20.sol\":1031:1040  allowance */\n      0x02\n        /* \"src/Credit_Token/ERC20.sol\":1031:1052  allowance[msg.sender] */\n      0x00\n        /* \"src/Credit_Token/ERC20.sol\":1041:1051  msg.sender */\n      caller\n        /* \"src/Credit_Token/ERC20.sol\":1031:1052  allowance[msg.sender] */\n      0xffffffffffffffffffffffffffffffffffffffff\n      and\n      0xffffffffffffffffffffffffffffffffffffffff\n      and\n      dup2\n      mstore\n      0x20\n      add\n      swap1\n      dup2\n      mstore\n      0x20\n      add\n      0x00\n      keccak256\n        /* \"src/Credit_Token/ERC20.sol\":1031:1061  allowance[msg.sender][spender] */\n      0x00\n        /* \"src/Credit_Token/ERC20.sol\":1053:1060  spender */\n      dup6\n        /* \"src/Credit_Token/ERC20.sol\":1031:1061  allowance[msg.sender][spender] */\n      0xffffffffffffffffffffffffffffffffffffffff\n      and\n      0xffffffffffffffffffffffffffffffffffffffff\n      and\n      dup2\n      mstore\n      0x20\n      add\n      swap1\n      dup2\n      mstore\n      0x20\n      add\n      0x00\n      keccak256\n        /* \"src/Credit_Token/ERC20.sol\":1031:1070  allowance[msg.sender][spender] = amount */\n      dup2\n      swap1\n      sstore\n      pop\n        /* \"src/Credit_Token/ERC20.sol\":1106:1113  spender */\n      dup3\n        /* \"src/Credit_Token/ERC20.sol\":1085:1122  Approval(msg.sender, spender, amount) */\n      0xffffffffffffffffffffffffffffffffffffffff\n      and\n        /* \"src/Credit_Token/ERC20.sol\":1094:1104  msg.sender */\n      caller\n        /* \"src/Credit_Token/ERC20.sol\":1085:1122  Approval(msg.sender, spender, amount) */\n      0xffffffffffffffffffffffffffffffffffffffff\n      and\n      0x8c5be1e5ebec7d5bd14f71427d1e84f3dd0314c0f7b2291e5b200ac8c7c3b925\n        /* \"src/Credit_Token/ERC20.sol\":1115:1121  amount */\n      dup5\n        /* \"src/Credit_Token/ERC20.sol\":1085:1122  Approval(msg.sender, spender, amount) */\n      mload(0x40)\n      tag_112\n      swap2\n      swap1\n      tag_35\n      jump\t// in\n    tag_112:\n      mload(0x40)\n      dup1\n      swap2\n      sub\n      swap1\n      log3\n        /* \"src/Credit_Token/ERC20.sol\":1139:1143  true */\n      0x01\n        /* \"src/Credit_Token/ERC20.sol\":1132:1143  return true */\n      swap1\n      pop\n        /* \"src/Credit_Token/ERC20.sol\":947:1150  function approve(address spender, uint256 amount) external returns (bool) {... */\n      swap3\n      swap2\n      pop\n      pop\n      jump\t// out\n        /* \"src/Credit_Token/ERC20.sol\":287:313  uint256 public totalSupply */\n    tag_33:\n      sload(0x00)\n      dup2\n      jump\t// out\n        /* \"src/Credit_Token/ERC20.sol\":1156:1477  function transferFrom(address sender, address recipient, uint256 amount)... */\n    tag_39:\n        /* \"src/Credit_Token/ERC20.sol\":1263:1267  bool */\n      0x00\n        /* \"src/Credit_Token/ERC20.sol\":1316:1322  amount */\n      dup2\n        /* \"src/Credit_Token/ERC20.sol\":1283:1292  allowance */\n      0x02\n        /* \"src/Credit_Token/ERC20.sol\":1283:1300  allowance[sender] */\n      0x00\n        /* \"src/Credit_Token/ERC20.sol\":1293:1299  sender */\n      dup7\n        /* \"src/Credit_Token/ERC20.sol\":1283:1300  allowance[sender] */\n      0xffffffffffffffffffffffffffffffffffffffff\n      and\n      0xffffffffffffffffffffffffffffffffffffffff\n      and\n      dup2\n      mstore\n      0x20\n      add\n      swap1\n      dup2\n      mstore\n      0x20\n      add\n      0x00\n      keccak256\n        /* \"src/Credit_Token/ERC20.sol\":1283:1312  allowance[sender][msg.sender] */\n      0x00\n        /* \"src/Credit_Token/ERC20.sol\":1301:1311  msg.sender */\n      caller\n        /* \"src/Credit_Token/ERC20.sol\":1283:1312  allowance[sender][msg.sender] */\n      0xffffffffffffffffffffffffffffffffffffffff\n      and\n      0xffffffffffffffffffffffffffffffffffffffff\n      and\n      dup2\n      mstore\n      0x20\n      add\n      swap1\n      dup2\n      mstore\n      0x20\n      add\n      0x00\n      keccak256\n      0x00\n        /* \"src/Credit_Token/ERC20.sol\":1283:1322  allowance[sender][msg.sender] -= amount */\n      dup3\n      dup3\n      sload\n      tag_114\n      swap2\n      swap1\n      tag_91\n      jump\t// in\n    tag_114:\n      swap3\n      pop\n      pop\n      dup2\n      swap1\n      sstore\n      pop\n        /* \"src/Credit_Token/ERC20.sol\":1353:1359  amount */\n      dup2\n        /* \"src/Credit_Token/ERC20.sol\":1332:1341  balanceOf */\n      0x01\n        /* \"src/Credit_Token/ERC20.sol\":1332:1349  balanceOf[sender] */\n      0x00\n        /* \"src/Credit_Token/ERC20.sol\":1342:1348  sender */\n      dup7\n        /* \"src/Credit_Token/ERC20.sol\":1332:1349  balanceOf[sender] */\n      0xffffffffffffffffffffffffffffffffffffffff\n      and\n      0xffffffffffffffffffffffffffffffffffffffff\n      and\n      dup2\n      mstore\n      0x20\n      add\n      swap1\n      dup2\n      mstore\n      0x20\n      add\n      0x00\n      keccak256\n      0x00\n        /* \"src/Credit_Token/ERC20.sol\":1332:1359  balanceOf[sender] -= amount */\n      dup3\n      dup3\n      sload\n      tag_115\n      swap2\n      swap1\n      tag_91\n      jump\t// in\n    tag_115:\n      swap3\n      pop\n      pop\n      dup2\n      swap1\n      sstore\n      pop\n        /* \"src/Credit_Token/ERC20.sol\":1393:1399  amount */\n      dup2\n        /* \"src/Credit_Token/ERC20.sol\":1369:1378  balanceOf */\n      0x01\n        /* \"src/Credit_Token/ERC20.sol\":1369:1389  balanceOf[recipient] */\n      0x00\n        /* \"src/Credit_Token/ERC20.sol\":1379:1388  recipient */\n      dup6\n        /* \"src/Credit_Token/ERC20.sol\":1369:1389  balanceOf[recipient] */\n      0xffffffffffffffffffffffffffffffffffffffff\n      and\n      0xffffffffffffffffffffffffffffffffffffffff\n      and\n      dup2\n      mstore\n      0x20\n      add\n      swap1\n      dup2\n      mstore\n      0x20\n      add\n      0x00\n      keccak256\n      0x00\n        /* \"src/Credit_Token/ERC20.sol\":1369:1399  balanceOf[recipient] += amount */\n      dup3\n      dup3\n      sload\n      tag_116\n      swap2\n      swap1\n      tag_117\n      jump\t// in\n    tag_116:\n      swap3\n      pop\n      pop\n      dup2\n      swap1\n      sstore\n      pop\n        /* \"src/Credit_Token/ERC20.sol\":1431:1440  recipient */\n      dup3\n        /* \"src/Credit_Token/ERC20.sol\":1414:1449  Transfer(sender, recipient, amount) */\n      0xffffffffffffffffffffffffffffffffffffffff\n      and\n        /* \"src/Credit_Token/ERC20.sol\":1423:1429  sender */\n      dup5\n        /* \"src/Credit_Token/ERC20.sol\":1414:1449  Transfer(sender, recipient, amount) */\n      0xffffffffffffffffffffffffffffffffffffffff\n      and\n      0xddf252ad1be2c89b69c2b068fc378daa952ba7f163c4a11628f55a4df523b3ef\n        /* \"src/Credit_Token/ERC20.sol\":1442:1448  amount */\n      dup5\n        /* \"src/Credit_Token/ERC20.sol\":1414:1449  Transfer(sender, recipient, amount) */\n      mload(0x40)\n      tag_118\n      swap2\n      swap1\n      tag_35\n      jump\t// in\n    tag_118:\n      mload(0x40)\n      dup1\n      swap2\n      sub\n      swap1\n      log3\n        /* \"src/Credit_Token/ERC20.sol\":1466:1470  true */\n      0x01\n        /* \"src/Credit_Token/ERC20.sol\":1459:1470  return true */\n      swap1\n      pop\n        /* \"src/Credit_Token/ERC20.sol\":1156:1477  function transferFrom(address sender, address recipient, uint256 amount)... */\n      swap4\n      swap3\n      pop\n      pop\n      pop\n      jump\t// out\n        /* \"src/Credit_Token/ERC20.sol\":489:510  uint8 public decimals */\n    tag_42:\n      0x05\n      0x00\n      swap1\n      sload\n      swap1\n      0x0100\n      exp\n      swap1\n      div\n      0xff\n      and\n      dup2\n      jump\t// out\n        /* \"src/Credit_Token/CreditToken.sol\":1211:1384  function mint(address _to, uint256 _amount) external override {... */\n    tag_47:\n        /* \"src/Credit_Token/CreditToken.sol\":1291:1307  allowedContracts */\n      0x06\n        /* \"src/Credit_Token/CreditToken.sol\":1291:1312  allowedContracts[_to] */\n      0x00\n        /* \"src/Credit_Token/CreditToken.sol\":1308:1311  _to */\n      dup4\n        /* \"src/Credit_Token/CreditToken.sol\":1291:1312  allowedContracts[_to] */\n      0xffffffffffffffffffffffffffffffffffffffff\n      and\n      0xffffffffffffffffffffffffffffffffffffffff\n      and\n      dup2\n      mstore\n      0x20\n      add\n      swap1\n      dup2\n      mstore\n      0x20\n      add\n      0x00\n      keccak256\n      0x00\n      swap1\n      sload\n      swap1\n      0x0100\n      exp\n      swap1\n      div\n      0xff\n      and\n        /* \"src/Credit_Token/CreditToken.sol\":1283:1337  require(allowedContracts[_to], \"Contract not allowed\") */\n      tag_120\n      jumpi\n      mload(0x40)\n      0x08c379a000000000000000000000000000000000000000000000000000000000\n      dup2\n      mstore\n      0x04\n      add\n      tag_121\n      swap1\n      tag_122\n      jump\t// in\n    tag_121:\n      mload(0x40)\n      dup1\n      swap2\n      sub\n      swap1\n      revert\n    tag_120:\n        /* \"src/Credit_Token/CreditToken.sol\":1347:1377  _mint(_to, _amount * 10 ** 18) */\n      tag_123\n        /* \"src/Credit_Token/CreditToken.sol\":1353:1356  _to */\n      dup3\n        /* \"src/Credit_Token/CreditToken.sol\":1368:1376  10 ** 18 */\n      0x0de0b6b3a7640000\n        /* \"src/Credit_Token/CreditToken.sol\":1358:1365  _amount */\n      dup4\n        /* \"src/Credit_Token/CreditToken.sol\":1358:1376  _amount * 10 ** 18 */\n      tag_124\n      swap2\n      swap1\n      tag_125\n      jump\t// in\n    tag_124:\n        /* \"src/Credit_Token/CreditToken.sol\":1347:1352  _mint */\n      tag_126\n        /* \"src/Credit_Token/CreditToken.sol\":1347:1377  _mint(_to, _amount * 10 ** 18) */\n      jump\t// in\n    tag_123:\n        /* \"src/Credit_Token/CreditToken.sol\":1211:1384  function mint(address _to, uint256 _amount) external override {... */\n      pop\n      pop\n      jump\t// out\n        /* \"src/Credit_Token/ERC20.sol\":319:363  mapping(address => uint256) public balanceOf */\n    tag_51:\n      mstore(0x20, 0x01)\n      dup1\n      0x00\n      mstore\n      keccak256(0x00, 0x40)\n      0x00\n      swap2\n      pop\n      swap1\n      pop\n      sload\n      dup2\n      jump\t// out\n        /* \"src/Credit_Token/ERC20.sol\":463:483  string public symbol */\n    tag_54:\n      0x04\n      dup1\n      sload\n      tag_127\n      swap1\n      tag_106\n      jump\t// in\n    tag_127:\n      dup1\n      0x1f\n      add\n      0x20\n      dup1\n      swap2\n      div\n      mul\n      0x20\n      add\n      mload(0x40)\n      swap1\n      dup2\n      add\n      0x40\n      mstore\n      dup1\n      swap3\n      swap2\n      swap1\n      dup2\n      dup2\n      mstore\n      0x20\n      add\n      dup3\n      dup1\n      sload\n      tag_128\n      swap1\n      tag_106\n      jump\t// in\n    tag_128:\n      dup1\n      iszero\n      tag_129\n      jumpi\n      dup1\n      0x1f\n      lt\n      tag_130\n      jumpi\n      0x0100\n      dup1\n      dup4\n      sload\n      div\n      mul\n      dup4\n      mstore\n      swap2\n      0x20\n      add\n      swap2\n      jump(tag_129)\n    tag_130:\n      dup3\n      add\n      swap2\n      swap1\n      0x00\n      mstore\n      keccak256(0x00, 0x20)\n      swap1\n    tag_131:\n      dup2\n      sload\n      dup2\n      mstore\n      swap1\n      0x01\n      add\n      swap1\n      0x20\n      add\n      dup1\n      dup4\n      gt\n      tag_131\n      jumpi\n      dup3\n      swap1\n      sub\n      0x1f\n      and\n      dup3\n      add\n      swap2\n    tag_129:\n      pop\n      pop\n      pop\n      pop\n      pop\n      dup2\n      jump\t// out\n        /* \"src/Credit_Token/CreditToken.sol\":1390:1563  function burn(address _to, uint256 _amount) external override {... */\n    tag_58:\n        /* \"src/Credit_Token/CreditToken.sol\":1470:1486  allowedContracts */\n      0x06\n        /* \"src/Credit_Token/CreditToken.sol\":1470:1491  allowedContracts[_to] */\n      0x00\n        /* \"src/Credit_Token/CreditToken.sol\":1487:1490  _to */\n      dup4\n        /* \"src/Credit_Token/CreditToken.sol\":1470:1491  allowedContracts[_to] */\n      0xffffffffffffffffffffffffffffffffffffffff\n      and\n      0xffffffffffffffffffffffffffffffffffffffff\n      and\n      dup2\n      mstore\n      0x20\n      add\n      swap1\n      dup2\n      mstore\n      0x20\n      add\n      0x00\n      keccak256\n      0x00\n      swap1\n      sload\n      swap1\n      0x0100\n      exp\n      swap1\n      div\n      0xff\n      and\n        /* \"src/Credit_Token/CreditToken.sol\":1462:1516  require(allowedContracts[_to], \"Contract not allowed\") */\n      tag_133\n      jumpi\n      mload(0x40)\n      0x08c379a000000000000000000000000000000000000000000000000000000000\n      dup2\n      mstore\n      0x04\n      add\n      tag_134\n      swap1\n      tag_122\n      jump\t// in\n    tag_134:\n      mload(0x40)\n      dup1\n      swap2\n      sub\n      swap1\n      revert\n    tag_133:\n        /* \"src/Credit_Token/CreditToken.sol\":1526:1556  _burn(_to, _amount * 10 ** 18) */\n      tag_135\n        /* \"src/Credit_Token/CreditToken.sol\":1532:1535  _to */\n      dup3\n        /* \"src/Credit_Token/CreditToken.sol\":1547:1555  10 ** 18 */\n      0x0de0b6b3a7640000\n        /* \"src/Credit_Token/CreditToken.sol\":1537:1544  _amount */\n      dup4\n        /* \"src/Credit_Token/CreditToken.sol\":1537:1555  _amount * 10 ** 18 */\n      tag_136\n      swap2\n      swap1\n      tag_125\n      jump\t// in\n    tag_136:\n        /* \"src/Credit_Token/CreditToken.sol\":1526:1531  _burn */\n      tag_137\n        /* \"src/Credit_Token/CreditToken.sol\":1526:1556  _burn(_to, _amount * 10 ** 18) */\n      jump\t// in\n    tag_135:\n        /* \"src/Credit_Token/CreditToken.sol\":1390:1563  function burn(address _to, uint256 _amount) external override {... */\n      pop\n      pop\n      jump\t// out\n        /* \"src/Credit_Token/ERC20.sol\":681:941  function transfer(address recipient, uint256 amount)... */\n    tag_61:\n        /* \"src/Credit_Token/ERC20.sol\":768:772  bool */\n      0x00\n        /* \"src/Credit_Token/ERC20.sol\":813:819  amount */\n      dup2\n        /* \"src/Credit_Token/ERC20.sol\":788:797  balanceOf */\n      0x01\n        /* \"src/Credit_Token/ERC20.sol\":788:809  balanceOf[msg.sender] */\n      0x00\n        /* \"src/Credit_Token/ERC20.sol\":798:808  msg.sender */\n      caller\n        /* \"src/Credit_Token/ERC20.sol\":788:809  balanceOf[msg.sender] */\n      0xffffffffffffffffffffffffffffffffffffffff\n      and\n      0xffffffffffffffffffffffffffffffffffffffff\n      and\n      dup2\n      mstore\n      0x20\n      add\n      swap1\n      dup2\n      mstore\n      0x20\n      add\n      0x00\n      keccak256\n      0x00\n        /* \"src/Credit_Token/ERC20.sol\":788:819  balanceOf[msg.sender] -= amount */\n      dup3\n      dup3\n      sload\n      tag_139\n      swap2\n      swap1\n      tag_91\n      jump\t// in\n    tag_139:\n      swap3\n      pop\n      pop\n      dup2\n      swap1\n      sstore\n      pop\n        /* \"src/Credit_Token/ERC20.sol\":853:859  amount */\n      dup2\n        /* \"src/Credit_Token/ERC20.sol\":829:838  balanceOf */\n      0x01\n        /* \"src/Credit_Token/ERC20.sol\":829:849  balanceOf[recipient] */\n      0x00\n        /* \"src/Credit_Token/ERC20.sol\":839:848  recipient */\n      dup6\n        /* \"src/Credit_Token/ERC20.sol\":829:849  balanceOf[recipient] */\n      0xffffffffffffffffffffffffffffffffffffffff\n      and\n      0xffffffffffffffffffffffffffffffffffffffff\n      and\n      dup2\n      mstore\n      0x20\n      add\n      swap1\n      dup2\n      mstore\n      0x20\n      add\n      0x00\n      keccak256\n      0x00\n        /* \"src/Credit_Token/ERC20.sol\":829:859  balanceOf[recipient] += amount */\n      dup3\n      dup3\n      sload\n      tag_140\n      swap2\n      swap1\n      tag_117\n      jump\t// in\n    tag_140:\n      swap3\n      pop\n      pop\n      dup2\n      swap1\n      sstore\n      pop\n        /* \"src/Credit_Token/ERC20.sol\":895:904  recipient */\n      dup3\n        /* \"src/Credit_Token/ERC20.sol\":874:913  Transfer(msg.sender, recipient, amount) */\n      0xffffffffffffffffffffffffffffffffffffffff\n      and\n        /* \"src/Credit_Token/ERC20.sol\":883:893  msg.sender */\n      caller\n        /* \"src/Credit_Token/ERC20.sol\":874:913  Transfer(msg.sender, recipient, amount) */\n      0xffffffffffffffffffffffffffffffffffffffff\n      and\n      0xddf252ad1be2c89b69c2b068fc378daa952ba7f163c4a11628f55a4df523b3ef\n        /* \"src/Credit_Token/ERC20.sol\":906:912  amount */\n      dup5\n        /* \"src/Credit_Token/ERC20.sol\":874:913  Transfer(msg.sender, recipient, amount) */\n      mload(0x40)\n      tag_141\n      swap2\n      swap1\n      tag_35\n      jump\t// in\n    tag_141:\n      mload(0x40)\n      dup1\n      swap2\n      sub\n      swap1\n      log3\n        /* \"src/Credit_Token/ERC20.sol\":930:934  true */\n      0x01\n        /* \"src/Credit_Token/ERC20.sol\":923:934  return true */\n      swap1\n      pop\n        /* \"src/Credit_Token/ERC20.sol\":681:941  function transfer(address recipient, uint256 amount)... */\n      swap3\n      swap2\n      pop\n      pop\n      jump\t// out\n        /* \"src/Credit_Token/ERC20.sol\":369:433  mapping(address => mapping(address => uint256)) public allowance */\n    tag_66:\n      mstore(0x20, 0x02)\n      dup2\n      0x00\n      mstore\n      mstore(0x20, keccak256(0x00, 0x40))\n      dup1\n      0x00\n      mstore\n      keccak256(0x00, 0x40)\n      0x00\n      swap2\n      pop\n      swap2\n      pop\n      pop\n      sload\n      dup2\n      jump\t// out\n        /* \"src/Credit_Token/CreditToken.sol\":317:611  function giveMintAccess(address[] memory _contracts) external {... */\n    tag_70:\n        /* \"src/Credit_Token/CreditToken.sol\":411:416  owner */\n      0x05\n      0x01\n      swap1\n      sload\n      swap1\n      0x0100\n      exp\n      swap1\n      div\n      0xffffffffffffffffffffffffffffffffffffffff\n      and\n        /* \"src/Credit_Token/CreditToken.sol\":397:416  msg.sender == owner */\n      0xffffffffffffffffffffffffffffffffffffffff\n      and\n        /* \"src/Credit_Token/CreditToken.sol\":397:407  msg.sender */\n      caller\n        /* \"src/Credit_Token/CreditToken.sol\":397:416  msg.sender == owner */\n      0xffffffffffffffffffffffffffffffffffffffff\n      and\n      eq\n        /* \"src/Credit_Token/CreditToken.sol\":389:430  require(msg.sender == owner, \"NOT_OWNER\") */\n      tag_143\n      jumpi\n      mload(0x40)\n      0x08c379a000000000000000000000000000000000000000000000000000000000\n      dup2\n      mstore\n      0x04\n      add\n      tag_144\n      swap1\n      tag_74\n      jump\t// in\n    tag_144:\n      mload(0x40)\n      dup1\n      swap2\n      sub\n      swap1\n      revert\n    tag_143:\n        /* \"src/Credit_Token/CreditToken.sol\":445:454  uint256 i */\n      0x00\n        /* \"src/Credit_Token/CreditToken.sol\":440:605  for (uint256 i = 0; i < _contracts.length; i++) {... */\n    tag_145:\n        /* \"src/Credit_Token/CreditToken.sol\":464:474  _contracts */\n      dup2\n        /* \"src/Credit_Token/CreditToken.sol\":464:481  _contracts.length */\n      mload\n        /* \"src/Credit_Token/CreditToken.sol\":460:461  i */\n      dup2\n        /* \"src/Credit_Token/CreditToken.sol\":460:481  i < _contracts.length */\n      lt\n        /* \"src/Credit_Token/CreditToken.sol\":440:605  for (uint256 i = 0; i < _contracts.length; i++) {... */\n      iszero\n      tag_146\n      jumpi\n        /* \"src/Credit_Token/CreditToken.sol\":536:540  true */\n      0x01\n        /* \"src/Credit_Token/CreditToken.sol\":502:518  allowedContracts */\n      0x06\n        /* \"src/Credit_Token/CreditToken.sol\":502:533  allowedContracts[_contracts[i]] */\n      0x00\n        /* \"src/Credit_Token/CreditToken.sol\":519:529  _contracts */\n      dup5\n        /* \"src/Credit_Token/CreditToken.sol\":530:531  i */\n      dup5\n        /* \"src/Credit_Token/CreditToken.sol\":519:532  _contracts[i] */\n      dup2\n      mload\n      dup2\n      lt\n      tag_148\n      jumpi\n      tag_149\n      tag_80\n      jump\t// in\n    tag_149:\n    tag_148:\n      0x20\n      mul\n      0x20\n      add\n      add\n      mload\n        /* \"src/Credit_Token/CreditToken.sol\":502:533  allowedContracts[_contracts[i]] */\n      0xffffffffffffffffffffffffffffffffffffffff\n      and\n      0xffffffffffffffffffffffffffffffffffffffff\n      and\n      dup2\n      mstore\n      0x20\n      add\n      swap1\n      dup2\n      mstore\n      0x20\n      add\n      0x00\n      keccak256\n      0x00\n        /* \"src/Credit_Token/CreditToken.sol\":502:540  allowedContracts[_contracts[i]] = true */\n      0x0100\n      exp\n      dup2\n      sload\n      dup2\n      0xff\n      mul\n      not\n      and\n      swap1\n      dup4\n      iszero\n      iszero\n      mul\n      or\n      swap1\n      sstore\n      pop\n        /* \"src/Credit_Token/CreditToken.sol\":554:574  allowedContractsList */\n      0x07\n        /* \"src/Credit_Token/CreditToken.sol\":580:590  _contracts */\n      dup3\n        /* \"src/Credit_Token/CreditToken.sol\":591:592  i */\n      dup3\n        /* \"src/Credit_Token/CreditToken.sol\":580:593  _contracts[i] */\n      dup2\n      mload\n      dup2\n      lt\n      tag_150\n      jumpi\n      tag_151\n      tag_80\n      jump\t// in\n    tag_151:\n    tag_150:\n      0x20\n      mul\n      0x20\n      add\n      add\n      mload\n        /* \"src/Credit_Token/CreditToken.sol\":554:594  allowedContractsList.push(_contracts[i]) */\n      swap1\n      dup1\n      0x01\n      dup2\n      sload\n      add\n      dup1\n      dup3\n      sstore\n      dup1\n      swap2\n      pop\n      pop\n      0x01\n      swap1\n      sub\n      swap1\n      0x00\n      mstore\n      keccak256(0x00, 0x20)\n      add\n      0x00\n      swap1\n      swap2\n      swap1\n      swap2\n      swap1\n      swap2\n      0x0100\n      exp\n      dup2\n      sload\n      dup2\n      0xffffffffffffffffffffffffffffffffffffffff\n      mul\n      not\n      and\n      swap1\n      dup4\n      0xffffffffffffffffffffffffffffffffffffffff\n      and\n      mul\n      or\n      swap1\n      sstore\n      pop\n        /* \"src/Credit_Token/CreditToken.sol\":483:486  i++ */\n      dup1\n      dup1\n      tag_153\n      swap1\n      tag_103\n      jump\t// in\n    tag_153:\n      swap2\n      pop\n      pop\n        /* \"src/Credit_Token/CreditToken.sol\":440:605  for (uint256 i = 0; i < _contracts.length; i++) {... */\n      jump(tag_145)\n    tag_146:\n      pop\n        /* \"src/Credit_Token/CreditToken.sol\":317:611  function giveMintAccess(address[] memory _contracts) external {... */\n      pop\n      jump\t// out\n        /* \"src/Credit_Token/ERC20.sol\":1483:1653  function _mint(address to, uint256 amount) internal {... */\n    tag_126:\n        /* \"src/Credit_Token/ERC20.sol\":1562:1568  amount */\n      dup1\n        /* \"src/Credit_Token/ERC20.sol\":1545:1554  balanceOf */\n      0x01\n        /* \"src/Credit_Token/ERC20.sol\":1545:1558  balanceOf[to] */\n      0x00\n        /* \"src/Credit_Token/ERC20.sol\":1555:1557  to */\n      dup5\n        /* \"src/Credit_Token/ERC20.sol\":1545:1558  balanceOf[to] */\n      0xffffffffffffffffffffffffffffffffffffffff\n      and\n      0xffffffffffffffffffffffffffffffffffffffff\n      and\n      dup2\n      mstore\n      0x20\n      add\n      swap1\n      dup2\n      mstore\n      0x20\n      add\n      0x00\n      keccak256\n      0x00\n        /* \"src/Credit_Token/ERC20.sol\":1545:1568  balanceOf[to] += amount */\n      dup3\n      dup3\n      sload\n      tag_155\n      swap2\n      swap1\n      tag_117\n      jump\t// in\n    tag_155:\n      swap3\n      pop\n      pop\n      dup2\n      swap1\n      sstore\n      pop\n        /* \"src/Credit_Token/ERC20.sol\":1593:1599  amount */\n      dup1\n        /* \"src/Credit_Token/ERC20.sol\":1578:1589  totalSupply */\n      0x00\n      dup1\n        /* \"src/Credit_Token/ERC20.sol\":1578:1599  totalSupply += amount */\n      dup3\n      dup3\n      sload\n      tag_156\n      swap2\n      swap1\n      tag_117\n      jump\t// in\n    tag_156:\n      swap3\n      pop\n      pop\n      dup2\n      swap1\n      sstore\n      pop\n        /* \"src/Credit_Token/ERC20.sol\":1635:1637  to */\n      dup2\n        /* \"src/Credit_Token/ERC20.sol\":1614:1646  Transfer(address(0), to, amount) */\n      0xffffffffffffffffffffffffffffffffffffffff\n      and\n        /* \"src/Credit_Token/ERC20.sol\":1631:1632  0 */\n      0x00\n        /* \"src/Credit_Token/ERC20.sol\":1614:1646  Transfer(address(0), to, amount) */\n      0xffffffffffffffffffffffffffffffffffffffff\n      and\n      0xddf252ad1be2c89b69c2b068fc378daa952ba7f163c4a11628f55a4df523b3ef\n        /* \"src/Credit_Token/ERC20.sol\":1639:1645  amount */\n      dup4\n        /* \"src/Credit_Token/ERC20.sol\":1614:1646  Transfer(address(0), to, amount) */\n      mload(0x40)\n      tag_157\n      swap2\n      swap1\n      tag_35\n      jump\t// in\n    tag_157:\n      mload(0x40)\n      dup1\n      swap2\n      sub\n      swap1\n      log3\n        /* \"src/Credit_Token/ERC20.sol\":1483:1653  function _mint(address to, uint256 amount) internal {... */\n      pop\n      pop\n      jump\t// out\n        /* \"src/Credit_Token/ERC20.sol\":1659:1835  function _burn(address from, uint256 amount) internal {... */\n    tag_137:\n        /* \"src/Credit_Token/ERC20.sol\":1742:1748  amount */\n      dup1\n        /* \"src/Credit_Token/ERC20.sol\":1723:1732  balanceOf */\n      0x01\n        /* \"src/Credit_Token/ERC20.sol\":1723:1738  balanceOf[from] */\n      0x00\n        /* \"src/Credit_Token/ERC20.sol\":1733:1737  from */\n      dup5\n        /* \"src/Credit_Token/ERC20.sol\":1723:1738  balanceOf[from] */\n      0xffffffffffffffffffffffffffffffffffffffff\n      and\n      0xffffffffffffffffffffffffffffffffffffffff\n      and\n      dup2\n      mstore\n      0x20\n      add\n      swap1\n      dup2\n      mstore\n      0x20\n      add\n      0x00\n      keccak256\n      0x00\n        /* \"src/Credit_Token/ERC20.sol\":1723:1748  balanceOf[from] -= amount */\n      dup3\n      dup3\n      sload\n      tag_159\n      swap2\n      swap1\n      tag_91\n      jump\t// in\n    tag_159:\n      swap3\n      pop\n      pop\n      dup2\n      swap1\n      sstore\n      pop\n        /* \"src/Credit_Token/ERC20.sol\":1773:1779  amount */\n      dup1\n        /* \"src/Credit_Token/ERC20.sol\":1758:1769  totalSupply */\n      0x00\n      dup1\n        /* \"src/Credit_Token/ERC20.sol\":1758:1779  totalSupply -= amount */\n      dup3\n      dup3\n      sload\n      tag_160\n      swap2\n      swap1\n      tag_91\n      jump\t// in\n    tag_160:\n      swap3\n      pop\n      pop\n      dup2\n      swap1\n      sstore\n      pop\n        /* \"src/Credit_Token/ERC20.sol\":1817:1818  0 */\n      0x00\n        /* \"src/Credit_Token/ERC20.sol\":1794:1828  Transfer(from, address(0), amount) */\n      0xffffffffffffffffffffffffffffffffffffffff\n      and\n        /* \"src/Credit_Token/ERC20.sol\":1803:1807  from */\n      dup3\n        /* \"src/Credit_Token/ERC20.sol\":1794:1828  Transfer(from, address(0), amount) */\n      0xffffffffffffffffffffffffffffffffffffffff\n      and\n      0xddf252ad1be2c89b69c2b068fc378daa952ba7f163c4a11628f55a4df523b3ef\n        /* \"src/Credit_Token/ERC20.sol\":1821:1827  amount */\n      dup4\n        /* \"src/Credit_Token/ERC20.sol\":1794:1828  Transfer(from, address(0), amount) */\n      mload(0x40)\n      tag_161\n      swap2\n      swap1\n      tag_35\n      jump\t// in\n    tag_161:\n      mload(0x40)\n      dup1\n      swap2\n      sub\n      swap1\n      log3\n        /* \"src/Credit_Token/ERC20.sol\":1659:1835  function _burn(address from, uint256 amount) internal {... */\n      pop\n      pop\n      jump\t// out\n        /* \"#utility.yul\":7:82   */\n    tag_162:\n        /* \"#utility.yul\":40:46   */\n      0x00\n        /* \"#utility.yul\":73:75   */\n      0x40\n        /* \"#utility.yul\":67:76   */\n      mload\n        /* \"#utility.yul\":57:76   */\n      swap1\n      pop\n        /* \"#utility.yul\":7:82   */\n      swap1\n      jump\t// out\n        /* \"#utility.yul\":88:205   */\n    tag_163:\n        /* \"#utility.yul\":197:198   */\n      0x00\n        /* \"#utility.yul\":194:195   */\n      dup1\n        /* \"#utility.yul\":187:199   */\n      revert\n        /* \"#utility.yul\":211:328   */\n    tag_164:\n        /* \"#utility.yul\":320:321   */\n      0x00\n        /* \"#utility.yul\":317:318   */\n      dup1\n        /* \"#utility.yul\":310:322   */\n      revert\n        /* \"#utility.yul\":334:451   */\n    tag_165:\n        /* \"#utility.yul\":443:444   */\n      0x00\n        /* \"#utility.yul\":440:441   */\n      dup1\n        /* \"#utility.yul\":433:445   */\n      revert\n        /* \"#utility.yul\":457:559   */\n    tag_166:\n        /* \"#utility.yul\":498:504   */\n      0x00\n        /* \"#utility.yul\":549:551   */\n      0x1f\n        /* \"#utility.yul\":545:552   */\n      not\n        /* \"#utility.yul\":540:542   */\n      0x1f\n        /* \"#utility.yul\":533:538   */\n      dup4\n        /* \"#utility.yul\":529:543   */\n      add\n        /* \"#utility.yul\":525:553   */\n      and\n        /* \"#utility.yul\":515:553   */\n      swap1\n      pop\n        /* \"#utility.yul\":457:559   */\n      swap2\n      swap1\n      pop\n      jump\t// out\n        /* \"#utility.yul\":565:745   */\n    tag_167:\n        /* \"#utility.yul\":613:690   */\n      0x4e487b7100000000000000000000000000000000000000000000000000000000\n        /* \"#utility.yul\":610:611   */\n      0x00\n        /* \"#utility.yul\":603:691   */\n      mstore\n        /* \"#utility.yul\":710:714   */\n      0x41\n        /* \"#utility.yul\":707:708   */\n      0x04\n        /* \"#utility.yul\":700:715   */\n      mstore\n        /* \"#utility.yul\":734:738   */\n      0x24\n        /* \"#utility.yul\":731:732   */\n      0x00\n        /* \"#utility.yul\":724:739   */\n      revert\n        /* \"#utility.yul\":751:1032   */\n    tag_168:\n        /* \"#utility.yul\":834:861   */\n      tag_204\n        /* \"#utility.yul\":856:860   */\n      dup3\n        /* \"#utility.yul\":834:861   */\n      tag_166\n      jump\t// in\n    tag_204:\n        /* \"#utility.yul\":826:832   */\n      dup2\n        /* \"#utility.yul\":822:862   */\n      add\n        /* \"#utility.yul\":964:970   */\n      dup2\n        /* \"#utility.yul\":952:962   */\n      dup2\n        /* \"#utility.yul\":949:971   */\n      lt\n        /* \"#utility.yul\":928:946   */\n      0xffffffffffffffff\n        /* \"#utility.yul\":916:926   */\n      dup3\n        /* \"#utility.yul\":913:947   */\n      gt\n        /* \"#utility.yul\":910:972   */\n      or\n        /* \"#utility.yul\":907:995   */\n      iszero\n      tag_205\n      jumpi\n        /* \"#utility.yul\":975:993   */\n      tag_206\n      tag_167\n      jump\t// in\n    tag_206:\n        /* \"#utility.yul\":907:995   */\n    tag_205:\n        /* \"#utility.yul\":1015:1025   */\n      dup1\n        /* \"#utility.yul\":1011:1013   */\n      0x40\n        /* \"#utility.yul\":1004:1026   */\n      mstore\n        /* \"#utility.yul\":794:1032   */\n      pop\n        /* \"#utility.yul\":751:1032   */\n      pop\n      pop\n      jump\t// out\n        /* \"#utility.yul\":1038:1167   */\n    tag_169:\n        /* \"#utility.yul\":1072:1078   */\n      0x00\n        /* \"#utility.yul\":1099:1119   */\n      tag_208\n      tag_162\n      jump\t// in\n    tag_208:\n        /* \"#utility.yul\":1089:1119   */\n      swap1\n      pop\n        /* \"#utility.yul\":1128:1161   */\n      tag_209\n        /* \"#utility.yul\":1156:1160   */\n      dup3\n        /* \"#utility.yul\":1148:1154   */\n      dup3\n        /* \"#utility.yul\":1128:1161   */\n      tag_168\n      jump\t// in\n    tag_209:\n        /* \"#utility.yul\":1038:1167   */\n      swap2\n      swap1\n      pop\n      jump\t// out\n        /* \"#utility.yul\":1173:1484   */\n    tag_170:\n        /* \"#utility.yul\":1250:1254   */\n      0x00\n        /* \"#utility.yul\":1340:1358   */\n      0xffffffffffffffff\n        /* \"#utility.yul\":1332:1338   */\n      dup3\n        /* \"#utility.yul\":1329:1359   */\n      gt\n        /* \"#utility.yul\":1326:1382   */\n      iszero\n      tag_211\n      jumpi\n        /* \"#utility.yul\":1362:1380   */\n      tag_212\n      tag_167\n      jump\t// in\n    tag_212:\n        /* \"#utility.yul\":1326:1382   */\n    tag_211:\n        /* \"#utility.yul\":1412:1416   */\n      0x20\n        /* \"#utility.yul\":1404:1410   */\n      dup3\n        /* \"#utility.yul\":1400:1417   */\n      mul\n        /* \"#utility.yul\":1392:1417   */\n      swap1\n      pop\n        /* \"#utility.yul\":1472:1476   */\n      0x20\n        /* \"#utility.yul\":1466:1470   */\n      dup2\n        /* \"#utility.yul\":1462:1477   */\n      add\n        /* \"#utility.yul\":1454:1477   */\n      swap1\n      pop\n        /* \"#utility.yul\":1173:1484   */\n      swap2\n      swap1\n      pop\n      jump\t// out\n        /* \"#utility.yul\":1490:1607   */\n    tag_171:\n        /* \"#utility.yul\":1599:1600   */\n      0x00\n        /* \"#utility.yul\":1596:1597   */\n      dup1\n        /* \"#utility.yul\":1589:1601   */\n      revert\n        /* \"#utility.yul\":1613:1739   */\n    tag_172:\n        /* \"#utility.yul\":1650:1657   */\n      0x00\n        /* \"#utility.yul\":1690:1732   */\n      0xffffffffffffffffffffffffffffffffffffffff\n        /* \"#utility.yul\":1683:1688   */\n      dup3\n        /* \"#utility.yul\":1679:1733   */\n      and\n        /* \"#utility.yul\":1668:1733   */\n      swap1\n      pop\n        /* \"#utility.yul\":1613:1739   */\n      swap2\n      swap1\n      pop\n      jump\t// out\n        /* \"#utility.yul\":1745:1841   */\n    tag_173:\n        /* \"#utility.yul\":1782:1789   */\n      0x00\n        /* \"#utility.yul\":1811:1835   */\n      tag_216\n        /* \"#utility.yul\":1829:1834   */\n      dup3\n        /* \"#utility.yul\":1811:1835   */\n      tag_172\n      jump\t// in\n    tag_216:\n        /* \"#utility.yul\":1800:1835   */\n      swap1\n      pop\n        /* \"#utility.yul\":1745:1841   */\n      swap2\n      swap1\n      pop\n      jump\t// out\n        /* \"#utility.yul\":1847:1969   */\n    tag_174:\n        /* \"#utility.yul\":1920:1944   */\n      tag_218\n        /* \"#utility.yul\":1938:1943   */\n      dup2\n        /* \"#utility.yul\":1920:1944   */\n      tag_173\n      jump\t// in\n    tag_218:\n        /* \"#utility.yul\":1913:1918   */\n      dup2\n        /* \"#utility.yul\":1910:1945   */\n      eq\n        /* \"#utility.yul\":1900:1963   */\n      tag_219\n      jumpi\n        /* \"#utility.yul\":1959:1960   */\n      0x00\n        /* \"#utility.yul\":1956:1957   */\n      dup1\n        /* \"#utility.yul\":1949:1961   */\n      revert\n        /* \"#utility.yul\":1900:1963   */\n    tag_219:\n        /* \"#utility.yul\":1847:1969   */\n      pop\n      jump\t// out\n        /* \"#utility.yul\":1975:2114   */\n    tag_175:\n        /* \"#utility.yul\":2021:2026   */\n      0x00\n        /* \"#utility.yul\":2059:2065   */\n      dup2\n        /* \"#utility.yul\":2046:2066   */\n      calldataload\n        /* \"#utility.yul\":2037:2066   */\n      swap1\n      pop\n        /* \"#utility.yul\":2075:2108   */\n      tag_221\n        /* \"#utility.yul\":2102:2107   */\n      dup2\n        /* \"#utility.yul\":2075:2108   */\n      tag_174\n      jump\t// in\n    tag_221:\n        /* \"#utility.yul\":1975:2114   */\n      swap3\n      swap2\n      pop\n      pop\n      jump\t// out\n        /* \"#utility.yul\":2137:2847   */\n    tag_176:\n        /* \"#utility.yul\":2233:2238   */\n      0x00\n        /* \"#utility.yul\":2258:2339   */\n      tag_223\n        /* \"#utility.yul\":2274:2338   */\n      tag_224\n        /* \"#utility.yul\":2331:2337   */\n      dup5\n        /* \"#utility.yul\":2274:2338   */\n      tag_170\n      jump\t// in\n    tag_224:\n        /* \"#utility.yul\":2258:2339   */\n      tag_169\n      jump\t// in\n    tag_223:\n        /* \"#utility.yul\":2249:2339   */\n      swap1\n      pop\n        /* \"#utility.yul\":2359:2364   */\n      dup1\n        /* \"#utility.yul\":2388:2394   */\n      dup4\n        /* \"#utility.yul\":2381:2386   */\n      dup3\n        /* \"#utility.yul\":2374:2395   */\n      mstore\n        /* \"#utility.yul\":2422:2426   */\n      0x20\n        /* \"#utility.yul\":2415:2420   */\n      dup3\n        /* \"#utility.yul\":2411:2427   */\n      add\n        /* \"#utility.yul\":2404:2427   */\n      swap1\n      pop\n        /* \"#utility.yul\":2475:2479   */\n      0x20\n        /* \"#utility.yul\":2467:2473   */\n      dup5\n        /* \"#utility.yul\":2463:2480   */\n      mul\n        /* \"#utility.yul\":2455:2461   */\n      dup4\n        /* \"#utility.yul\":2451:2481   */\n      add\n        /* \"#utility.yul\":2504:2507   */\n      dup6\n        /* \"#utility.yul\":2496:2502   */\n      dup2\n        /* \"#utility.yul\":2493:2508   */\n      gt\n        /* \"#utility.yul\":2490:2612   */\n      iszero\n      tag_225\n      jumpi\n        /* \"#utility.yul\":2523:2602   */\n      tag_226\n      tag_171\n      jump\t// in\n    tag_226:\n        /* \"#utility.yul\":2490:2612   */\n    tag_225:\n        /* \"#utility.yul\":2638:2644   */\n      dup4\n        /* \"#utility.yul\":2621:2841   */\n    tag_227:\n        /* \"#utility.yul\":2655:2661   */\n      dup2\n        /* \"#utility.yul\":2650:2653   */\n      dup2\n        /* \"#utility.yul\":2647:2662   */\n      lt\n        /* \"#utility.yul\":2621:2841   */\n      iszero\n      tag_229\n      jumpi\n        /* \"#utility.yul\":2730:2733   */\n      dup1\n        /* \"#utility.yul\":2759:2796   */\n      tag_230\n        /* \"#utility.yul\":2792:2795   */\n      dup9\n        /* \"#utility.yul\":2780:2790   */\n      dup3\n        /* \"#utility.yul\":2759:2796   */\n      tag_175\n      jump\t// in\n    tag_230:\n        /* \"#utility.yul\":2754:2757   */\n      dup5\n        /* \"#utility.yul\":2747:2797   */\n      mstore\n        /* \"#utility.yul\":2826:2830   */\n      0x20\n        /* \"#utility.yul\":2821:2824   */\n      dup5\n        /* \"#utility.yul\":2817:2831   */\n      add\n        /* \"#utility.yul\":2810:2831   */\n      swap4\n      pop\n        /* \"#utility.yul\":2697:2841   */\n      pop\n        /* \"#utility.yul\":2681:2685   */\n      0x20\n        /* \"#utility.yul\":2676:2679   */\n      dup2\n        /* \"#utility.yul\":2672:2686   */\n      add\n        /* \"#utility.yul\":2665:2686   */\n      swap1\n      pop\n        /* \"#utility.yul\":2621:2841   */\n      jump(tag_227)\n    tag_229:\n        /* \"#utility.yul\":2625:2646   */\n      pop\n        /* \"#utility.yul\":2239:2847   */\n      pop\n      pop\n        /* \"#utility.yul\":2137:2847   */\n      swap4\n      swap3\n      pop\n      pop\n      pop\n      jump\t// out\n        /* \"#utility.yul\":2870:3240   */\n    tag_177:\n        /* \"#utility.yul\":2941:2946   */\n      0x00\n        /* \"#utility.yul\":2990:2993   */\n      dup3\n        /* \"#utility.yul\":2983:2987   */\n      0x1f\n        /* \"#utility.yul\":2975:2981   */\n      dup4\n        /* \"#utility.yul\":2971:2988   */\n      add\n        /* \"#utility.yul\":2967:2994   */\n      slt\n        /* \"#utility.yul\":2957:3079   */\n      tag_232\n      jumpi\n        /* \"#utility.yul\":2998:3077   */\n      tag_233\n      tag_165\n      jump\t// in\n    tag_233:\n        /* \"#utility.yul\":2957:3079   */\n    tag_232:\n        /* \"#utility.yul\":3115:3121   */\n      dup2\n        /* \"#utility.yul\":3102:3122   */\n      calldataload\n        /* \"#utility.yul\":3140:3234   */\n      tag_234\n        /* \"#utility.yul\":3230:3233   */\n      dup5\n        /* \"#utility.yul\":3222:3228   */\n      dup3\n        /* \"#utility.yul\":3215:3219   */\n      0x20\n        /* \"#utility.yul\":3207:3213   */\n      dup7\n        /* \"#utility.yul\":3203:3220   */\n      add\n        /* \"#utility.yul\":3140:3234   */\n      tag_176\n      jump\t// in\n    tag_234:\n        /* \"#utility.yul\":3131:3234   */\n      swap2\n      pop\n        /* \"#utility.yul\":2947:3240   */\n      pop\n        /* \"#utility.yul\":2870:3240   */\n      swap3\n      swap2\n      pop\n      pop\n      jump\t// out\n        /* \"#utility.yul\":3246:3785   */\n    tag_20:\n        /* \"#utility.yul\":3330:3336   */\n      0x00\n        /* \"#utility.yul\":3379:3381   */\n      0x20\n        /* \"#utility.yul\":3367:3376   */\n      dup3\n        /* \"#utility.yul\":3358:3365   */\n      dup5\n        /* \"#utility.yul\":3354:3377   */\n      sub\n        /* \"#utility.yul\":3350:3382   */\n      slt\n        /* \"#utility.yul\":3347:3466   */\n      iszero\n      tag_236\n      jumpi\n        /* \"#utility.yul\":3385:3464   */\n      tag_237\n      tag_163\n      jump\t// in\n    tag_237:\n        /* \"#utility.yul\":3347:3466   */\n    tag_236:\n        /* \"#utility.yul\":3533:3534   */\n      0x00\n        /* \"#utility.yul\":3522:3531   */\n      dup3\n        /* \"#utility.yul\":3518:3535   */\n      add\n        /* \"#utility.yul\":3505:3536   */\n      calldataload\n        /* \"#utility.yul\":3563:3581   */\n      0xffffffffffffffff\n        /* \"#utility.yul\":3555:3561   */\n      dup2\n        /* \"#utility.yul\":3552:3582   */\n      gt\n        /* \"#utility.yul\":3549:3666   */\n      iszero\n      tag_238\n      jumpi\n        /* \"#utility.yul\":3585:3664   */\n      tag_239\n      tag_164\n      jump\t// in\n    tag_239:\n        /* \"#utility.yul\":3549:3666   */\n    tag_238:\n        /* \"#utility.yul\":3690:3768   */\n      tag_240\n        /* \"#utility.yul\":3760:3767   */\n      dup5\n        /* \"#utility.yul\":3751:3757   */\n      dup3\n        /* \"#utility.yul\":3740:3749   */\n      dup6\n        /* \"#utility.yul\":3736:3758   */\n      add\n        /* \"#utility.yul\":3690:3768   */\n      tag_177\n      jump\t// in\n    tag_240:\n        /* \"#utility.yul\":3680:3768   */\n      swap2\n      pop\n        /* \"#utility.yul\":3476:3778   */\n      pop\n        /* \"#utility.yul\":3246:3785   */\n      swap3\n      swap2\n      pop\n      pop\n      jump\t// out\n        /* \"#utility.yul\":3791:3890   */\n    tag_178:\n        /* \"#utility.yul\":3843:3849   */\n      0x00\n        /* \"#utility.yul\":3877:3882   */\n      dup2\n        /* \"#utility.yul\":3871:3883   */\n      mload\n        /* \"#utility.yul\":3861:3883   */\n      swap1\n      pop\n        /* \"#utility.yul\":3791:3890   */\n      swap2\n      swap1\n      pop\n      jump\t// out\n        /* \"#utility.yul\":3896:4065   */\n    tag_179:\n        /* \"#utility.yul\":3980:3991   */\n      0x00\n        /* \"#utility.yul\":4014:4020   */\n      dup3\n        /* \"#utility.yul\":4009:4012   */\n      dup3\n        /* \"#utility.yul\":4002:4021   */\n      mstore\n        /* \"#utility.yul\":4054:4058   */\n      0x20\n        /* \"#utility.yul\":4049:4052   */\n      dup3\n        /* \"#utility.yul\":4045:4059   */\n      add\n        /* \"#utility.yul\":4030:4059   */\n      swap1\n      pop\n        /* \"#utility.yul\":3896:4065   */\n      swap3\n      swap2\n      pop\n      pop\n      jump\t// out\n        /* \"#utility.yul\":4071:4317   */\n    tag_180:\n        /* \"#utility.yul\":4152:4153   */\n      0x00\n        /* \"#utility.yul\":4162:4275   */\n    tag_244:\n        /* \"#utility.yul\":4176:4182   */\n      dup4\n        /* \"#utility.yul\":4173:4174   */\n      dup2\n        /* \"#utility.yul\":4170:4183   */\n      lt\n        /* \"#utility.yul\":4162:4275   */\n      iszero\n      tag_246\n      jumpi\n        /* \"#utility.yul\":4261:4262   */\n      dup1\n        /* \"#utility.yul\":4256:4259   */\n      dup3\n        /* \"#utility.yul\":4252:4263   */\n      add\n        /* \"#utility.yul\":4246:4264   */\n      mload\n        /* \"#utility.yul\":4242:4243   */\n      dup2\n        /* \"#utility.yul\":4237:4240   */\n      dup5\n        /* \"#utility.yul\":4233:4244   */\n      add\n        /* \"#utility.yul\":4226:4265   */\n      mstore\n        /* \"#utility.yul\":4198:4200   */\n      0x20\n        /* \"#utility.yul\":4195:4196   */\n      dup2\n        /* \"#utility.yul\":4191:4201   */\n      add\n        /* \"#utility.yul\":4186:4201   */\n      swap1\n      pop\n        /* \"#utility.yul\":4162:4275   */\n      jump(tag_244)\n    tag_246:\n        /* \"#utility.yul\":4309:4310   */\n      0x00\n        /* \"#utility.yul\":4300:4306   */\n      dup5\n        /* \"#utility.yul\":4295:4298   */\n      dup5\n        /* \"#utility.yul\":4291:4307   */\n      add\n        /* \"#utility.yul\":4284:4311   */\n      mstore\n        /* \"#utility.yul\":4133:4317   */\n      pop\n        /* \"#utility.yul\":4071:4317   */\n      pop\n      pop\n      pop\n      jump\t// out\n        /* \"#utility.yul\":4323:4700   */\n    tag_181:\n        /* \"#utility.yul\":4411:4414   */\n      0x00\n        /* \"#utility.yul\":4439:4478   */\n      tag_248\n        /* \"#utility.yul\":4472:4477   */\n      dup3\n        /* \"#utility.yul\":4439:4478   */\n      tag_178\n      jump\t// in\n    tag_248:\n        /* \"#utility.yul\":4494:4565   */\n      tag_249\n        /* \"#utility.yul\":4558:4564   */\n      dup2\n        /* \"#utility.yul\":4553:4556   */\n      dup6\n        /* \"#utility.yul\":4494:4565   */\n      tag_179\n      jump\t// in\n    tag_249:\n        /* \"#utility.yul\":4487:4565   */\n      swap4\n      pop\n        /* \"#utility.yul\":4574:4639   */\n      tag_250\n        /* \"#utility.yul\":4632:4638   */\n      dup2\n        /* \"#utility.yul\":4627:4630   */\n      dup6\n        /* \"#utility.yul\":4620:4624   */\n      0x20\n        /* \"#utility.yul\":4613:4618   */\n      dup7\n        /* \"#utility.yul\":4609:4625   */\n      add\n        /* \"#utility.yul\":4574:4639   */\n      tag_180\n      jump\t// in\n    tag_250:\n        /* \"#utility.yul\":4664:4693   */\n      tag_251\n        /* \"#utility.yul\":4686:4692   */\n      dup2\n        /* \"#utility.yul\":4664:4693   */\n      tag_166\n      jump\t// in\n    tag_251:\n        /* \"#utility.yul\":4659:4662   */\n      dup5\n        /* \"#utility.yul\":4655:4694   */\n      add\n        /* \"#utility.yul\":4648:4694   */\n      swap2\n      pop\n        /* \"#utility.yul\":4415:4700   */\n      pop\n        /* \"#utility.yul\":4323:4700   */\n      swap3\n      swap2\n      pop\n      pop\n      jump\t// out\n        /* \"#utility.yul\":4706:5019   */\n    tag_25:\n        /* \"#utility.yul\":4819:4823   */\n      0x00\n        /* \"#utility.yul\":4857:4859   */\n      0x20\n        /* \"#utility.yul\":4846:4855   */\n      dup3\n        /* \"#utility.yul\":4842:4860   */\n      add\n        /* \"#utility.yul\":4834:4860   */\n      swap1\n      pop\n        /* \"#utility.yul\":4906:4915   */\n      dup2\n        /* \"#utility.yul\":4900:4904   */\n      dup2\n        /* \"#utility.yul\":4896:4916   */\n      sub\n        /* \"#utility.yul\":4892:4893   */\n      0x00\n        /* \"#utility.yul\":4881:4890   */\n      dup4\n        /* \"#utility.yul\":4877:4894   */\n      add\n        /* \"#utility.yul\":4870:4917   */\n      mstore\n        /* \"#utility.yul\":4934:5012   */\n      tag_253\n        /* \"#utility.yul\":5007:5011   */\n      dup2\n        /* \"#utility.yul\":4998:5004   */\n      dup5\n        /* \"#utility.yul\":4934:5012   */\n      tag_181\n      jump\t// in\n    tag_253:\n        /* \"#utility.yul\":4926:5012   */\n      swap1\n      pop\n        /* \"#utility.yul\":4706:5019   */\n      swap3\n      swap2\n      pop\n      pop\n      jump\t// out\n        /* \"#utility.yul\":5025:5102   */\n    tag_182:\n        /* \"#utility.yul\":5062:5069   */\n      0x00\n        /* \"#utility.yul\":5091:5096   */\n      dup2\n        /* \"#utility.yul\":5080:5096   */\n      swap1\n      pop\n        /* \"#utility.yul\":5025:5102   */\n      swap2\n      swap1\n      pop\n      jump\t// out\n        /* \"#utility.yul\":5108:5230   */\n    tag_183:\n        /* \"#utility.yul\":5181:5205   */\n      tag_256\n        /* \"#utility.yul\":5199:5204   */\n      dup2\n        /* \"#utility.yul\":5181:5205   */\n      tag_182\n      jump\t// in\n    tag_256:\n        /* \"#utility.yul\":5174:5179   */\n      dup2\n        /* \"#utility.yul\":5171:5206   */\n      eq\n        /* \"#utility.yul\":5161:5224   */\n      tag_257\n      jumpi\n        /* \"#utility.yul\":5220:5221   */\n      0x00\n        /* \"#utility.yul\":5217:5218   */\n      dup1\n        /* \"#utility.yul\":5210:5222   */\n      revert\n        /* \"#utility.yul\":5161:5224   */\n    tag_257:\n        /* \"#utility.yul\":5108:5230   */\n      pop\n      jump\t// out\n        /* \"#utility.yul\":5236:5375   */\n    tag_184:\n        /* \"#utility.yul\":5282:5287   */\n      0x00\n        /* \"#utility.yul\":5320:5326   */\n      dup2\n        /* \"#utility.yul\":5307:5327   */\n      calldataload\n        /* \"#utility.yul\":5298:5327   */\n      swap1\n      pop\n        /* \"#utility.yul\":5336:5369   */\n      tag_259\n        /* \"#utility.yul\":5363:5368   */\n      dup2\n        /* \"#utility.yul\":5336:5369   */\n      tag_183\n      jump\t// in\n    tag_259:\n        /* \"#utility.yul\":5236:5375   */\n      swap3\n      swap2\n      pop\n      pop\n      jump\t// out\n        /* \"#utility.yul\":5381:5855   */\n    tag_28:\n        /* \"#utility.yul\":5449:5455   */\n      0x00\n        /* \"#utility.yul\":5457:5463   */\n      dup1\n        /* \"#utility.yul\":5506:5508   */\n      0x40\n        /* \"#utility.yul\":5494:5503   */\n      dup4\n        /* \"#utility.yul\":5485:5492   */\n      dup6\n        /* \"#utility.yul\":5481:5504   */\n      sub\n        /* \"#utility.yul\":5477:5509   */\n      slt\n        /* \"#utility.yul\":5474:5593   */\n      iszero\n      tag_261\n      jumpi\n        /* \"#utility.yul\":5512:5591   */\n      tag_262\n      tag_163\n      jump\t// in\n    tag_262:\n        /* \"#utility.yul\":5474:5593   */\n    tag_261:\n        /* \"#utility.yul\":5632:5633   */\n      0x00\n        /* \"#utility.yul\":5657:5710   */\n      tag_263\n        /* \"#utility.yul\":5702:5709   */\n      dup6\n        /* \"#utility.yul\":5693:5699   */\n      dup3\n        /* \"#utility.yul\":5682:5691   */\n      dup7\n        /* \"#utility.yul\":5678:5700   */\n      add\n        /* \"#utility.yul\":5657:5710   */\n      tag_175\n      jump\t// in\n    tag_263:\n        /* \"#utility.yul\":5647:5710   */\n      swap3\n      pop\n        /* \"#utility.yul\":5603:5720   */\n      pop\n        /* \"#utility.yul\":5759:5761   */\n      0x20\n        /* \"#utility.yul\":5785:5838   */\n      tag_264\n        /* \"#utility.yul\":5830:5837   */\n      dup6\n        /* \"#utility.yul\":5821:5827   */\n      dup3\n        /* \"#utility.yul\":5810:5819   */\n      dup7\n        /* \"#utility.yul\":5806:5828   */\n      add\n        /* \"#utility.yul\":5785:5838   */\n      tag_184\n      jump\t// in\n    tag_264:\n        /* \"#utility.yul\":5775:5838   */\n      swap2\n      pop\n        /* \"#utility.yul\":5730:5848   */\n      pop\n        /* \"#utility.yul\":5381:5855   */\n      swap3\n      pop\n      swap3\n      swap1\n      pop\n      jump\t// out\n        /* \"#utility.yul\":5861:5951   */\n    tag_185:\n        /* \"#utility.yul\":5895:5902   */\n      0x00\n        /* \"#utility.yul\":5938:5943   */\n      dup2\n        /* \"#utility.yul\":5931:5944   */\n      iszero\n        /* \"#utility.yul\":5924:5945   */\n      iszero\n        /* \"#utility.yul\":5913:5945   */\n      swap1\n      pop\n        /* \"#utility.yul\":5861:5951   */\n      swap2\n      swap1\n      pop\n      jump\t// out\n        /* \"#utility.yul\":5957:6066   */\n    tag_186:\n        /* \"#utility.yul\":6038:6059   */\n      tag_267\n        /* \"#utility.yul\":6053:6058   */\n      dup2\n        /* \"#utility.yul\":6038:6059   */\n      tag_185\n      jump\t// in\n    tag_267:\n        /* \"#utility.yul\":6033:6036   */\n      dup3\n        /* \"#utility.yul\":6026:6060   */\n      mstore\n        /* \"#utility.yul\":5957:6066   */\n      pop\n      pop\n      jump\t// out\n        /* \"#utility.yul\":6072:6282   */\n    tag_31:\n        /* \"#utility.yul\":6159:6163   */\n      0x00\n        /* \"#utility.yul\":6197:6199   */\n      0x20\n        /* \"#utility.yul\":6186:6195   */\n      dup3\n        /* \"#utility.yul\":6182:6200   */\n      add\n        /* \"#utility.yul\":6174:6200   */\n      swap1\n      pop\n        /* \"#utility.yul\":6210:6275   */\n      tag_269\n        /* \"#utility.yul\":6272:6273   */\n      0x00\n        /* \"#utility.yul\":6261:6270   */\n      dup4\n        /* \"#utility.yul\":6257:6274   */\n      add\n        /* \"#utility.yul\":6248:6254   */\n      dup5\n        /* \"#utility.yul\":6210:6275   */\n      tag_186\n      jump\t// in\n    tag_269:\n        /* \"#utility.yul\":6072:6282   */\n      swap3\n      swap2\n      pop\n      pop\n      jump\t// out\n        /* \"#utility.yul\":6288:6406   */\n    tag_187:\n        /* \"#utility.yul\":6375:6399   */\n      tag_271\n        /* \"#utility.yul\":6393:6398   */\n      dup2\n        /* \"#utility.yul\":6375:6399   */\n      tag_182\n      jump\t// in\n    tag_271:\n        /* \"#utility.yul\":6370:6373   */\n      dup3\n        /* \"#utility.yul\":6363:6400   */\n      mstore\n        /* \"#utility.yul\":6288:6406   */\n      pop\n      pop\n      jump\t// out\n        /* \"#utility.yul\":6412:6634   */\n    tag_35:\n        /* \"#utility.yul\":6505:6509   */\n      0x00\n        /* \"#utility.yul\":6543:6545   */\n      0x20\n        /* \"#utility.yul\":6532:6541   */\n      dup3\n        /* \"#utility.yul\":6528:6546   */\n      add\n        /* \"#utility.yul\":6520:6546   */\n      swap1\n      pop\n        /* \"#utility.yul\":6556:6627   */\n      tag_273\n        /* \"#utility.yul\":6624:6625   */\n      0x00\n        /* \"#utility.yul\":6613:6622   */\n      dup4\n        /* \"#utility.yul\":6609:6626   */\n      add\n        /* \"#utility.yul\":6600:6606   */\n      dup5\n        /* \"#utility.yul\":6556:6627   */\n      tag_187\n      jump\t// in\n    tag_273:\n        /* \"#utility.yul\":6412:6634   */\n      swap3\n      swap2\n      pop\n      pop\n      jump\t// out\n        /* \"#utility.yul\":6640:7259   */\n    tag_38:\n        /* \"#utility.yul\":6717:6723   */\n      0x00\n        /* \"#utility.yul\":6725:6731   */\n      dup1\n        /* \"#utility.yul\":6733:6739   */\n      0x00\n        /* \"#utility.yul\":6782:6784   */\n      0x60\n        /* \"#utility.yul\":6770:6779   */\n      dup5\n        /* \"#utility.yul\":6761:6768   */\n      dup7\n        /* \"#utility.yul\":6757:6780   */\n      sub\n        /* \"#utility.yul\":6753:6785   */\n      slt\n        /* \"#utility.yul\":6750:6869   */\n      iszero\n      tag_275\n      jumpi\n        /* \"#utility.yul\":6788:6867   */\n      tag_276\n      tag_163\n      jump\t// in\n    tag_276:\n        /* \"#utility.yul\":6750:6869   */\n    tag_275:\n        /* \"#utility.yul\":6908:6909   */\n      0x00\n        /* \"#utility.yul\":6933:6986   */\n      tag_277\n        /* \"#utility.yul\":6978:6985   */\n      dup7\n        /* \"#utility.yul\":6969:6975   */\n      dup3\n        /* \"#utility.yul\":6958:6967   */\n      dup8\n        /* \"#utility.yul\":6954:6976   */\n      add\n        /* \"#utility.yul\":6933:6986   */\n      tag_175\n      jump\t// in\n    tag_277:\n        /* \"#utility.yul\":6923:6986   */\n      swap4\n      pop\n        /* \"#utility.yul\":6879:6996   */\n      pop\n        /* \"#utility.yul\":7035:7037   */\n      0x20\n        /* \"#utility.yul\":7061:7114   */\n      tag_278\n        /* \"#utility.yul\":7106:7113   */\n      dup7\n        /* \"#utility.yul\":7097:7103   */\n      dup3\n        /* \"#utility.yul\":7086:7095   */\n      dup8\n        /* \"#utility.yul\":7082:7104   */\n      add\n        /* \"#utility.yul\":7061:7114   */\n      tag_175\n      jump\t// in\n    tag_278:\n        /* \"#utility.yul\":7051:7114   */\n      swap3\n      pop\n        /* \"#utility.yul\":7006:7124   */\n      pop\n        /* \"#utility.yul\":7163:7165   */\n      0x40\n        /* \"#utility.yul\":7189:7242   */\n      tag_279\n        /* \"#utility.yul\":7234:7241   */\n      dup7\n        /* \"#utility.yul\":7225:7231   */\n      dup3\n        /* \"#utility.yul\":7214:7223   */\n      dup8\n        /* \"#utility.yul\":7210:7232   */\n      add\n        /* \"#utility.yul\":7189:7242   */\n      tag_184\n      jump\t// in\n    tag_279:\n        /* \"#utility.yul\":7179:7242   */\n      swap2\n      pop\n        /* \"#utility.yul\":7134:7252   */\n      pop\n        /* \"#utility.yul\":6640:7259   */\n      swap3\n      pop\n      swap3\n      pop\n      swap3\n      jump\t// out\n        /* \"#utility.yul\":7265:7351   */\n    tag_188:\n        /* \"#utility.yul\":7300:7307   */\n      0x00\n        /* \"#utility.yul\":7340:7344   */\n      0xff\n        /* \"#utility.yul\":7333:7338   */\n      dup3\n        /* \"#utility.yul\":7329:7345   */\n      and\n        /* \"#utility.yul\":7318:7345   */\n      swap1\n      pop\n        /* \"#utility.yul\":7265:7351   */\n      swap2\n      swap1\n      pop\n      jump\t// out\n        /* \"#utility.yul\":7357:7469   */\n    tag_189:\n        /* \"#utility.yul\":7440:7462   */\n      tag_282\n        /* \"#utility.yul\":7456:7461   */\n      dup2\n        /* \"#utility.yul\":7440:7462   */\n      tag_188\n      jump\t// in\n    tag_282:\n        /* \"#utility.yul\":7435:7438   */\n      dup3\n        /* \"#utility.yul\":7428:7463   */\n      mstore\n        /* \"#utility.yul\":7357:7469   */\n      pop\n      pop\n      jump\t// out\n        /* \"#utility.yul\":7475:7689   */\n    tag_44:\n        /* \"#utility.yul\":7564:7568   */\n      0x00\n        /* \"#utility.yul\":7602:7604   */\n      0x20\n        /* \"#utility.yul\":7591:7600   */\n      dup3\n        /* \"#utility.yul\":7587:7605   */\n      add\n        /* \"#utility.yul\":7579:7605   */\n      swap1\n      pop\n        /* \"#utility.yul\":7615:7682   */\n      tag_284\n        /* \"#utility.yul\":7679:7680   */\n      0x00\n        /* \"#utility.yul\":7668:7677   */\n      dup4\n        /* \"#utility.yul\":7664:7681   */\n      add\n        /* \"#utility.yul\":7655:7661   */\n      dup5\n        /* \"#utility.yul\":7615:7682   */\n      tag_189\n      jump\t// in\n    tag_284:\n        /* \"#utility.yul\":7475:7689   */\n      swap3\n      swap2\n      pop\n      pop\n      jump\t// out\n        /* \"#utility.yul\":7695:8024   */\n    tag_50:\n        /* \"#utility.yul\":7754:7760   */\n      0x00\n        /* \"#utility.yul\":7803:7805   */\n      0x20\n        /* \"#utility.yul\":7791:7800   */\n      dup3\n        /* \"#utility.yul\":7782:7789   */\n      dup5\n        /* \"#utility.yul\":7778:7801   */\n      sub\n        /* \"#utility.yul\":7774:7806   */\n      slt\n        /* \"#utility.yul\":7771:7890   */\n      iszero\n      tag_286\n      jumpi\n        /* \"#utility.yul\":7809:7888   */\n      tag_287\n      tag_163\n      jump\t// in\n    tag_287:\n        /* \"#utility.yul\":7771:7890   */\n    tag_286:\n        /* \"#utility.yul\":7929:7930   */\n      0x00\n        /* \"#utility.yul\":7954:8007   */\n      tag_288\n        /* \"#utility.yul\":7999:8006   */\n      dup5\n        /* \"#utility.yul\":7990:7996   */\n      dup3\n        /* \"#utility.yul\":7979:7988   */\n      dup6\n        /* \"#utility.yul\":7975:7997   */\n      add\n        /* \"#utility.yul\":7954:8007   */\n      tag_175\n      jump\t// in\n    tag_288:\n        /* \"#utility.yul\":7944:8007   */\n      swap2\n      pop\n        /* \"#utility.yul\":7900:8017   */\n      pop\n        /* \"#utility.yul\":7695:8024   */\n      swap3\n      swap2\n      pop\n      pop\n      jump\t// out\n        /* \"#utility.yul\":8030:8504   */\n    tag_65:\n        /* \"#utility.yul\":8098:8104   */\n      0x00\n        /* \"#utility.yul\":8106:8112   */\n      dup1\n        /* \"#utility.yul\":8155:8157   */\n      0x40\n        /* \"#utility.yul\":8143:8152   */\n      dup4\n        /* \"#utility.yul\":8134:8141   */\n      dup6\n        /* \"#utility.yul\":8130:8153   */\n      sub\n        /* \"#utility.yul\":8126:8158   */\n      slt\n        /* \"#utility.yul\":8123:8242   */\n      iszero\n      tag_290\n      jumpi\n        /* \"#utility.yul\":8161:8240   */\n      tag_291\n      tag_163\n      jump\t// in\n    tag_291:\n        /* \"#utility.yul\":8123:8242   */\n    tag_290:\n        /* \"#utility.yul\":8281:8282   */\n      0x00\n        /* \"#utility.yul\":8306:8359   */\n      tag_292\n        /* \"#utility.yul\":8351:8358   */\n      dup6\n        /* \"#utility.yul\":8342:8348   */\n      dup3\n        /* \"#utility.yul\":8331:8340   */\n      dup7\n        /* \"#utility.yul\":8327:8349   */\n      add\n        /* \"#utility.yul\":8306:8359   */\n      tag_175\n      jump\t// in\n    tag_292:\n        /* \"#utility.yul\":8296:8359   */\n      swap3\n      pop\n        /* \"#utility.yul\":8252:8369   */\n      pop\n        /* \"#utility.yul\":8408:8410   */\n      0x20\n        /* \"#utility.yul\":8434:8487   */\n      tag_293\n        /* \"#utility.yul\":8479:8486   */\n      dup6\n        /* \"#utility.yul\":8470:8476   */\n      dup3\n        /* \"#utility.yul\":8459:8468   */\n      dup7\n        /* \"#utility.yul\":8455:8477   */\n      add\n        /* \"#utility.yul\":8434:8487   */\n      tag_175\n      jump\t// in\n    tag_293:\n        /* \"#utility.yul\":8424:8487   */\n      swap2\n      pop\n        /* \"#utility.yul\":8379:8497   */\n      pop\n        /* \"#utility.yul\":8030:8504   */\n      swap3\n      pop\n      swap3\n      swap1\n      pop\n      jump\t// out\n        /* \"#utility.yul\":8510:8669   */\n    tag_190:\n        /* \"#utility.yul\":8650:8661   */\n      0x4e4f545f4f574e45520000000000000000000000000000000000000000000000\n        /* \"#utility.yul\":8646:8647   */\n      0x00\n        /* \"#utility.yul\":8638:8644   */\n      dup3\n        /* \"#utility.yul\":8634:8648   */\n      add\n        /* \"#utility.yul\":8627:8662   */\n      mstore\n        /* \"#utility.yul\":8510:8669   */\n      pop\n      jump\t// out\n        /* \"#utility.yul\":8675:9040   */\n    tag_191:\n        /* \"#utility.yul\":8817:8820   */\n      0x00\n        /* \"#utility.yul\":8838:8904   */\n      tag_296\n        /* \"#utility.yul\":8902:8903   */\n      0x09\n        /* \"#utility.yul\":8897:8900   */\n      dup4\n        /* \"#utility.yul\":8838:8904   */\n      tag_179\n      jump\t// in\n    tag_296:\n        /* \"#utility.yul\":8831:8904   */\n      swap2\n      pop\n        /* \"#utility.yul\":8913:9006   */\n      tag_297\n        /* \"#utility.yul\":9002:9005   */\n      dup3\n        /* \"#utility.yul\":8913:9006   */\n      tag_190\n      jump\t// in\n    tag_297:\n        /* \"#utility.yul\":9031:9033   */\n      0x20\n        /* \"#utility.yul\":9026:9029   */\n      dup3\n        /* \"#utility.yul\":9022:9034   */\n      add\n        /* \"#utility.yul\":9015:9034   */\n      swap1\n      pop\n        /* \"#utility.yul\":8675:9040   */\n      swap2\n      swap1\n      pop\n      jump\t// out\n        /* \"#utility.yul\":9046:9465   */\n    tag_74:\n        /* \"#utility.yul\":9212:9216   */\n      0x00\n        /* \"#utility.yul\":9250:9252   */\n      0x20\n        /* \"#utility.yul\":9239:9248   */\n      dup3\n        /* \"#utility.yul\":9235:9253   */\n      add\n        /* \"#utility.yul\":9227:9253   */\n      swap1\n      pop\n        /* \"#utility.yul\":9299:9308   */\n      dup2\n        /* \"#utility.yul\":9293:9297   */\n      dup2\n        /* \"#utility.yul\":9289:9309   */\n      sub\n        /* \"#utility.yul\":9285:9286   */\n      0x00\n        /* \"#utility.yul\":9274:9283   */\n      dup4\n        /* \"#utility.yul\":9270:9287   */\n      add\n        /* \"#utility.yul\":9263:9310   */\n      mstore\n        /* \"#utility.yul\":9327:9458   */\n      tag_299\n        /* \"#utility.yul\":9453:9457   */\n      dup2\n        /* \"#utility.yul\":9327:9458   */\n      tag_191\n      jump\t// in\n    tag_299:\n        /* \"#utility.yul\":9319:9458   */\n      swap1\n      pop\n        /* \"#utility.yul\":9046:9465   */\n      swap2\n      swap1\n      pop\n      jump\t// out\n        /* \"#utility.yul\":9471:9651   */\n    tag_80:\n        /* \"#utility.yul\":9519:9596   */\n      0x4e487b7100000000000000000000000000000000000000000000000000000000\n        /* \"#utility.yul\":9516:9517   */\n      0x00\n        /* \"#utility.yul\":9509:9597   */\n      mstore\n        /* \"#utility.yul\":9616:9620   */\n      0x32\n        /* \"#utility.yul\":9613:9614   */\n      0x04\n        /* \"#utility.yul\":9606:9621   */\n      mstore\n        /* \"#utility.yul\":9640:9644   */\n      0x24\n        /* \"#utility.yul\":9637:9638   */\n      0x00\n        /* \"#utility.yul\":9630:9645   */\n      revert\n        /* \"#utility.yul\":9657:9837   */\n    tag_192:\n        /* \"#utility.yul\":9705:9782   */\n      0x4e487b7100000000000000000000000000000000000000000000000000000000\n        /* \"#utility.yul\":9702:9703   */\n      0x00\n        /* \"#utility.yul\":9695:9783   */\n      mstore\n        /* \"#utility.yul\":9802:9806   */\n      0x11\n        /* \"#utility.yul\":9799:9800   */\n      0x04\n        /* \"#utility.yul\":9792:9807   */\n      mstore\n        /* \"#utility.yul\":9826:9830   */\n      0x24\n        /* \"#utility.yul\":9823:9824   */\n      0x00\n        /* \"#utility.yul\":9816:9831   */\n      revert\n        /* \"#utility.yul\":9843:10037   */\n    tag_91:\n        /* \"#utility.yul\":9883:9887   */\n      0x00\n        /* \"#utility.yul\":9903:9923   */\n      tag_303\n        /* \"#utility.yul\":9921:9922   */\n      dup3\n        /* \"#utility.yul\":9903:9923   */\n      tag_182\n      jump\t// in\n    tag_303:\n        /* \"#utility.yul\":9898:9923   */\n      swap2\n      pop\n        /* \"#utility.yul\":9937:9957   */\n      tag_304\n        /* \"#utility.yul\":9955:9956   */\n      dup4\n        /* \"#utility.yul\":9937:9957   */\n      tag_182\n      jump\t// in\n    tag_304:\n        /* \"#utility.yul\":9932:9957   */\n      swap3\n      pop\n        /* \"#utility.yul\":9981:9982   */\n      dup3\n        /* \"#utility.yul\":9978:9979   */\n      dup3\n        /* \"#utility.yul\":9974:9983   */\n      sub\n        /* \"#utility.yul\":9966:9983   */\n      swap1\n      pop\n        /* \"#utility.yul\":10005:10006   */\n      dup2\n        /* \"#utility.yul\":9999:10003   */\n      dup2\n        /* \"#utility.yul\":9996:10007   */\n      gt\n        /* \"#utility.yul\":9993:10030   */\n      iszero\n      tag_305\n      jumpi\n        /* \"#utility.yul\":10010:10028   */\n      tag_306\n      tag_192\n      jump\t// in\n    tag_306:\n        /* \"#utility.yul\":9993:10030   */\n    tag_305:\n        /* \"#utility.yul\":9843:10037   */\n      swap3\n      swap2\n      pop\n      pop\n      jump\t// out\n        /* \"#utility.yul\":10043:10223   */\n    tag_100:\n        /* \"#utility.yul\":10091:10168   */\n      0x4e487b7100000000000000000000000000000000000000000000000000000000\n        /* \"#utility.yul\":10088:10089   */\n      0x00\n        /* \"#utility.yul\":10081:10169   */\n      mstore\n        /* \"#utility.yul\":10188:10192   */\n      0x31\n        /* \"#utility.yul\":10185:10186   */\n      0x04\n        /* \"#utility.yul\":10178:10193   */\n      mstore\n        /* \"#utility.yul\":10212:10216   */\n      0x24\n        /* \"#utility.yul\":10209:10210   */\n      0x00\n        /* \"#utility.yul\":10202:10217   */\n      revert\n        /* \"#utility.yul\":10229:10462   */\n    tag_103:\n        /* \"#utility.yul\":10268:10271   */\n      0x00\n        /* \"#utility.yul\":10291:10315   */\n      tag_309\n        /* \"#utility.yul\":10309:10314   */\n      dup3\n        /* \"#utility.yul\":10291:10315   */\n      tag_182\n      jump\t// in\n    tag_309:\n        /* \"#utility.yul\":10282:10315   */\n      swap2\n      pop\n        /* \"#utility.yul\":10337:10403   */\n      0xffffffffffffffffffffffffffffffffffffffffffffffffffffffffffffffff\n        /* \"#utility.yul\":10330:10335   */\n      dup3\n        /* \"#utility.yul\":10327:10404   */\n      sub\n        /* \"#utility.yul\":10324:10427   */\n      tag_310\n      jumpi\n        /* \"#utility.yul\":10407:10425   */\n      tag_311\n      tag_192\n      jump\t// in\n    tag_311:\n        /* \"#utility.yul\":10324:10427   */\n    tag_310:\n        /* \"#utility.yul\":10454:10455   */\n      0x01\n        /* \"#utility.yul\":10447:10452   */\n      dup3\n        /* \"#utility.yul\":10443:10456   */\n      add\n        /* \"#utility.yul\":10436:10456   */\n      swap1\n      pop\n        /* \"#utility.yul\":10229:10462   */\n      swap2\n      swap1\n      pop\n      jump\t// out\n        /* \"#utility.yul\":10468:10648   */\n    tag_193:\n        /* \"#utility.yul\":10516:10593   */\n      0x4e487b7100000000000000000000000000000000000000000000000000000000\n        /* \"#utility.yul\":10513:10514   */\n      0x00\n        /* \"#utility.yul\":10506:10594   */\n      mstore\n        /* \"#utility.yul\":10613:10617   */\n      0x22\n        /* \"#utility.yul\":10610:10611   */\n      0x04\n        /* \"#utility.yul\":10603:10618   */\n      mstore\n        /* \"#utility.yul\":10637:10641   */\n      0x24\n        /* \"#utility.yul\":10634:10635   */\n      0x00\n        /* \"#utility.yul\":10627:10642   */\n      revert\n        /* \"#utility.yul\":10654:10974   */\n    tag_106:\n        /* \"#utility.yul\":10698:10704   */\n      0x00\n        /* \"#utility.yul\":10735:10736   */\n      0x02\n        /* \"#utility.yul\":10729:10733   */\n      dup3\n        /* \"#utility.yul\":10725:10737   */\n      div\n        /* \"#utility.yul\":10715:10737   */\n      swap1\n      pop\n        /* \"#utility.yul\":10782:10783   */\n      0x01\n        /* \"#utility.yul\":10776:10780   */\n      dup3\n        /* \"#utility.yul\":10772:10784   */\n      and\n        /* \"#utility.yul\":10803:10821   */\n      dup1\n        /* \"#utility.yul\":10793:10874   */\n      tag_314\n      jumpi\n        /* \"#utility.yul\":10859:10863   */\n      0x7f\n        /* \"#utility.yul\":10851:10857   */\n      dup3\n        /* \"#utility.yul\":10847:10864   */\n      and\n        /* \"#utility.yul\":10837:10864   */\n      swap2\n      pop\n        /* \"#utility.yul\":10793:10874   */\n    tag_314:\n        /* \"#utility.yul\":10921:10923   */\n      0x20\n        /* \"#utility.yul\":10913:10919   */\n      dup3\n        /* \"#utility.yul\":10910:10924   */\n      lt\n        /* \"#utility.yul\":10890:10908   */\n      dup2\n        /* \"#utility.yul\":10887:10925   */\n      sub\n        /* \"#utility.yul\":10884:10968   */\n      tag_315\n      jumpi\n        /* \"#utility.yul\":10940:10958   */\n      tag_316\n      tag_193\n      jump\t// in\n    tag_316:\n        /* \"#utility.yul\":10884:10968   */\n    tag_315:\n        /* \"#utility.yul\":10705:10974   */\n      pop\n        /* \"#utility.yul\":10654:10974   */\n      swap2\n      swap1\n      pop\n      jump\t// out\n        /* \"#utility.yul\":10980:11171   */\n    tag_117:\n        /* \"#utility.yul\":11020:11023   */\n      0x00\n        /* \"#utility.yul\":11039:11059   */\n      tag_318\n        /* \"#utility.yul\":11057:11058   */\n      dup3\n        /* \"#utility.yul\":11039:11059   */\n      tag_182\n      jump\t// in\n    tag_318:\n        /* \"#utility.yul\":11034:11059   */\n      swap2\n      pop\n        /* \"#utility.yul\":11073:11093   */\n      tag_319\n        /* \"#utility.yul\":11091:11092   */\n      dup4\n        /* \"#utility.yul\":11073:11093   */\n      tag_182\n      jump\t// in\n    tag_319:\n        /* \"#utility.yul\":11068:11093   */\n      swap3\n      pop\n        /* \"#utility.yul\":11116:11117   */\n      dup3\n        /* \"#utility.yul\":11113:11114   */\n      dup3\n        /* \"#utility.yul\":11109:11118   */\n      add\n        /* \"#utility.yul\":11102:11118   */\n      swap1\n      pop\n        /* \"#utility.yul\":11137:11140   */\n      dup1\n        /* \"#utility.yul\":11134:11135   */\n      dup3\n        /* \"#utility.yul\":11131:11141   */\n      gt\n        /* \"#utility.yul\":11128:11164   */\n      iszero\n      tag_320\n      jumpi\n        /* \"#utility.yul\":11144:11162   */\n      tag_321\n      tag_192\n      jump\t// in\n    tag_321:\n        /* \"#utility.yul\":11128:11164   */\n    tag_320:\n        /* \"#utility.yul\":10980:11171   */\n      swap3\n      swap2\n      pop\n      pop\n      jump\t// out\n        /* \"#utility.yul\":11177:11347   */\n    tag_194:\n        /* \"#utility.yul\":11317:11339   */\n      0x436f6e7472616374206e6f7420616c6c6f776564000000000000000000000000\n        /* \"#utility.yul\":11313:11314   */\n      0x00\n        /* \"#utility.yul\":11305:11311   */\n      dup3\n        /* \"#utility.yul\":11301:11315   */\n      add\n        /* \"#utility.yul\":11294:11340   */\n      mstore\n        /* \"#utility.yul\":11177:11347   */\n      pop\n      jump\t// out\n        /* \"#utility.yul\":11353:11719   */\n    tag_195:\n        /* \"#utility.yul\":11495:11498   */\n      0x00\n        /* \"#utility.yul\":11516:11583   */\n      tag_324\n        /* \"#utility.yul\":11580:11582   */\n      0x14\n        /* \"#utility.yul\":11575:11578   */\n      dup4\n        /* \"#utility.yul\":11516:11583   */\n      tag_179\n      jump\t// in\n    tag_324:\n        /* \"#utility.yul\":11509:11583   */\n      swap2\n      pop\n        /* \"#utility.yul\":11592:11685   */\n      tag_325\n        /* \"#utility.yul\":11681:11684   */\n      dup3\n        /* \"#utility.yul\":11592:11685   */\n      tag_194\n      jump\t// in\n    tag_325:\n        /* \"#utility.yul\":11710:11712   */\n      0x20\n        /* \"#utility.yul\":11705:11708   */\n      dup3\n        /* \"#utility.yul\":11701:11713   */\n      add\n        /* \"#utility.yul\":11694:11713   */\n      swap1\n      pop\n        /* \"#utility.yul\":11353:11719   */\n      swap2\n      swap1\n      pop\n      jump\t// out\n        /* \"#utility.yul\":11725:12144   */\n    tag_122:\n        /* \"#utility.yul\":11891:11895   */\n      0x00\n        /* \"#utility.yul\":11929:11931   */\n      0x20\n        /* \"#utility.yul\":11918:11927   */\n      dup3\n        /* \"#utility.yul\":11914:11932   */\n      add\n        /* \"#utility.yul\":11906:11932   */\n      swap1\n      pop\n        /* \"#utility.yul\":11978:11987   */\n      dup2\n        /* \"#utility.yul\":11972:11976   */\n      dup2\n        /* \"#utility.yul\":11968:11988   */\n      sub\n        /* \"#utility.yul\":11964:11965   */\n      0x00\n        /* \"#utility.yul\":11953:11962   */\n      dup4\n        /* \"#utility.yul\":11949:11966   */\n      add\n        /* \"#utility.yul\":11942:11989   */\n      mstore\n        /* \"#utility.yul\":12006:12137   */\n      tag_327\n        /* \"#utility.yul\":12132:12136   */\n      dup2\n        /* \"#utility.yul\":12006:12137   */\n      tag_195\n      jump\t// in\n    tag_327:\n        /* \"#utility.yul\":11998:12137   */\n      swap1\n      pop\n        /* \"#utility.yul\":11725:12144   */\n      swap2\n      swap1\n      pop\n      jump\t// out\n        /* \"#utility.yul\":12150:12560   */\n    tag_125:\n        /* \"#utility.yul\":12190:12197   */\n      0x00\n        /* \"#utility.yul\":12213:12233   */\n      tag_329\n        /* \"#utility.yul\":12231:12232   */\n      dup3\n        /* \"#utility.yul\":12213:12233   */\n      tag_182\n      jump\t// in\n    tag_329:\n        /* \"#utility.yul\":12208:12233   */\n      swap2\n      pop\n        /* \"#utility.yul\":12247:12267   */\n      tag_330\n        /* \"#utility.yul\":12265:12266   */\n      dup4\n        /* \"#utility.yul\":12247:12267   */\n      tag_182\n      jump\t// in\n    tag_330:\n        /* \"#utility.yul\":12242:12267   */\n      swap3\n      pop\n        /* \"#utility.yul\":12302:12303   */\n      dup3\n        /* \"#utility.yul\":12299:12300   */\n      dup3\n        /* \"#utility.yul\":12295:12304   */\n      mul\n        /* \"#utility.yul\":12324:12354   */\n      tag_331\n        /* \"#utility.yul\":12342:12353   */\n      dup2\n        /* \"#utility.yul\":12324:12354   */\n      tag_182\n      jump\t// in\n    tag_331:\n        /* \"#utility.yul\":12313:12354   */\n      swap2\n      pop\n        /* \"#utility.yul\":12503:12504   */\n      dup3\n        /* \"#utility.yul\":12494:12501   */\n      dup3\n        /* \"#utility.yul\":12490:12505   */\n      div\n        /* \"#utility.yul\":12487:12488   */\n      dup5\n        /* \"#utility.yul\":12484:12506   */\n      eq\n        /* \"#utility.yul\":12464:12465   */\n      dup4\n        /* \"#utility.yul\":12457:12466   */\n      iszero\n        /* \"#utility.yul\":12437:12520   */\n      or\n        /* \"#utility.yul\":12414:12553   */\n      tag_332\n      jumpi\n        /* \"#utility.yul\":12533:12551   */\n      tag_333\n      tag_192\n      jump\t// in\n    tag_333:\n        /* \"#utility.yul\":12414:12553   */\n    tag_332:\n        /* \"#utility.yul\":12198:12560   */\n      pop\n        /* \"#utility.yul\":12150:12560   */\n      swap3\n      swap2\n      pop\n      pop\n      jump\t// out\n\n    auxdata: 0xa26469706673582212205b4e0b032c2d5f3adddd2efc2960ea09bf2019b8036c095603a7c952858e750664736f6c63430008130033\n}\n",
				"bytecode": {
					"linkReferences": {},
					"object": "60806040523480156200001157600080fd5b506040518060400160405280600c81526020017f4372656469742053636f726500000000000000000000000000000000000000008152506040518060400160405280600681526020017f43524544495400000000000000000000000000000000000000000000000000008152506012826003908162000091919062000383565b508160049081620000a3919062000383565b5080600560006101000a81548160ff021916908360ff16021790555050505033600560016101000a81548173ffffffffffffffffffffffffffffffffffffffff021916908373ffffffffffffffffffffffffffffffffffffffff1602179055506200046a565b600081519050919050565b7f4e487b7100000000000000000000000000000000000000000000000000000000600052604160045260246000fd5b7f4e487b7100000000000000000000000000000000000000000000000000000000600052602260045260246000fd5b600060028204905060018216806200018b57607f821691505b602082108103620001a157620001a062000143565b5b50919050565b60008190508160005260206000209050919050565b60006020601f8301049050919050565b600082821b905092915050565b6000600883026200020b7fffffffffffffffffffffffffffffffffffffffffffffffffffffffffffffffff82620001cc565b620002178683620001cc565b95508019841693508086168417925050509392505050565b6000819050919050565b6000819050919050565b6000620002646200025e62000258846200022f565b62000239565b6200022f565b9050919050565b6000819050919050565b620002808362000243565b620002986200028f826200026b565b848454620001d9565b825550505050565b600090565b620002af620002a0565b620002bc81848462000275565b505050565b5b81811015620002e457620002d8600082620002a5565b600181019050620002c2565b5050565b601f8211156200033357620002fd81620001a7565b6200030884620001bc565b8101602085101562000318578190505b620003306200032785620001bc565b830182620002c1565b50505b505050565b600082821c905092915050565b6000620003586000198460080262000338565b1980831691505092915050565b600062000373838362000345565b9150826002028217905092915050565b6200038e8262000109565b67ffffffffffffffff811115620003aa57620003a962000114565b5b620003b6825462000172565b620003c3828285620002e8565b600060209050601f831160018114620003fb5760008415620003e6578287015190505b620003f2858262000365565b86555062000462565b601f1984166200040b86620001a7565b60005b8281101562000435578489015182556001820191506020850194506020810190506200040e565b8683101562000455578489015162000451601f89168262000345565b8355505b6001600288020188555050505b505050505050565b6116c5806200047a6000396000f3fe608060405234801561001057600080fd5b50600436106100cf5760003560e01c806340c10f191161008c5780639dc29fac116100665780639dc29fac14610214578063a9059cbb14610230578063dd62ed3e14610260578063f9da191314610290576100cf565b806340c10f19146101aa57806370a08231146101c657806395d89b41146101f6576100cf565b806303ce50fa146100d457806306fdde03146100f0578063095ea7b31461010e57806318160ddd1461013e57806323b872dd1461015c578063313ce5671461018c575b600080fd5b6100ee60048036038101906100e99190611121565b6102ac565b005b6100f8610578565b60405161010591906111e9565b60405180910390f35b61012860048036038101906101239190611241565b610606565b604051610135919061129c565b60405180910390f35b6101466106f8565b60405161015391906112c6565b60405180910390f35b610176600480360381019061017191906112e1565b6106fe565b604051610183919061129c565b60405180910390f35b6101946108af565b6040516101a19190611350565b60405180910390f35b6101c460048036038101906101bf9190611241565b6108c2565b005b6101e060048036038101906101db919061136b565b61096f565b6040516101ed91906112c6565b60405180910390f35b6101fe610987565b60405161020b91906111e9565b60405180910390f35b61022e60048036038101906102299190611241565b610a15565b005b61024a60048036038101906102459190611241565b610ac2565b604051610257919061129c565b60405180910390f35b61027a60048036038101906102759190611398565b610bdf565b60405161028791906112c6565b60405180910390f35b6102aa60048036038101906102a59190611121565b610c04565b005b600560019054906101000a900473ffffffffffffffffffffffffffffffffffffffff1673ffffffffffffffffffffffffffffffffffffffff163373ffffffffffffffffffffffffffffffffffffffff161461033c576040517f08c379a000000000000000000000000000000000000000000000000000000000815260040161033390611424565b60405180910390fd5b60005b81518110156105745760006006600084848151811061036157610360611444565b5b602002602001015173ffffffffffffffffffffffffffffffffffffffff1673ffffffffffffffffffffffffffffffffffffffff16815260200190815260200160002060006101000a81548160ff02191690831515021790555060005b600780549050811015610560578282815181106103dd576103dc611444565b5b602002602001015173ffffffffffffffffffffffffffffffffffffffff166007828154811061040f5761040e611444565b5b9060005260206000200160009054906101000a900473ffffffffffffffffffffffffffffffffffffffff1673ffffffffffffffffffffffffffffffffffffffff160361054d576007600160078054905061046991906114a2565b8154811061047a57610479611444565b5b9060005260206000200160009054906101000a900473ffffffffffffffffffffffffffffffffffffffff16600782815481106104b9576104b8611444565b5b9060005260206000200160006101000a81548173ffffffffffffffffffffffffffffffffffffffff021916908373ffffffffffffffffffffffffffffffffffffffff1602179055506007805480610513576105126114d6565b5b6001900381819060005260206000200160006101000a81549073ffffffffffffffffffffffffffffffffffffffff02191690559055610560565b808061055890611505565b9150506103bd565b50808061056c90611505565b91505061033f565b5050565b600380546105859061157c565b80601f01602080910402602001604051908101604052809291908181526020018280546105b19061157c565b80156105fe5780601f106105d3576101008083540402835291602001916105fe565b820191906000526020600020905b8154815290600101906020018083116105e157829003601f168201915b505050505081565b600081600260003373ffffffffffffffffffffffffffffffffffffffff1673ffffffffffffffffffffffffffffffffffffffff16815260200190815260200160002060008573ffffffffffffffffffffffffffffffffffffffff1673ffffffffffffffffffffffffffffffffffffffff168152602001908152602001600020819055508273ffffffffffffffffffffffffffffffffffffffff163373ffffffffffffffffffffffffffffffffffffffff167f8c5be1e5ebec7d5bd14f71427d1e84f3dd0314c0f7b2291e5b200ac8c7c3b925846040516106e691906112c6565b60405180910390a36001905092915050565b60005481565b600081600260008673ffffffffffffffffffffffffffffffffffffffff1673ffffffffffffffffffffffffffffffffffffffff16815260200190815260200160002060003373ffffffffffffffffffffffffffffffffffffffff1673ffffffffffffffffffffffffffffffffffffffff168152602001908152602001600020600082825461078c91906114a2565b9250508190555081600160008673ffffffffffffffffffffffffffffffffffffffff1673ffffffffffffffffffffffffffffffffffffffff16815260200190815260200160002060008282546107e291906114a2565b9250508190555081600160008573ffffffffffffffffffffffffffffffffffffffff1673ffffffffffffffffffffffffffffffffffffffff168152602001908152602001600020600082825461083891906115ad565b925050819055508273ffffffffffffffffffffffffffffffffffffffff168473ffffffffffffffffffffffffffffffffffffffff167fddf252ad1be2c89b69c2b068fc378daa952ba7f163c4a11628f55a4df523b3ef8460405161089c91906112c6565b60405180910390a3600190509392505050565b600560009054906101000a900460ff1681565b600660008373ffffffffffffffffffffffffffffffffffffffff1673ffffffffffffffffffffffffffffffffffffffff16815260200190815260200160002060009054906101000a900460ff1661094e576040517f08c379a00000000000000000000000000000000000000000000000000000000081526004016109459061162d565b60405180910390fd5b61096b82670de0b6b3a764000083610966919061164d565b610da6565b5050565b60016020528060005260406000206000915090505481565b600480546109949061157c565b80601f01602080910402602001604051908101604052809291908181526020018280546109c09061157c565b8015610a0d5780601f106109e257610100808354040283529160200191610a0d565b820191906000526020600020905b8154815290600101906020018083116109f057829003601f168201915b505050505081565b600660008373ffffffffffffffffffffffffffffffffffffffff1673ffffffffffffffffffffffffffffffffffffffff16815260200190815260200160002060009054906101000a900460ff16610aa1576040517f08c379a0000000000000000000000000000000000000000000000000000000008152600401610a989061162d565b60405180910390fd5b610abe82670de0b6b3a764000083610ab9919061164d565b610e7e565b5050565b600081600160003373ffffffffffffffffffffffffffffffffffffffff1673ffffffffffffffffffffffffffffffffffffffff1681526020019081526020016000206000828254610b1391906114a2565b9250508190555081600160008573ffffffffffffffffffffffffffffffffffffffff1673ffffffffffffffffffffffffffffffffffffffff1681526020019081526020016000206000828254610b6991906115ad565b925050819055508273ffffffffffffffffffffffffffffffffffffffff163373ffffffffffffffffffffffffffffffffffffffff167fddf252ad1be2c89b69c2b068fc378daa952ba7f163c4a11628f55a4df523b3ef84604051610bcd91906112c6565b60405180910390a36001905092915050565b6002602052816000526040600020602052806000526040600020600091509150505481565b600560019054906101000a900473ffffffffffffffffffffffffffffffffffffffff1673ffffffffffffffffffffffffffffffffffffffff163373ffffffffffffffffffffffffffffffffffffffff1614610c94576040517f08c379a0000000000000000000000000000000000000000000000000000000008152600401610c8b90611424565b60405180910390fd5b60005b8151811015610da257600160066000848481518110610cb957610cb8611444565b5b602002602001015173ffffffffffffffffffffffffffffffffffffffff1673ffffffffffffffffffffffffffffffffffffffff16815260200190815260200160002060006101000a81548160ff0219169083151502179055506007828281518110610d2757610d26611444565b5b60200260200101519080600181540180825580915050600190039060005260206000200160009091909190916101000a81548173ffffffffffffffffffffffffffffffffffffffff021916908373ffffffffffffffffffffffffffffffffffffffff1602179055508080610d9a90611505565b915050610c97565b5050565b80600160008473ffffffffffffffffffffffffffffffffffffffff1673ffffffffffffffffffffffffffffffffffffffff1681526020019081526020016000206000828254610df591906115ad565b9250508190555080600080828254610e0d91906115ad565b925050819055508173ffffffffffffffffffffffffffffffffffffffff16600073ffffffffffffffffffffffffffffffffffffffff167fddf252ad1be2c89b69c2b068fc378daa952ba7f163c4a11628f55a4df523b3ef83604051610e7291906112c6565b60405180910390a35050565b80600160008473ffffffffffffffffffffffffffffffffffffffff1673ffffffffffffffffffffffffffffffffffffffff1681526020019081526020016000206000828254610ecd91906114a2565b9250508190555080600080828254610ee591906114a2565b92505081905550600073ffffffffffffffffffffffffffffffffffffffff168273ffffffffffffffffffffffffffffffffffffffff167fddf252ad1be2c89b69c2b068fc378daa952ba7f163c4a11628f55a4df523b3ef83604051610f4a91906112c6565b60405180910390a35050565b6000604051905090565b600080fd5b600080fd5b600080fd5b6000601f19601f8301169050919050565b7f4e487b7100000000000000000000000000000000000000000000000000000000600052604160045260246000fd5b610fb882610f6f565b810181811067ffffffffffffffff82111715610fd757610fd6610f80565b5b80604052505050565b6000610fea610f56565b9050610ff68282610faf565b919050565b600067ffffffffffffffff82111561101657611015610f80565b5b602082029050602081019050919050565b600080fd5b600073ffffffffffffffffffffffffffffffffffffffff82169050919050565b60006110578261102c565b9050919050565b6110678161104c565b811461107257600080fd5b50565b6000813590506110848161105e565b92915050565b600061109d61109884610ffb565b610fe0565b905080838252602082019050602084028301858111156110c0576110bf611027565b5b835b818110156110e957806110d58882611075565b8452602084019350506020810190506110c2565b5050509392505050565b600082601f83011261110857611107610f6a565b5b813561111884826020860161108a565b91505092915050565b60006020828403121561113757611136610f60565b5b600082013567ffffffffffffffff81111561115557611154610f65565b5b611161848285016110f3565b91505092915050565b600081519050919050565b600082825260208201905092915050565b60005b838110156111a4578082015181840152602081019050611189565b60008484015250505050565b60006111bb8261116a565b6111c58185611175565b93506111d5818560208601611186565b6111de81610f6f565b840191505092915050565b6000602082019050818103600083015261120381846111b0565b905092915050565b6000819050919050565b61121e8161120b565b811461122957600080fd5b50565b60008135905061123b81611215565b92915050565b6000806040838503121561125857611257610f60565b5b600061126685828601611075565b92505060206112778582860161122c565b9150509250929050565b60008115159050919050565b61129681611281565b82525050565b60006020820190506112b1600083018461128d565b92915050565b6112c08161120b565b82525050565b60006020820190506112db60008301846112b7565b92915050565b6000806000606084860312156112fa576112f9610f60565b5b600061130886828701611075565b935050602061131986828701611075565b925050604061132a8682870161122c565b9150509250925092565b600060ff82169050919050565b61134a81611334565b82525050565b60006020820190506113656000830184611341565b92915050565b60006020828403121561138157611380610f60565b5b600061138f84828501611075565b91505092915050565b600080604083850312156113af576113ae610f60565b5b60006113bd85828601611075565b92505060206113ce85828601611075565b9150509250929050565b7f4e4f545f4f574e45520000000000000000000000000000000000000000000000600082015250565b600061140e600983611175565b9150611419826113d8565b602082019050919050565b6000602082019050818103600083015261143d81611401565b9050919050565b7f4e487b7100000000000000000000000000000000000000000000000000000000600052603260045260246000fd5b7f4e487b7100000000000000000000000000000000000000000000000000000000600052601160045260246000fd5b60006114ad8261120b565b91506114b88361120b565b92508282039050818111156114d0576114cf611473565b5b92915050565b7f4e487b7100000000000000000000000000000000000000000000000000000000600052603160045260246000fd5b60006115108261120b565b91507fffffffffffffffffffffffffffffffffffffffffffffffffffffffffffffffff820361154257611541611473565b5b600182019050919050565b7f4e487b7100000000000000000000000000000000000000000000000000000000600052602260045260246000fd5b6000600282049050600182168061159457607f821691505b6020821081036115a7576115a661154d565b5b50919050565b60006115b88261120b565b91506115c38361120b565b92508282019050808211156115db576115da611473565b5b92915050565b7f436f6e7472616374206e6f7420616c6c6f776564000000000000000000000000600082015250565b6000611617601483611175565b9150611622826115e1565b602082019050919050565b600060208201905081810360008301526116468161160a565b9050919050565b60006116588261120b565b91506116638361120b565b92508282026116718161120b565b9150828204841483151761168857611687611473565b5b509291505056fea26469706673582212205b4e0b032c2d5f3adddd2efc2960ea09bf2019b8036c095603a7c952858e750664736f6c63430008130033",
					"opcodes": "PUSH1 0x80 PUSH1 0x40 MSTORE CALLVALUE DUP1 ISZERO PUSH3 0x11 JUMPI PUSH1 0x0 DUP1 REVERT JUMPDEST POP PUSH1 0x40 MLOAD DUP1 PUSH1 0x40 ADD PUSH1 0x40 MSTORE DUP1 PUSH1 0xC DUP2 MSTORE PUSH1 0x20 ADD PUSH32 0x4372656469742053636F72650000000000000000000000000000000000000000 DUP2 MSTORE POP PUSH1 0x40 MLOAD DUP1 PUSH1 0x40 ADD PUSH1 0x40 MSTORE DUP1 PUSH1 0x6 DUP2 MSTORE PUSH1 0x20 ADD PUSH32 0x4352454449540000000000000000000000000000000000000000000000000000 DUP2 MSTORE POP PUSH1 0x12 DUP3 PUSH1 0x3 SWAP1 DUP2 PUSH3 0x91 SWAP2 SWAP1 PUSH3 0x383 JUMP JUMPDEST POP DUP2 PUSH1 0x4 SWAP1 DUP2 PUSH3 0xA3 SWAP2 SWAP1 PUSH3 0x383 JUMP JUMPDEST POP DUP1 PUSH1 0x5 PUSH1 0x0 PUSH2 0x100 EXP DUP2 SLOAD DUP2 PUSH1 0xFF MUL NOT AND SWAP1 DUP4 PUSH1 0xFF AND MUL OR SWAP1 SSTORE POP POP POP POP CALLER PUSH1 0x5 PUSH1 0x1 PUSH2 0x100 EXP DUP2 SLOAD DUP2 PUSH20 0xFFFFFFFFFFFFFFFFFFFFFFFFFFFFFFFFFFFFFFFF MUL NOT AND SWAP1 DUP4 PUSH20 0xFFFFFFFFFFFFFFFFFFFFFFFFFFFFFFFFFFFFFFFF AND MUL OR SWAP1 SSTORE POP PUSH3 0x46A JUMP JUMPDEST PUSH1 0x0 DUP2 MLOAD SWAP1 POP SWAP2 SWAP1 POP JUMP JUMPDEST PUSH32 0x4E487B7100000000000000000000000000000000000000000000000000000000 PUSH1 0x0 MSTORE PUSH1 0x41 PUSH1 0x4 MSTORE PUSH1 0x24 PUSH1 0x0 REVERT JUMPDEST PUSH32 0x4E487B7100000000000000000000000000000000000000000000000000000000 PUSH1 0x0 MSTORE PUSH1 0x22 PUSH1 0x4 MSTORE PUSH1 0x24 PUSH1 0x0 REVERT JUMPDEST PUSH1 0x0 PUSH1 0x2 DUP3 DIV SWAP1 POP PUSH1 0x1 DUP3 AND DUP1 PUSH3 0x18B JUMPI PUSH1 0x7F DUP3 AND SWAP2 POP JUMPDEST PUSH1 0x20 DUP3 LT DUP2 SUB PUSH3 0x1A1 JUMPI PUSH3 0x1A0 PUSH3 0x143 JUMP JUMPDEST JUMPDEST POP SWAP2 SWAP1 POP JUMP JUMPDEST PUSH1 0x0 DUP2 SWAP1 POP DUP2 PUSH1 0x0 MSTORE PUSH1 0x20 PUSH1 0x0 KECCAK256 SWAP1 POP SWAP2 SWAP1 POP JUMP JUMPDEST PUSH1 0x0 PUSH1 0x20 PUSH1 0x1F DUP4 ADD DIV SWAP1 POP SWAP2 SWAP1 POP JUMP JUMPDEST PUSH1 0x0 DUP3 DUP3 SHL SWAP1 POP SWAP3 SWAP2 POP POP JUMP JUMPDEST PUSH1 0x0 PUSH1 0x8 DUP4 MUL PUSH3 0x20B PUSH32 0xFFFFFFFFFFFFFFFFFFFFFFFFFFFFFFFFFFFFFFFFFFFFFFFFFFFFFFFFFFFFFFFF DUP3 PUSH3 0x1CC JUMP JUMPDEST PUSH3 0x217 DUP7 DUP4 PUSH3 0x1CC JUMP JUMPDEST SWAP6 POP DUP1 NOT DUP5 AND SWAP4 POP DUP1 DUP7 AND DUP5 OR SWAP3 POP POP POP SWAP4 SWAP3 POP POP POP JUMP JUMPDEST PUSH1 0x0 DUP2 SWAP1 POP SWAP2 SWAP1 POP JUMP JUMPDEST PUSH1 0x0 DUP2 SWAP1 POP SWAP2 SWAP1 POP JUMP JUMPDEST PUSH1 0x0 PUSH3 0x264 PUSH3 0x25E PUSH3 0x258 DUP5 PUSH3 0x22F JUMP JUMPDEST PUSH3 0x239 JUMP JUMPDEST PUSH3 0x22F JUMP JUMPDEST SWAP1 POP SWAP2 SWAP1 POP JUMP JUMPDEST PUSH1 0x0 DUP2 SWAP1 POP SWAP2 SWAP1 POP JUMP JUMPDEST PUSH3 0x280 DUP4 PUSH3 0x243 JUMP JUMPDEST PUSH3 0x298 PUSH3 0x28F DUP3 PUSH3 0x26B JUMP JUMPDEST DUP5 DUP5 SLOAD PUSH3 0x1D9 JUMP JUMPDEST DUP3 SSTORE POP POP POP POP JUMP JUMPDEST PUSH1 0x0 SWAP1 JUMP JUMPDEST PUSH3 0x2AF PUSH3 0x2A0 JUMP JUMPDEST PUSH3 0x2BC DUP2 DUP5 DUP5 PUSH3 0x275 JUMP JUMPDEST POP POP POP JUMP JUMPDEST JUMPDEST DUP2 DUP2 LT ISZERO PUSH3 0x2E4 JUMPI PUSH3 0x2D8 PUSH1 0x0 DUP3 PUSH3 0x2A5 JUMP JUMPDEST PUSH1 0x1 DUP2 ADD SWAP1 POP PUSH3 0x2C2 JUMP JUMPDEST POP POP JUMP JUMPDEST PUSH1 0x1F DUP3 GT ISZERO PUSH3 0x333 JUMPI PUSH3 0x2FD DUP2 PUSH3 0x1A7 JUMP JUMPDEST PUSH3 0x308 DUP5 PUSH3 0x1BC JUMP JUMPDEST DUP2 ADD PUSH1 0x20 DUP6 LT ISZERO PUSH3 0x318 JUMPI DUP2 SWAP1 POP JUMPDEST PUSH3 0x330 PUSH3 0x327 DUP6 PUSH3 0x1BC JUMP JUMPDEST DUP4 ADD DUP3 PUSH3 0x2C1 JUMP JUMPDEST POP POP JUMPDEST POP POP POP JUMP JUMPDEST PUSH1 0x0 DUP3 DUP3 SHR SWAP1 POP SWAP3 SWAP2 POP POP JUMP JUMPDEST PUSH1 0x0 PUSH3 0x358 PUSH1 0x0 NOT DUP5 PUSH1 0x8 MUL PUSH3 0x338 JUMP JUMPDEST NOT DUP1 DUP4 AND SWAP2 POP POP SWAP3 SWAP2 POP POP JUMP JUMPDEST PUSH1 0x0 PUSH3 0x373 DUP4 DUP4 PUSH3 0x345 JUMP JUMPDEST SWAP2 POP DUP3 PUSH1 0x2 MUL DUP3 OR SWAP1 POP SWAP3 SWAP2 POP POP JUMP JUMPDEST PUSH3 0x38E DUP3 PUSH3 0x109 JUMP JUMPDEST PUSH8 0xFFFFFFFFFFFFFFFF DUP2 GT ISZERO PUSH3 0x3AA JUMPI PUSH3 0x3A9 PUSH3 0x114 JUMP JUMPDEST JUMPDEST PUSH3 0x3B6 DUP3 SLOAD PUSH3 0x172 JUMP JUMPDEST PUSH3 0x3C3 DUP3 DUP3 DUP6 PUSH3 0x2E8 JUMP JUMPDEST PUSH1 0x0 PUSH1 0x20 SWAP1 POP PUSH1 0x1F DUP4 GT PUSH1 0x1 DUP2 EQ PUSH3 0x3FB JUMPI PUSH1 0x0 DUP5 ISZERO PUSH3 0x3E6 JUMPI DUP3 DUP8 ADD MLOAD SWAP1 POP JUMPDEST PUSH3 0x3F2 DUP6 DUP3 PUSH3 0x365 JUMP JUMPDEST DUP7 SSTORE POP PUSH3 0x462 JUMP JUMPDEST PUSH1 0x1F NOT DUP5 AND PUSH3 0x40B DUP7 PUSH3 0x1A7 JUMP JUMPDEST PUSH1 0x0 JUMPDEST DUP3 DUP2 LT ISZERO PUSH3 0x435 JUMPI DUP5 DUP10 ADD MLOAD DUP3 SSTORE PUSH1 0x1 DUP3 ADD SWAP2 POP PUSH1 0x20 DUP6 ADD SWAP5 POP PUSH1 0x20 DUP2 ADD SWAP1 POP PUSH3 0x40E JUMP JUMPDEST DUP7 DUP4 LT ISZERO PUSH3 0x455 JUMPI DUP5 DUP10 ADD MLOAD PUSH3 0x451 PUSH1 0x1F DUP10 AND DUP3 PUSH3 0x345 JUMP JUMPDEST DUP4 SSTORE POP JUMPDEST PUSH1 0x1 PUSH1 0x2 DUP9 MUL ADD DUP9 SSTORE POP POP POP JUMPDEST POP POP POP POP POP POP JUMP JUMPDEST PUSH2 0x16C5 DUP1 PUSH3 0x47A PUSH1 0x0 CODECOPY PUSH1 0x0 RETURN INVALID PUSH1 0x80 PUSH1 0x40 MSTORE CALLVALUE DUP1 ISZERO PUSH2 0x10 JUMPI PUSH1 0x0 DUP1 REVERT JUMPDEST POP PUSH1 0x4 CALLDATASIZE LT PUSH2 0xCF JUMPI PUSH1 0x0 CALLDATALOAD PUSH1 0xE0 SHR DUP1 PUSH4 0x40C10F19 GT PUSH2 0x8C JUMPI DUP1 PUSH4 0x9DC29FAC GT PUSH2 0x66 JUMPI DUP1 PUSH4 0x9DC29FAC EQ PUSH2 0x214 JUMPI DUP1 PUSH4 0xA9059CBB EQ PUSH2 0x230 JUMPI DUP1 PUSH4 0xDD62ED3E EQ PUSH2 0x260 JUMPI DUP1 PUSH4 0xF9DA1913 EQ PUSH2 0x290 JUMPI PUSH2 0xCF JUMP JUMPDEST DUP1 PUSH4 0x40C10F19 EQ PUSH2 0x1AA JUMPI DUP1 PUSH4 0x70A08231 EQ PUSH2 0x1C6 JUMPI DUP1 PUSH4 0x95D89B41 EQ PUSH2 0x1F6 JUMPI PUSH2 0xCF JUMP JUMPDEST DUP1 PUSH4 0x3CE50FA EQ PUSH2 0xD4 JUMPI DUP1 PUSH4 0x6FDDE03 EQ PUSH2 0xF0 JUMPI DUP1 PUSH4 0x95EA7B3 EQ PUSH2 0x10E JUMPI DUP1 PUSH4 0x18160DDD EQ PUSH2 0x13E JUMPI DUP1 PUSH4 0x23B872DD EQ PUSH2 0x15C JUMPI DUP1 PUSH4 0x313CE567 EQ PUSH2 0x18C JUMPI JUMPDEST PUSH1 0x0 DUP1 REVERT JUMPDEST PUSH2 0xEE PUSH1 0x4 DUP1 CALLDATASIZE SUB DUP2 ADD SWAP1 PUSH2 0xE9 SWAP2 SWAP1 PUSH2 0x1121 JUMP JUMPDEST PUSH2 0x2AC JUMP JUMPDEST STOP JUMPDEST PUSH2 0xF8 PUSH2 0x578 JUMP JUMPDEST PUSH1 0x40 MLOAD PUSH2 0x105 SWAP2 SWAP1 PUSH2 0x11E9 JUMP JUMPDEST PUSH1 0x40 MLOAD DUP1 SWAP2 SUB SWAP1 RETURN JUMPDEST PUSH2 0x128 PUSH1 0x4 DUP1 CALLDATASIZE SUB DUP2 ADD SWAP1 PUSH2 0x123 SWAP2 SWAP1 PUSH2 0x1241 JUMP JUMPDEST PUSH2 0x606 JUMP JUMPDEST PUSH1 0x40 MLOAD PUSH2 0x135 SWAP2 SWAP1 PUSH2 0x129C JUMP JUMPDEST PUSH1 0x40 MLOAD DUP1 SWAP2 SUB SWAP1 RETURN JUMPDEST PUSH2 0x146 PUSH2 0x6F8 JUMP JUMPDEST PUSH1 0x40 MLOAD PUSH2 0x153 SWAP2 SWAP1 PUSH2 0x12C6 JUMP JUMPDEST PUSH1 0x40 MLOAD DUP1 SWAP2 SUB SWAP1 RETURN JUMPDEST PUSH2 0x176 PUSH1 0x4 DUP1 CALLDATASIZE SUB DUP2 ADD SWAP1 PUSH2 0x171 SWAP2 SWAP1 PUSH2 0x12E1 JUMP JUMPDEST PUSH2 0x6FE JUMP JUMPDEST PUSH1 0x40 MLOAD PUSH2 0x183 SWAP2 SWAP1 PUSH2 0x129C JUMP JUMPDEST PUSH1 0x40 MLOAD DUP1 SWAP2 SUB SWAP1 RETURN JUMPDEST PUSH2 0x194 PUSH2 0x8AF JUMP JUMPDEST PUSH1 0x40 MLOAD PUSH2 0x1A1 SWAP2 SWAP1 PUSH2 0x1350 JUMP JUMPDEST PUSH1 0x40 MLOAD DUP1 SWAP2 SUB SWAP1 RETURN JUMPDEST PUSH2 0x1C4 PUSH1 0x4 DUP1 CALLDATASIZE SUB DUP2 ADD SWAP1 PUSH2 0x1BF SWAP2 SWAP1 PUSH2 0x1241 JUMP JUMPDEST PUSH2 0x8C2 JUMP JUMPDEST STOP JUMPDEST PUSH2 0x1E0 PUSH1 0x4 DUP1 CALLDATASIZE SUB DUP2 ADD SWAP1 PUSH2 0x1DB SWAP2 SWAP1 PUSH2 0x136B JUMP JUMPDEST PUSH2 0x96F JUMP JUMPDEST PUSH1 0x40 MLOAD PUSH2 0x1ED SWAP2 SWAP1 PUSH2 0x12C6 JUMP JUMPDEST PUSH1 0x40 MLOAD DUP1 SWAP2 SUB SWAP1 RETURN JUMPDEST PUSH2 0x1FE PUSH2 0x987 JUMP JUMPDEST PUSH1 0x40 MLOAD PUSH2 0x20B SWAP2 SWAP1 PUSH2 0x11E9 JUMP JUMPDEST PUSH1 0x40 MLOAD DUP1 SWAP2 SUB SWAP1 RETURN JUMPDEST PUSH2 0x22E PUSH1 0x4 DUP1 CALLDATASIZE SUB DUP2 ADD SWAP1 PUSH2 0x229 SWAP2 SWAP1 PUSH2 0x1241 JUMP JUMPDEST PUSH2 0xA15 JUMP JUMPDEST STOP JUMPDEST PUSH2 0x24A PUSH1 0x4 DUP1 CALLDATASIZE SUB DUP2 ADD SWAP1 PUSH2 0x245 SWAP2 SWAP1 PUSH2 0x1241 JUMP JUMPDEST PUSH2 0xAC2 JUMP JUMPDEST PUSH1 0x40 MLOAD PUSH2 0x257 SWAP2 SWAP1 PUSH2 0x129C JUMP JUMPDEST PUSH1 0x40 MLOAD DUP1 SWAP2 SUB SWAP1 RETURN JUMPDEST PUSH2 0x27A PUSH1 0x4 DUP1 CALLDATASIZE SUB DUP2 ADD SWAP1 PUSH2 0x275 SWAP2 SWAP1 PUSH2 0x1398 JUMP JUMPDEST PUSH2 0xBDF JUMP JUMPDEST PUSH1 0x40 MLOAD PUSH2 0x287 SWAP2 SWAP1 PUSH2 0x12C6 JUMP JUMPDEST PUSH1 0x40 MLOAD DUP1 SWAP2 SUB SWAP1 RETURN JUMPDEST PUSH2 0x2AA PUSH1 0x4 DUP1 CALLDATASIZE SUB DUP2 ADD SWAP1 PUSH2 0x2A5 SWAP2 SWAP1 PUSH2 0x1121 JUMP JUMPDEST PUSH2 0xC04 JUMP JUMPDEST STOP JUMPDEST PUSH1 0x5 PUSH1 0x1 SWAP1 SLOAD SWAP1 PUSH2 0x100 EXP SWAP1 DIV PUSH20 0xFFFFFFFFFFFFFFFFFFFFFFFFFFFFFFFFFFFFFFFF AND PUSH20 0xFFFFFFFFFFFFFFFFFFFFFFFFFFFFFFFFFFFFFFFF AND CALLER PUSH20 0xFFFFFFFFFFFFFFFFFFFFFFFFFFFFFFFFFFFFFFFF AND EQ PUSH2 0x33C JUMPI PUSH1 0x40 MLOAD PUSH32 0x8C379A000000000000000000000000000000000000000000000000000000000 DUP2 MSTORE PUSH1 0x4 ADD PUSH2 0x333 SWAP1 PUSH2 0x1424 JUMP JUMPDEST PUSH1 0x40 MLOAD DUP1 SWAP2 SUB SWAP1 REVERT JUMPDEST PUSH1 0x0 JUMPDEST DUP2 MLOAD DUP2 LT ISZERO PUSH2 0x574 JUMPI PUSH1 0x0 PUSH1 0x6 PUSH1 0x0 DUP5 DUP5 DUP2 MLOAD DUP2 LT PUSH2 0x361 JUMPI PUSH2 0x360 PUSH2 0x1444 JUMP JUMPDEST JUMPDEST PUSH1 0x20 MUL PUSH1 0x20 ADD ADD MLOAD PUSH20 0xFFFFFFFFFFFFFFFFFFFFFFFFFFFFFFFFFFFFFFFF AND PUSH20 0xFFFFFFFFFFFFFFFFFFFFFFFFFFFFFFFFFFFFFFFF AND DUP2 MSTORE PUSH1 0x20 ADD SWAP1 DUP2 MSTORE PUSH1 0x20 ADD PUSH1 0x0 KECCAK256 PUSH1 0x0 PUSH2 0x100 EXP DUP2 SLOAD DUP2 PUSH1 0xFF MUL NOT AND SWAP1 DUP4 ISZERO ISZERO MUL OR SWAP1 SSTORE POP PUSH1 0x0 JUMPDEST PUSH1 0x7 DUP1 SLOAD SWAP1 POP DUP2 LT ISZERO PUSH2 0x560 JUMPI DUP3 DUP3 DUP2 MLOAD DUP2 LT PUSH2 0x3DD JUMPI PUSH2 0x3DC PUSH2 0x1444 JUMP JUMPDEST JUMPDEST PUSH1 0x20 MUL PUSH1 0x20 ADD ADD MLOAD PUSH20 0xFFFFFFFFFFFFFFFFFFFFFFFFFFFFFFFFFFFFFFFF AND PUSH1 0x7 DUP3 DUP2 SLOAD DUP2 LT PUSH2 0x40F JUMPI PUSH2 0x40E PUSH2 0x1444 JUMP JUMPDEST JUMPDEST SWAP1 PUSH1 0x0 MSTORE PUSH1 0x20 PUSH1 0x0 KECCAK256 ADD PUSH1 0x0 SWAP1 SLOAD SWAP1 PUSH2 0x100 EXP SWAP1 DIV PUSH20 0xFFFFFFFFFFFFFFFFFFFFFFFFFFFFFFFFFFFFFFFF AND PUSH20 0xFFFFFFFFFFFFFFFFFFFFFFFFFFFFFFFFFFFFFFFF AND SUB PUSH2 0x54D JUMPI PUSH1 0x7 PUSH1 0x1 PUSH1 0x7 DUP1 SLOAD SWAP1 POP PUSH2 0x469 SWAP2 SWAP1 PUSH2 0x14A2 JUMP JUMPDEST DUP2 SLOAD DUP2 LT PUSH2 0x47A JUMPI PUSH2 0x479 PUSH2 0x1444 JUMP JUMPDEST JUMPDEST SWAP1 PUSH1 0x0 MSTORE PUSH1 0x20 PUSH1 0x0 KECCAK256 ADD PUSH1 0x0 SWAP1 SLOAD SWAP1 PUSH2 0x100 EXP SWAP1 DIV PUSH20 0xFFFFFFFFFFFFFFFFFFFFFFFFFFFFFFFFFFFFFFFF AND PUSH1 0x7 DUP3 DUP2 SLOAD DUP2 LT PUSH2 0x4B9 JUMPI PUSH2 0x4B8 PUSH2 0x1444 JUMP JUMPDEST JUMPDEST SWAP1 PUSH1 0x0 MSTORE PUSH1 0x20 PUSH1 0x0 KECCAK256 ADD PUSH1 0x0 PUSH2 0x100 EXP DUP2 SLOAD DUP2 PUSH20 0xFFFFFFFFFFFFFFFFFFFFFFFFFFFFFFFFFFFFFFFF MUL NOT AND SWAP1 DUP4 PUSH20 0xFFFFFFFFFFFFFFFFFFFFFFFFFFFFFFFFFFFFFFFF AND MUL OR SWAP1 SSTORE POP PUSH1 0x7 DUP1 SLOAD DUP1 PUSH2 0x513 JUMPI PUSH2 0x512 PUSH2 0x14D6 JUMP JUMPDEST JUMPDEST PUSH1 0x1 SWAP1 SUB DUP2 DUP2 SWAP1 PUSH1 0x0 MSTORE PUSH1 0x20 PUSH1 0x0 KECCAK256 ADD PUSH1 0x0 PUSH2 0x100 EXP DUP2 SLOAD SWAP1 PUSH20 0xFFFFFFFFFFFFFFFFFFFFFFFFFFFFFFFFFFFFFFFF MUL NOT AND SWAP1 SSTORE SWAP1 SSTORE PUSH2 0x560 JUMP JUMPDEST DUP1 DUP1 PUSH2 0x558 SWAP1 PUSH2 0x1505 JUMP JUMPDEST SWAP2 POP POP PUSH2 0x3BD JUMP JUMPDEST POP DUP1 DUP1 PUSH2 0x56C SWAP1 PUSH2 0x1505 JUMP JUMPDEST SWAP2 POP POP PUSH2 0x33F JUMP JUMPDEST POP POP JUMP JUMPDEST PUSH1 0x3 DUP1 SLOAD PUSH2 0x585 SWAP1 PUSH2 0x157C JUMP JUMPDEST DUP1 PUSH1 0x1F ADD PUSH1 0x20 DUP1 SWAP2 DIV MUL PUSH1 0x20 ADD PUSH1 0x40 MLOAD SWAP1 DUP2 ADD PUSH1 0x40 MSTORE DUP1 SWAP3 SWAP2 SWAP1 DUP2 DUP2 MSTORE PUSH1 0x20 ADD DUP3 DUP1 SLOAD PUSH2 0x5B1 SWAP1 PUSH2 0x157C JUMP JUMPDEST DUP1 ISZERO PUSH2 0x5FE JUMPI DUP1 PUSH1 0x1F LT PUSH2 0x5D3 JUMPI PUSH2 0x100 DUP1 DUP4 SLOAD DIV MUL DUP4 MSTORE SWAP2 PUSH1 0x20 ADD SWAP2 PUSH2 0x5FE JUMP JUMPDEST DUP3 ADD SWAP2 SWAP1 PUSH1 0x0 MSTORE PUSH1 0x20 PUSH1 0x0 KECCAK256 SWAP1 JUMPDEST DUP2 SLOAD DUP2 MSTORE SWAP1 PUSH1 0x1 ADD SWAP1 PUSH1 0x20 ADD DUP1 DUP4 GT PUSH2 0x5E1 JUMPI DUP3 SWAP1 SUB PUSH1 0x1F AND DUP3 ADD SWAP2 JUMPDEST POP POP POP POP POP DUP2 JUMP JUMPDEST PUSH1 0x0 DUP2 PUSH1 0x2 PUSH1 0x0 CALLER PUSH20 0xFFFFFFFFFFFFFFFFFFFFFFFFFFFFFFFFFFFFFFFF AND PUSH20 0xFFFFFFFFFFFFFFFFFFFFFFFFFFFFFFFFFFFFFFFF AND DUP2 MSTORE PUSH1 0x20 ADD SWAP1 DUP2 MSTORE PUSH1 0x20 ADD PUSH1 0x0 KECCAK256 PUSH1 0x0 DUP6 PUSH20 0xFFFFFFFFFFFFFFFFFFFFFFFFFFFFFFFFFFFFFFFF AND PUSH20 0xFFFFFFFFFFFFFFFFFFFFFFFFFFFFFFFFFFFFFFFF AND DUP2 MSTORE PUSH1 0x20 ADD SWAP1 DUP2 MSTORE PUSH1 0x20 ADD PUSH1 0x0 KECCAK256 DUP2 SWAP1 SSTORE POP DUP3 PUSH20 0xFFFFFFFFFFFFFFFFFFFFFFFFFFFFFFFFFFFFFFFF AND CALLER PUSH20 0xFFFFFFFFFFFFFFFFFFFFFFFFFFFFFFFFFFFFFFFF AND PUSH32 0x8C5BE1E5EBEC7D5BD14F71427D1E84F3DD0314C0F7B2291E5B200AC8C7C3B925 DUP5 PUSH1 0x40 MLOAD PUSH2 0x6E6 SWAP2 SWAP1 PUSH2 0x12C6 JUMP JUMPDEST PUSH1 0x40 MLOAD DUP1 SWAP2 SUB SWAP1 LOG3 PUSH1 0x1 SWAP1 POP SWAP3 SWAP2 POP POP JUMP JUMPDEST PUSH1 0x0 SLOAD DUP2 JUMP JUMPDEST PUSH1 0x0 DUP2 PUSH1 0x2 PUSH1 0x0 DUP7 PUSH20 0xFFFFFFFFFFFFFFFFFFFFFFFFFFFFFFFFFFFFFFFF AND PUSH20 0xFFFFFFFFFFFFFFFFFFFFFFFFFFFFFFFFFFFFFFFF AND DUP2 MSTORE PUSH1 0x20 ADD SWAP1 DUP2 MSTORE PUSH1 0x20 ADD PUSH1 0x0 KECCAK256 PUSH1 0x0 CALLER PUSH20 0xFFFFFFFFFFFFFFFFFFFFFFFFFFFFFFFFFFFFFFFF AND PUSH20 0xFFFFFFFFFFFFFFFFFFFFFFFFFFFFFFFFFFFFFFFF AND DUP2 MSTORE PUSH1 0x20 ADD SWAP1 DUP2 MSTORE PUSH1 0x20 ADD PUSH1 0x0 KECCAK256 PUSH1 0x0 DUP3 DUP3 SLOAD PUSH2 0x78C SWAP2 SWAP1 PUSH2 0x14A2 JUMP JUMPDEST SWAP3 POP POP DUP2 SWAP1 SSTORE POP DUP2 PUSH1 0x1 PUSH1 0x0 DUP7 PUSH20 0xFFFFFFFFFFFFFFFFFFFFFFFFFFFFFFFFFFFFFFFF AND PUSH20 0xFFFFFFFFFFFFFFFFFFFFFFFFFFFFFFFFFFFFFFFF AND DUP2 MSTORE PUSH1 0x20 ADD SWAP1 DUP2 MSTORE PUSH1 0x20 ADD PUSH1 0x0 KECCAK256 PUSH1 0x0 DUP3 DUP3 SLOAD PUSH2 0x7E2 SWAP2 SWAP1 PUSH2 0x14A2 JUMP JUMPDEST SWAP3 POP POP DUP2 SWAP1 SSTORE POP DUP2 PUSH1 0x1 PUSH1 0x0 DUP6 PUSH20 0xFFFFFFFFFFFFFFFFFFFFFFFFFFFFFFFFFFFFFFFF AND PUSH20 0xFFFFFFFFFFFFFFFFFFFFFFFFFFFFFFFFFFFFFFFF AND DUP2 MSTORE PUSH1 0x20 ADD SWAP1 DUP2 MSTORE PUSH1 0x20 ADD PUSH1 0x0 KECCAK256 PUSH1 0x0 DUP3 DUP3 SLOAD PUSH2 0x838 SWAP2 SWAP1 PUSH2 0x15AD JUMP JUMPDEST SWAP3 POP POP DUP2 SWAP1 SSTORE POP DUP3 PUSH20 0xFFFFFFFFFFFFFFFFFFFFFFFFFFFFFFFFFFFFFFFF AND DUP5 PUSH20 0xFFFFFFFFFFFFFFFFFFFFFFFFFFFFFFFFFFFFFFFF AND PUSH32 0xDDF252AD1BE2C89B69C2B068FC378DAA952BA7F163C4A11628F55A4DF523B3EF DUP5 PUSH1 0x40 MLOAD PUSH2 0x89C SWAP2 SWAP1 PUSH2 0x12C6 JUMP JUMPDEST PUSH1 0x40 MLOAD DUP1 SWAP2 SUB SWAP1 LOG3 PUSH1 0x1 SWAP1 POP SWAP4 SWAP3 POP POP POP JUMP JUMPDEST PUSH1 0x5 PUSH1 0x0 SWAP1 SLOAD SWAP1 PUSH2 0x100 EXP SWAP1 DIV PUSH1 0xFF AND DUP2 JUMP JUMPDEST PUSH1 0x6 PUSH1 0x0 DUP4 PUSH20 0xFFFFFFFFFFFFFFFFFFFFFFFFFFFFFFFFFFFFFFFF AND PUSH20 0xFFFFFFFFFFFFFFFFFFFFFFFFFFFFFFFFFFFFFFFF AND DUP2 MSTORE PUSH1 0x20 ADD SWAP1 DUP2 MSTORE PUSH1 0x20 ADD PUSH1 0x0 KECCAK256 PUSH1 0x0 SWAP1 SLOAD SWAP1 PUSH2 0x100 EXP SWAP1 DIV PUSH1 0xFF AND PUSH2 0x94E JUMPI PUSH1 0x40 MLOAD PUSH32 0x8C379A000000000000000000000000000000000000000000000000000000000 DUP2 MSTORE PUSH1 0x4 ADD PUSH2 0x945 SWAP1 PUSH2 0x162D JUMP JUMPDEST PUSH1 0x40 MLOAD DUP1 SWAP2 SUB SWAP1 REVERT JUMPDEST PUSH2 0x96B DUP3 PUSH8 0xDE0B6B3A7640000 DUP4 PUSH2 0x966 SWAP2 SWAP1 PUSH2 0x164D JUMP JUMPDEST PUSH2 0xDA6 JUMP JUMPDEST POP POP JUMP JUMPDEST PUSH1 0x1 PUSH1 0x20 MSTORE DUP1 PUSH1 0x0 MSTORE PUSH1 0x40 PUSH1 0x0 KECCAK256 PUSH1 0x0 SWAP2 POP SWAP1 POP SLOAD DUP2 JUMP JUMPDEST PUSH1 0x4 DUP1 SLOAD PUSH2 0x994 SWAP1 PUSH2 0x157C JUMP JUMPDEST DUP1 PUSH1 0x1F ADD PUSH1 0x20 DUP1 SWAP2 DIV MUL PUSH1 0x20 ADD PUSH1 0x40 MLOAD SWAP1 DUP2 ADD PUSH1 0x40 MSTORE DUP1 SWAP3 SWAP2 SWAP1 DUP2 DUP2 MSTORE PUSH1 0x20 ADD DUP3 DUP1 SLOAD PUSH2 0x9C0 SWAP1 PUSH2 0x157C JUMP JUMPDEST DUP1 ISZERO PUSH2 0xA0D JUMPI DUP1 PUSH1 0x1F LT PUSH2 0x9E2 JUMPI PUSH2 0x100 DUP1 DUP4 SLOAD DIV MUL DUP4 MSTORE SWAP2 PUSH1 0x20 ADD SWAP2 PUSH2 0xA0D JUMP JUMPDEST DUP3 ADD SWAP2 SWAP1 PUSH1 0x0 MSTORE PUSH1 0x20 PUSH1 0x0 KECCAK256 SWAP1 JUMPDEST DUP2 SLOAD DUP2 MSTORE SWAP1 PUSH1 0x1 ADD SWAP1 PUSH1 0x20 ADD DUP1 DUP4 GT PUSH2 0x9F0 JUMPI DUP3 SWAP1 SUB PUSH1 0x1F AND DUP3 ADD SWAP2 JUMPDEST POP POP POP POP POP DUP2 JUMP JUMPDEST PUSH1 0x6 PUSH1 0x0 DUP4 PUSH20 0xFFFFFFFFFFFFFFFFFFFFFFFFFFFFFFFFFFFFFFFF AND PUSH20 0xFFFFFFFFFFFFFFFFFFFFFFFFFFFFFFFFFFFFFFFF AND DUP2 MSTORE PUSH1 0x20 ADD SWAP1 DUP2 MSTORE PUSH1 0x20 ADD PUSH1 0x0 KECCAK256 PUSH1 0x0 SWAP1 SLOAD SWAP1 PUSH2 0x100 EXP SWAP1 DIV PUSH1 0xFF AND PUSH2 0xAA1 JUMPI PUSH1 0x40 MLOAD PUSH32 0x8C379A000000000000000000000000000000000000000000000000000000000 DUP2 MSTORE PUSH1 0x4 ADD PUSH2 0xA98 SWAP1 PUSH2 0x162D JUMP JUMPDEST PUSH1 0x40 MLOAD DUP1 SWAP2 SUB SWAP1 REVERT JUMPDEST PUSH2 0xABE DUP3 PUSH8 0xDE0B6B3A7640000 DUP4 PUSH2 0xAB9 SWAP2 SWAP1 PUSH2 0x164D JUMP JUMPDEST PUSH2 0xE7E JUMP JUMPDEST POP POP JUMP JUMPDEST PUSH1 0x0 DUP2 PUSH1 0x1 PUSH1 0x0 CALLER PUSH20 0xFFFFFFFFFFFFFFFFFFFFFFFFFFFFFFFFFFFFFFFF AND PUSH20 0xFFFFFFFFFFFFFFFFFFFFFFFFFFFFFFFFFFFFFFFF AND DUP2 MSTORE PUSH1 0x20 ADD SWAP1 DUP2 MSTORE PUSH1 0x20 ADD PUSH1 0x0 KECCAK256 PUSH1 0x0 DUP3 DUP3 SLOAD PUSH2 0xB13 SWAP2 SWAP1 PUSH2 0x14A2 JUMP JUMPDEST SWAP3 POP POP DUP2 SWAP1 SSTORE POP DUP2 PUSH1 0x1 PUSH1 0x0 DUP6 PUSH20 0xFFFFFFFFFFFFFFFFFFFFFFFFFFFFFFFFFFFFFFFF AND PUSH20 0xFFFFFFFFFFFFFFFFFFFFFFFFFFFFFFFFFFFFFFFF AND DUP2 MSTORE PUSH1 0x20 ADD SWAP1 DUP2 MSTORE PUSH1 0x20 ADD PUSH1 0x0 KECCAK256 PUSH1 0x0 DUP3 DUP3 SLOAD PUSH2 0xB69 SWAP2 SWAP1 PUSH2 0x15AD JUMP JUMPDEST SWAP3 POP POP DUP2 SWAP1 SSTORE POP DUP3 PUSH20 0xFFFFFFFFFFFFFFFFFFFFFFFFFFFFFFFFFFFFFFFF AND CALLER PUSH20 0xFFFFFFFFFFFFFFFFFFFFFFFFFFFFFFFFFFFFFFFF AND PUSH32 0xDDF252AD1BE2C89B69C2B068FC378DAA952BA7F163C4A11628F55A4DF523B3EF DUP5 PUSH1 0x40 MLOAD PUSH2 0xBCD SWAP2 SWAP1 PUSH2 0x12C6 JUMP JUMPDEST PUSH1 0x40 MLOAD DUP1 SWAP2 SUB SWAP1 LOG3 PUSH1 0x1 SWAP1 POP SWAP3 SWAP2 POP POP JUMP JUMPDEST PUSH1 0x2 PUSH1 0x20 MSTORE DUP2 PUSH1 0x0 MSTORE PUSH1 0x40 PUSH1 0x0 KECCAK256 PUSH1 0x20 MSTORE DUP1 PUSH1 0x0 MSTORE PUSH1 0x40 PUSH1 0x0 KECCAK256 PUSH1 0x0 SWAP2 POP SWAP2 POP POP SLOAD DUP2 JUMP JUMPDEST PUSH1 0x5 PUSH1 0x1 SWAP1 SLOAD SWAP1 PUSH2 0x100 EXP SWAP1 DIV PUSH20 0xFFFFFFFFFFFFFFFFFFFFFFFFFFFFFFFFFFFFFFFF AND PUSH20 0xFFFFFFFFFFFFFFFFFFFFFFFFFFFFFFFFFFFFFFFF AND CALLER PUSH20 0xFFFFFFFFFFFFFFFFFFFFFFFFFFFFFFFFFFFFFFFF AND EQ PUSH2 0xC94 JUMPI PUSH1 0x40 MLOAD PUSH32 0x8C379A000000000000000000000000000000000000000000000000000000000 DUP2 MSTORE PUSH1 0x4 ADD PUSH2 0xC8B SWAP1 PUSH2 0x1424 JUMP JUMPDEST PUSH1 0x40 MLOAD DUP1 SWAP2 SUB SWAP1 REVERT JUMPDEST PUSH1 0x0 JUMPDEST DUP2 MLOAD DUP2 LT ISZERO PUSH2 0xDA2 JUMPI PUSH1 0x1 PUSH1 0x6 PUSH1 0x0 DUP5 DUP5 DUP2 MLOAD DUP2 LT PUSH2 0xCB9 JUMPI PUSH2 0xCB8 PUSH2 0x1444 JUMP JUMPDEST JUMPDEST PUSH1 0x20 MUL PUSH1 0x20 ADD ADD MLOAD PUSH20 0xFFFFFFFFFFFFFFFFFFFFFFFFFFFFFFFFFFFFFFFF AND PUSH20 0xFFFFFFFFFFFFFFFFFFFFFFFFFFFFFFFFFFFFFFFF AND DUP2 MSTORE PUSH1 0x20 ADD SWAP1 DUP2 MSTORE PUSH1 0x20 ADD PUSH1 0x0 KECCAK256 PUSH1 0x0 PUSH2 0x100 EXP DUP2 SLOAD DUP2 PUSH1 0xFF MUL NOT AND SWAP1 DUP4 ISZERO ISZERO MUL OR SWAP1 SSTORE POP PUSH1 0x7 DUP3 DUP3 DUP2 MLOAD DUP2 LT PUSH2 0xD27 JUMPI PUSH2 0xD26 PUSH2 0x1444 JUMP JUMPDEST JUMPDEST PUSH1 0x20 MUL PUSH1 0x20 ADD ADD MLOAD SWAP1 DUP1 PUSH1 0x1 DUP2 SLOAD ADD DUP1 DUP3 SSTORE DUP1 SWAP2 POP POP PUSH1 0x1 SWAP1 SUB SWAP1 PUSH1 0x0 MSTORE PUSH1 0x20 PUSH1 0x0 KECCAK256 ADD PUSH1 0x0 SWAP1 SWAP2 SWAP1 SWAP2 SWAP1 SWAP2 PUSH2 0x100 EXP DUP2 SLOAD DUP2 PUSH20 0xFFFFFFFFFFFFFFFFFFFFFFFFFFFFFFFFFFFFFFFF MUL NOT AND SWAP1 DUP4 PUSH20 0xFFFFFFFFFFFFFFFFFFFFFFFFFFFFFFFFFFFFFFFF AND MUL OR SWAP1 SSTORE POP DUP1 DUP1 PUSH2 0xD9A SWAP1 PUSH2 0x1505 JUMP JUMPDEST SWAP2 POP POP PUSH2 0xC97 JUMP JUMPDEST POP POP JUMP JUMPDEST DUP1 PUSH1 0x1 PUSH1 0x0 DUP5 PUSH20 0xFFFFFFFFFFFFFFFFFFFFFFFFFFFFFFFFFFFFFFFF AND PUSH20 0xFFFFFFFFFFFFFFFFFFFFFFFFFFFFFFFFFFFFFFFF AND DUP2 MSTORE PUSH1 0x20 ADD SWAP1 DUP2 MSTORE PUSH1 0x20 ADD PUSH1 0x0 KECCAK256 PUSH1 0x0 DUP3 DUP3 SLOAD PUSH2 0xDF5 SWAP2 SWAP1 PUSH2 0x15AD JUMP JUMPDEST SWAP3 POP POP DUP2 SWAP1 SSTORE POP DUP1 PUSH1 0x0 DUP1 DUP3 DUP3 SLOAD PUSH2 0xE0D SWAP2 SWAP1 PUSH2 0x15AD JUMP JUMPDEST SWAP3 POP POP DUP2 SWAP1 SSTORE POP DUP2 PUSH20 0xFFFFFFFFFFFFFFFFFFFFFFFFFFFFFFFFFFFFFFFF AND PUSH1 0x0 PUSH20 0xFFFFFFFFFFFFFFFFFFFFFFFFFFFFFFFFFFFFFFFF AND PUSH32 0xDDF252AD1BE2C89B69C2B068FC378DAA952BA7F163C4A11628F55A4DF523B3EF DUP4 PUSH1 0x40 MLOAD PUSH2 0xE72 SWAP2 SWAP1 PUSH2 0x12C6 JUMP JUMPDEST PUSH1 0x40 MLOAD DUP1 SWAP2 SUB SWAP1 LOG3 POP POP JUMP JUMPDEST DUP1 PUSH1 0x1 PUSH1 0x0 DUP5 PUSH20 0xFFFFFFFFFFFFFFFFFFFFFFFFFFFFFFFFFFFFFFFF AND PUSH20 0xFFFFFFFFFFFFFFFFFFFFFFFFFFFFFFFFFFFFFFFF AND DUP2 MSTORE PUSH1 0x20 ADD SWAP1 DUP2 MSTORE PUSH1 0x20 ADD PUSH1 0x0 KECCAK256 PUSH1 0x0 DUP3 DUP3 SLOAD PUSH2 0xECD SWAP2 SWAP1 PUSH2 0x14A2 JUMP JUMPDEST SWAP3 POP POP DUP2 SWAP1 SSTORE POP DUP1 PUSH1 0x0 DUP1 DUP3 DUP3 SLOAD PUSH2 0xEE5 SWAP2 SWAP1 PUSH2 0x14A2 JUMP JUMPDEST SWAP3 POP POP DUP2 SWAP1 SSTORE POP PUSH1 0x0 PUSH20 0xFFFFFFFFFFFFFFFFFFFFFFFFFFFFFFFFFFFFFFFF AND DUP3 PUSH20 0xFFFFFFFFFFFFFFFFFFFFFFFFFFFFFFFFFFFFFFFF AND PUSH32 0xDDF252AD1BE2C89B69C2B068FC378DAA952BA7F163C4A11628F55A4DF523B3EF DUP4 PUSH1 0x40 MLOAD PUSH2 0xF4A SWAP2 SWAP1 PUSH2 0x12C6 JUMP JUMPDEST PUSH1 0x40 MLOAD DUP1 SWAP2 SUB SWAP1 LOG3 POP POP JUMP JUMPDEST PUSH1 0x0 PUSH1 0x40 MLOAD SWAP1 POP SWAP1 JUMP JUMPDEST PUSH1 0x0 DUP1 REVERT JUMPDEST PUSH1 0x0 DUP1 REVERT JUMPDEST PUSH1 0x0 DUP1 REVERT JUMPDEST PUSH1 0x0 PUSH1 0x1F NOT PUSH1 0x1F DUP4 ADD AND SWAP1 POP SWAP2 SWAP1 POP JUMP JUMPDEST PUSH32 0x4E487B7100000000000000000000000000000000000000000000000000000000 PUSH1 0x0 MSTORE PUSH1 0x41 PUSH1 0x4 MSTORE PUSH1 0x24 PUSH1 0x0 REVERT JUMPDEST PUSH2 0xFB8 DUP3 PUSH2 0xF6F JUMP JUMPDEST DUP2 ADD DUP2 DUP2 LT PUSH8 0xFFFFFFFFFFFFFFFF DUP3 GT OR ISZERO PUSH2 0xFD7 JUMPI PUSH2 0xFD6 PUSH2 0xF80 JUMP JUMPDEST JUMPDEST DUP1 PUSH1 0x40 MSTORE POP POP POP JUMP JUMPDEST PUSH1 0x0 PUSH2 0xFEA PUSH2 0xF56 JUMP JUMPDEST SWAP1 POP PUSH2 0xFF6 DUP3 DUP3 PUSH2 0xFAF JUMP JUMPDEST SWAP2 SWAP1 POP JUMP JUMPDEST PUSH1 0x0 PUSH8 0xFFFFFFFFFFFFFFFF DUP3 GT ISZERO PUSH2 0x1016 JUMPI PUSH2 0x1015 PUSH2 0xF80 JUMP JUMPDEST JUMPDEST PUSH1 0x20 DUP3 MUL SWAP1 POP PUSH1 0x20 DUP2 ADD SWAP1 POP SWAP2 SWAP1 POP JUMP JUMPDEST PUSH1 0x0 DUP1 REVERT JUMPDEST PUSH1 0x0 PUSH20 0xFFFFFFFFFFFFFFFFFFFFFFFFFFFFFFFFFFFFFFFF DUP3 AND SWAP1 POP SWAP2 SWAP1 POP JUMP JUMPDEST PUSH1 0x0 PUSH2 0x1057 DUP3 PUSH2 0x102C JUMP JUMPDEST SWAP1 POP SWAP2 SWAP1 POP JUMP JUMPDEST PUSH2 0x1067 DUP2 PUSH2 0x104C JUMP JUMPDEST DUP2 EQ PUSH2 0x1072 JUMPI PUSH1 0x0 DUP1 REVERT JUMPDEST POP JUMP JUMPDEST PUSH1 0x0 DUP2 CALLDATALOAD SWAP1 POP PUSH2 0x1084 DUP2 PUSH2 0x105E JUMP JUMPDEST SWAP3 SWAP2 POP POP JUMP JUMPDEST PUSH1 0x0 PUSH2 0x109D PUSH2 0x1098 DUP5 PUSH2 0xFFB JUMP JUMPDEST PUSH2 0xFE0 JUMP JUMPDEST SWAP1 POP DUP1 DUP4 DUP3 MSTORE PUSH1 0x20 DUP3 ADD SWAP1 POP PUSH1 0x20 DUP5 MUL DUP4 ADD DUP6 DUP2 GT ISZERO PUSH2 0x10C0 JUMPI PUSH2 0x10BF PUSH2 0x1027 JUMP JUMPDEST JUMPDEST DUP4 JUMPDEST DUP2 DUP2 LT ISZERO PUSH2 0x10E9 JUMPI DUP1 PUSH2 0x10D5 DUP9 DUP3 PUSH2 0x1075 JUMP JUMPDEST DUP5 MSTORE PUSH1 0x20 DUP5 ADD SWAP4 POP POP PUSH1 0x20 DUP2 ADD SWAP1 POP PUSH2 0x10C2 JUMP JUMPDEST POP POP POP SWAP4 SWAP3 POP POP POP JUMP JUMPDEST PUSH1 0x0 DUP3 PUSH1 0x1F DUP4 ADD SLT PUSH2 0x1108 JUMPI PUSH2 0x1107 PUSH2 0xF6A JUMP JUMPDEST JUMPDEST DUP2 CALLDATALOAD PUSH2 0x1118 DUP5 DUP3 PUSH1 0x20 DUP7 ADD PUSH2 0x108A JUMP JUMPDEST SWAP2 POP POP SWAP3 SWAP2 POP POP JUMP JUMPDEST PUSH1 0x0 PUSH1 0x20 DUP3 DUP5 SUB SLT ISZERO PUSH2 0x1137 JUMPI PUSH2 0x1136 PUSH2 0xF60 JUMP JUMPDEST JUMPDEST PUSH1 0x0 DUP3 ADD CALLDATALOAD PUSH8 0xFFFFFFFFFFFFFFFF DUP2 GT ISZERO PUSH2 0x1155 JUMPI PUSH2 0x1154 PUSH2 0xF65 JUMP JUMPDEST JUMPDEST PUSH2 0x1161 DUP5 DUP3 DUP6 ADD PUSH2 0x10F3 JUMP JUMPDEST SWAP2 POP POP SWAP3 SWAP2 POP POP JUMP JUMPDEST PUSH1 0x0 DUP2 MLOAD SWAP1 POP SWAP2 SWAP1 POP JUMP JUMPDEST PUSH1 0x0 DUP3 DUP3 MSTORE PUSH1 0x20 DUP3 ADD SWAP1 POP SWAP3 SWAP2 POP POP JUMP JUMPDEST PUSH1 0x0 JUMPDEST DUP4 DUP2 LT ISZERO PUSH2 0x11A4 JUMPI DUP1 DUP3 ADD MLOAD DUP2 DUP5 ADD MSTORE PUSH1 0x20 DUP2 ADD SWAP1 POP PUSH2 0x1189 JUMP JUMPDEST PUSH1 0x0 DUP5 DUP5 ADD MSTORE POP POP POP POP JUMP JUMPDEST PUSH1 0x0 PUSH2 0x11BB DUP3 PUSH2 0x116A JUMP JUMPDEST PUSH2 0x11C5 DUP2 DUP6 PUSH2 0x1175 JUMP JUMPDEST SWAP4 POP PUSH2 0x11D5 DUP2 DUP6 PUSH1 0x20 DUP7 ADD PUSH2 0x1186 JUMP JUMPDEST PUSH2 0x11DE DUP2 PUSH2 0xF6F JUMP JUMPDEST DUP5 ADD SWAP2 POP POP SWAP3 SWAP2 POP POP JUMP JUMPDEST PUSH1 0x0 PUSH1 0x20 DUP3 ADD SWAP1 POP DUP2 DUP2 SUB PUSH1 0x0 DUP4 ADD MSTORE PUSH2 0x1203 DUP2 DUP5 PUSH2 0x11B0 JUMP JUMPDEST SWAP1 POP SWAP3 SWAP2 POP POP JUMP JUMPDEST PUSH1 0x0 DUP2 SWAP1 POP SWAP2 SWAP1 POP JUMP JUMPDEST PUSH2 0x121E DUP2 PUSH2 0x120B JUMP JUMPDEST DUP2 EQ PUSH2 0x1229 JUMPI PUSH1 0x0 DUP1 REVERT JUMPDEST POP JUMP JUMPDEST PUSH1 0x0 DUP2 CALLDATALOAD SWAP1 POP PUSH2 0x123B DUP2 PUSH2 0x1215 JUMP JUMPDEST SWAP3 SWAP2 POP POP JUMP JUMPDEST PUSH1 0x0 DUP1 PUSH1 0x40 DUP4 DUP6 SUB SLT ISZERO PUSH2 0x1258 JUMPI PUSH2 0x1257 PUSH2 0xF60 JUMP JUMPDEST JUMPDEST PUSH1 0x0 PUSH2 0x1266 DUP6 DUP3 DUP7 ADD PUSH2 0x1075 JUMP JUMPDEST SWAP3 POP POP PUSH1 0x20 PUSH2 0x1277 DUP6 DUP3 DUP7 ADD PUSH2 0x122C JUMP JUMPDEST SWAP2 POP POP SWAP3 POP SWAP3 SWAP1 POP JUMP JUMPDEST PUSH1 0x0 DUP2 ISZERO ISZERO SWAP1 POP SWAP2 SWAP1 POP JUMP JUMPDEST PUSH2 0x1296 DUP2 PUSH2 0x1281 JUMP JUMPDEST DUP3 MSTORE POP POP JUMP JUMPDEST PUSH1 0x0 PUSH1 0x20 DUP3 ADD SWAP1 POP PUSH2 0x12B1 PUSH1 0x0 DUP4 ADD DUP5 PUSH2 0x128D JUMP JUMPDEST SWAP3 SWAP2 POP POP JUMP JUMPDEST PUSH2 0x12C0 DUP2 PUSH2 0x120B JUMP JUMPDEST DUP3 MSTORE POP POP JUMP JUMPDEST PUSH1 0x0 PUSH1 0x20 DUP3 ADD SWAP1 POP PUSH2 0x12DB PUSH1 0x0 DUP4 ADD DUP5 PUSH2 0x12B7 JUMP JUMPDEST SWAP3 SWAP2 POP POP JUMP JUMPDEST PUSH1 0x0 DUP1 PUSH1 0x0 PUSH1 0x60 DUP5 DUP7 SUB SLT ISZERO PUSH2 0x12FA JUMPI PUSH2 0x12F9 PUSH2 0xF60 JUMP JUMPDEST JUMPDEST PUSH1 0x0 PUSH2 0x1308 DUP7 DUP3 DUP8 ADD PUSH2 0x1075 JUMP JUMPDEST SWAP4 POP POP PUSH1 0x20 PUSH2 0x1319 DUP7 DUP3 DUP8 ADD PUSH2 0x1075 JUMP JUMPDEST SWAP3 POP POP PUSH1 0x40 PUSH2 0x132A DUP7 DUP3 DUP8 ADD PUSH2 0x122C JUMP JUMPDEST SWAP2 POP POP SWAP3 POP SWAP3 POP SWAP3 JUMP JUMPDEST PUSH1 0x0 PUSH1 0xFF DUP3 AND SWAP1 POP SWAP2 SWAP1 POP JUMP JUMPDEST PUSH2 0x134A DUP2 PUSH2 0x1334 JUMP JUMPDEST DUP3 MSTORE POP POP JUMP JUMPDEST PUSH1 0x0 PUSH1 0x20 DUP3 ADD SWAP1 POP PUSH2 0x1365 PUSH1 0x0 DUP4 ADD DUP5 PUSH2 0x1341 JUMP JUMPDEST SWAP3 SWAP2 POP POP JUMP JUMPDEST PUSH1 0x0 PUSH1 0x20 DUP3 DUP5 SUB SLT ISZERO PUSH2 0x1381 JUMPI PUSH2 0x1380 PUSH2 0xF60 JUMP JUMPDEST JUMPDEST PUSH1 0x0 PUSH2 0x138F DUP5 DUP3 DUP6 ADD PUSH2 0x1075 JUMP JUMPDEST SWAP2 POP POP SWAP3 SWAP2 POP POP JUMP JUMPDEST PUSH1 0x0 DUP1 PUSH1 0x40 DUP4 DUP6 SUB SLT ISZERO PUSH2 0x13AF JUMPI PUSH2 0x13AE PUSH2 0xF60 JUMP JUMPDEST JUMPDEST PUSH1 0x0 PUSH2 0x13BD DUP6 DUP3 DUP7 ADD PUSH2 0x1075 JUMP JUMPDEST SWAP3 POP POP PUSH1 0x20 PUSH2 0x13CE DUP6 DUP3 DUP7 ADD PUSH2 0x1075 JUMP JUMPDEST SWAP2 POP POP SWAP3 POP SWAP3 SWAP1 POP JUMP JUMPDEST PUSH32 0x4E4F545F4F574E45520000000000000000000000000000000000000000000000 PUSH1 0x0 DUP3 ADD MSTORE POP JUMP JUMPDEST PUSH1 0x0 PUSH2 0x140E PUSH1 0x9 DUP4 PUSH2 0x1175 JUMP JUMPDEST SWAP2 POP PUSH2 0x1419 DUP3 PUSH2 0x13D8 JUMP JUMPDEST PUSH1 0x20 DUP3 ADD SWAP1 POP SWAP2 SWAP1 POP JUMP JUMPDEST PUSH1 0x0 PUSH1 0x20 DUP3 ADD SWAP1 POP DUP2 DUP2 SUB PUSH1 0x0 DUP4 ADD MSTORE PUSH2 0x143D DUP2 PUSH2 0x1401 JUMP JUMPDEST SWAP1 POP SWAP2 SWAP1 POP JUMP JUMPDEST PUSH32 0x4E487B7100000000000000000000000000000000000000000000000000000000 PUSH1 0x0 MSTORE PUSH1 0x32 PUSH1 0x4 MSTORE PUSH1 0x24 PUSH1 0x0 REVERT JUMPDEST PUSH32 0x4E487B7100000000000000000000000000000000000000000000000000000000 PUSH1 0x0 MSTORE PUSH1 0x11 PUSH1 0x4 MSTORE PUSH1 0x24 PUSH1 0x0 REVERT JUMPDEST PUSH1 0x0 PUSH2 0x14AD DUP3 PUSH2 0x120B JUMP JUMPDEST SWAP2 POP PUSH2 0x14B8 DUP4 PUSH2 0x120B JUMP JUMPDEST SWAP3 POP DUP3 DUP3 SUB SWAP1 POP DUP2 DUP2 GT ISZERO PUSH2 0x14D0 JUMPI PUSH2 0x14CF PUSH2 0x1473 JUMP JUMPDEST JUMPDEST SWAP3 SWAP2 POP POP JUMP JUMPDEST PUSH32 0x4E487B7100000000000000000000000000000000000000000000000000000000 PUSH1 0x0 MSTORE PUSH1 0x31 PUSH1 0x4 MSTORE PUSH1 0x24 PUSH1 0x0 REVERT JUMPDEST PUSH1 0x0 PUSH2 0x1510 DUP3 PUSH2 0x120B JUMP JUMPDEST SWAP2 POP PUSH32 0xFFFFFFFFFFFFFFFFFFFFFFFFFFFFFFFFFFFFFFFFFFFFFFFFFFFFFFFFFFFFFFFF DUP3 SUB PUSH2 0x1542 JUMPI PUSH2 0x1541 PUSH2 0x1473 JUMP JUMPDEST JUMPDEST PUSH1 0x1 DUP3 ADD SWAP1 POP SWAP2 SWAP1 POP JUMP JUMPDEST PUSH32 0x4E487B7100000000000000000000000000000000000000000000000000000000 PUSH1 0x0 MSTORE PUSH1 0x22 PUSH1 0x4 MSTORE PUSH1 0x24 PUSH1 0x0 REVERT JUMPDEST PUSH1 0x0 PUSH1 0x2 DUP3 DIV SWAP1 POP PUSH1 0x1 DUP3 AND DUP1 PUSH2 0x1594 JUMPI PUSH1 0x7F DUP3 AND SWAP2 POP JUMPDEST PUSH1 0x20 DUP3 LT DUP2 SUB PUSH2 0x15A7 JUMPI PUSH2 0x15A6 PUSH2 0x154D JUMP JUMPDEST JUMPDEST POP SWAP2 SWAP1 POP JUMP JUMPDEST PUSH1 0x0 PUSH2 0x15B8 DUP3 PUSH2 0x120B JUMP JUMPDEST SWAP2 POP PUSH2 0x15C3 DUP4 PUSH2 0x120B JUMP JUMPDEST SWAP3 POP DUP3 DUP3 ADD SWAP1 POP DUP1 DUP3 GT ISZERO PUSH2 0x15DB JUMPI PUSH2 0x15DA PUSH2 0x1473 JUMP JUMPDEST JUMPDEST SWAP3 SWAP2 POP POP JUMP JUMPDEST PUSH32 0x436F6E7472616374206E6F7420616C6C6F776564000000000000000000000000 PUSH1 0x0 DUP3 ADD MSTORE POP JUMP JUMPDEST PUSH1 0x0 PUSH2 0x1617 PUSH1 0x14 DUP4 PUSH2 0x1175 JUMP JUMPDEST SWAP2 POP PUSH2 0x1622 DUP3 PUSH2 0x15E1 JUMP JUMPDEST PUSH1 0x20 DUP3 ADD SWAP1 POP SWAP2 SWAP1 POP JUMP JUMPDEST PUSH1 0x0 PUSH1 0x20 DUP3 ADD SWAP1 POP DUP2 DUP2 SUB PUSH1 0x0 DUP4 ADD MSTORE PUSH2 0x1646 DUP2 PUSH2 0x160A JUMP JUMPDEST SWAP1 POP SWAP2 SWAP1 POP JUMP JUMPDEST PUSH1 0x0 PUSH2 0x1658 DUP3 PUSH2 0x120B JUMP JUMPDEST SWAP2 POP PUSH2 0x1663 DUP4 PUSH2 0x120B JUMP JUMPDEST SWAP3 POP DUP3 DUP3 MUL PUSH2 0x1671 DUP2 PUSH2 0x120B JUMP JUMPDEST SWAP2 POP DUP3 DUP3 DIV DUP5 EQ DUP4 ISZERO OR PUSH2 0x1688 JUMPI PUSH2 0x1687 PUSH2 0x1473 JUMP JUMPDEST JUMPDEST POP SWAP3 SWAP2 POP POP JUMP INVALID LOG2 PUSH5 0x6970667358 0x22 SLT KECCAK256 JUMPDEST 0x4E SIGNEXTEND SUB 0x2C 0x2D 0x5F GASPRICE 0xDD 0xDD 0x2E 0xFC 0x29 PUSH1 0xEA MULMOD 0xBF KECCAK256 NOT 0xB8 SUB PUSH13 0x95603A7C952858E750664736F PUSH13 0x63430008130033000000000000 "
				},
				"gasEstimates": {
					"creation": {
						"codeDepositCost": "1165800",
						"executionCost": "infinite",
						"totalCost": "infinite"
					},
					"external": {
						"allowance(address,address)": "infinite",
						"approve(address,uint256)": "infinite",
						"balanceOf(address)": "2859",
						"burn(address,uint256)": "infinite",
						"decimals()": "2582",
						"giveMintAccess(address[])": "infinite",
						"mint(address,uint256)": "infinite",
						"name()": "infinite",
						"revokeMintAccess(address[])": "infinite",
						"symbol()": "infinite",
						"totalSupply()": "2496",
						"transfer(address,uint256)": "infinite",
						"transferFrom(address,address,uint256)": "infinite"
					}
				},
				"methodIdentifiers": {
					"allowance(address,address)": "dd62ed3e",
					"approve(address,uint256)": "095ea7b3",
					"balanceOf(address)": "70a08231",
					"burn(address,uint256)": "9dc29fac",
					"decimals()": "313ce567",
					"giveMintAccess(address[])": "f9da1913",
					"mint(address,uint256)": "40c10f19",
					"name()": "06fdde03",
					"revokeMintAccess(address[])": "03ce50fa",
					"symbol()": "95d89b41",
					"totalSupply()": "18160ddd",
					"transfer(address,uint256)": "a9059cbb",
					"transferFrom(address,address,uint256)": "23b872dd"
				}
			},
			"storageLayout": {
				"storage": [
					{
						"astId": 220,
						"contract": "src/Credit_Token/CreditToken.sol:CreditScore",
						"label": "totalSupply",
						"offset": 0,
						"slot": "0",
						"type": "t_uint256"
					},
					{
						"astId": 224,
						"contract": "src/Credit_Token/CreditToken.sol:CreditScore",
						"label": "balanceOf",
						"offset": 0,
						"slot": "1",
						"type": "t_mapping(t_address,t_uint256)"
					},
					{
						"astId": 230,
						"contract": "src/Credit_Token/CreditToken.sol:CreditScore",
						"label": "allowance",
						"offset": 0,
						"slot": "2",
						"type": "t_mapping(t_address,t_mapping(t_address,t_uint256))"
					},
					{
						"astId": 232,
						"contract": "src/Credit_Token/CreditToken.sol:CreditScore",
						"label": "name",
						"offset": 0,
						"slot": "3",
						"type": "t_string_storage"
					},
					{
						"astId": 234,
						"contract": "src/Credit_Token/CreditToken.sol:CreditScore",
						"label": "symbol",
						"offset": 0,
						"slot": "4",
						"type": "t_string_storage"
					},
					{
						"astId": 236,
						"contract": "src/Credit_Token/CreditToken.sol:CreditScore",
						"label": "decimals",
						"offset": 0,
						"slot": "5",
						"type": "t_uint8"
					},
					{
						"astId": 6,
						"contract": "src/Credit_Token/CreditToken.sol:CreditScore",
						"label": "owner",
						"offset": 1,
						"slot": "5",
						"type": "t_address"
					},
					{
						"astId": 10,
						"contract": "src/Credit_Token/CreditToken.sol:CreditScore",
						"label": "allowedContracts",
						"offset": 0,
						"slot": "6",
						"type": "t_mapping(t_address,t_bool)"
					},
					{
						"astId": 13,
						"contract": "src/Credit_Token/CreditToken.sol:CreditScore",
						"label": "allowedContractsList",
						"offset": 0,
						"slot": "7",
						"type": "t_array(t_address)dyn_storage"
					}
				],
				"types": {
					"t_address": {
						"encoding": "inplace",
						"label": "address",
						"numberOfBytes": "20"
					},
					"t_array(t_address)dyn_storage": {
						"base": "t_address",
						"encoding": "dynamic_array",
						"label": "address[]",
						"numberOfBytes": "32"
					},
					"t_bool": {
						"encoding": "inplace",
						"label": "bool",
						"numberOfBytes": "1"
					},
					"t_mapping(t_address,t_bool)": {
						"encoding": "mapping",
						"key": "t_address",
						"label": "mapping(address => bool)",
						"numberOfBytes": "32",
						"value": "t_bool"
					},
					"t_mapping(t_address,t_mapping(t_address,t_uint256))": {
						"encoding": "mapping",
						"key": "t_address",
						"label": "mapping(address => mapping(address => uint256))",
						"numberOfBytes": "32",
						"value": "t_mapping(t_address,t_uint256)"
					},
					"t_mapping(t_address,t_uint256)": {
						"encoding": "mapping",
						"key": "t_address",
						"label": "mapping(address => uint256)",
						"numberOfBytes": "32",
						"value": "t_uint256"
					},
					"t_string_storage": {
						"encoding": "bytes",
						"label": "string",
						"numberOfBytes": "32"
					},
					"t_uint256": {
						"encoding": "inplace",
						"label": "uint256",
						"numberOfBytes": "32"
					},
					"t_uint8": {
						"encoding": "inplace",
						"label": "uint8",
						"numberOfBytes": "1"
					}
				}
			},
			"userdoc": {
				"kind": "user",
				"methods": {},
				"version": 1
			}
		}
	}
}